{
  "_format": "hh-sol-artifact-1",
  "contractName": "ToadzMarketV5",
  "sourceName": "contracts/ToadzMarketV5.sol",
  "abi": [
    {
      "inputs": [],
      "stateMutability": "nonpayable",
      "type": "constructor"
    },
    {
      "anonymous": false,
      "inputs": [
        {
          "indexed": true,
          "internalType": "address",
          "name": "collection",
          "type": "address"
        },
        {
          "indexed": true,
          "internalType": "uint256",
          "name": "tokenId",
          "type": "uint256"
        },
        {
          "indexed": true,
          "internalType": "address",
          "name": "seller",
          "type": "address"
        }
      ],
      "name": "Cancelled",
      "type": "event"
    },
    {
      "anonymous": false,
      "inputs": [
        {
          "indexed": true,
          "internalType": "address",
          "name": "collection",
          "type": "address"
        },
        {
          "indexed": false,
          "internalType": "bool",
          "name": "status",
          "type": "bool"
        }
      ],
      "name": "CollectionWhitelisted",
      "type": "event"
    },
    {
      "anonymous": false,
      "inputs": [
        {
          "indexed": false,
          "internalType": "uint8",
          "name": "version",
          "type": "uint8"
        }
      ],
      "name": "Initialized",
      "type": "event"
    },
    {
      "anonymous": false,
      "inputs": [
        {
          "indexed": true,
          "internalType": "address",
          "name": "collection",
          "type": "address"
        },
        {
          "indexed": true,
          "internalType": "uint256",
          "name": "tokenId",
          "type": "uint256"
        },
        {
          "indexed": true,
          "internalType": "address",
          "name": "seller",
          "type": "address"
        },
        {
          "indexed": false,
          "internalType": "uint256",
          "name": "price",
          "type": "uint256"
        }
      ],
      "name": "Listed",
      "type": "event"
    },
    {
      "anonymous": false,
      "inputs": [
        {
          "indexed": true,
          "internalType": "address",
          "name": "user",
          "type": "address"
        },
        {
          "indexed": false,
          "internalType": "uint256",
          "name": "newCount",
          "type": "uint256"
        }
      ],
      "name": "ListingCountChanged",
      "type": "event"
    },
    {
      "anonymous": false,
      "inputs": [
        {
          "indexed": true,
          "internalType": "address",
          "name": "previousOwner",
          "type": "address"
        },
        {
          "indexed": true,
          "internalType": "address",
          "name": "newOwner",
          "type": "address"
        }
      ],
      "name": "OwnershipTransferred",
      "type": "event"
    },
    {
      "anonymous": false,
      "inputs": [
        {
          "indexed": false,
          "internalType": "address",
          "name": "account",
          "type": "address"
        }
      ],
      "name": "Paused",
      "type": "event"
    },
    {
      "anonymous": false,
      "inputs": [
        {
          "indexed": true,
          "internalType": "address",
          "name": "collection",
          "type": "address"
        },
        {
          "indexed": true,
          "internalType": "uint256",
          "name": "tokenId",
          "type": "uint256"
        },
        {
          "indexed": true,
          "internalType": "address",
          "name": "owner",
          "type": "address"
        },
        {
          "indexed": false,
          "internalType": "address",
          "name": "renter",
          "type": "address"
        },
        {
          "indexed": false,
          "internalType": "uint256",
          "name": "amount",
          "type": "uint256"
        }
      ],
      "name": "RentProcessed",
      "type": "event"
    },
    {
      "anonymous": false,
      "inputs": [
        {
          "indexed": true,
          "internalType": "address",
          "name": "collection",
          "type": "address"
        },
        {
          "indexed": true,
          "internalType": "uint256",
          "name": "tokenId",
          "type": "uint256"
        },
        {
          "indexed": true,
          "internalType": "address",
          "name": "renter",
          "type": "address"
        },
        {
          "indexed": false,
          "internalType": "uint256",
          "name": "reason",
          "type": "uint256"
        }
      ],
      "name": "RentalEnded",
      "type": "event"
    },
    {
      "anonymous": false,
      "inputs": [
        {
          "indexed": true,
          "internalType": "address",
          "name": "collection",
          "type": "address"
        },
        {
          "indexed": true,
          "internalType": "uint256",
          "name": "tokenId",
          "type": "uint256"
        },
        {
          "indexed": true,
          "internalType": "address",
          "name": "owner",
          "type": "address"
        },
        {
          "indexed": false,
          "internalType": "uint256",
          "name": "dailyRate",
          "type": "uint256"
        },
        {
          "indexed": false,
          "internalType": "uint256",
          "name": "commitmentDays",
          "type": "uint256"
        }
      ],
      "name": "RentalListed",
      "type": "event"
    },
    {
      "anonymous": false,
      "inputs": [
        {
          "indexed": true,
          "internalType": "address",
          "name": "collection",
          "type": "address"
        },
        {
          "indexed": true,
          "internalType": "uint256",
          "name": "tokenId",
          "type": "uint256"
        },
        {
          "indexed": true,
          "internalType": "address",
          "name": "owner",
          "type": "address"
        }
      ],
      "name": "RentalListingCancelled",
      "type": "event"
    },
    {
      "anonymous": false,
      "inputs": [
        {
          "indexed": true,
          "internalType": "address",
          "name": "collection",
          "type": "address"
        },
        {
          "indexed": true,
          "internalType": "uint256",
          "name": "tokenId",
          "type": "uint256"
        },
        {
          "indexed": true,
          "internalType": "address",
          "name": "renter",
          "type": "address"
        },
        {
          "indexed": false,
          "internalType": "uint256",
          "name": "rentalDays",
          "type": "uint256"
        }
      ],
      "name": "RentalStarted",
      "type": "event"
    },
    {
      "anonymous": false,
      "inputs": [
        {
          "indexed": true,
          "internalType": "address",
          "name": "collection",
          "type": "address"
        },
        {
          "indexed": true,
          "internalType": "uint256",
          "name": "tokenId",
          "type": "uint256"
        },
        {
          "indexed": true,
          "internalType": "address",
          "name": "buyer",
          "type": "address"
        },
        {
          "indexed": false,
          "internalType": "address",
          "name": "seller",
          "type": "address"
        },
        {
          "indexed": false,
          "internalType": "uint256",
          "name": "price",
          "type": "uint256"
        }
      ],
      "name": "Sold",
      "type": "event"
    },
    {
      "anonymous": false,
      "inputs": [
        {
          "indexed": false,
          "internalType": "address",
          "name": "account",
          "type": "address"
        }
      ],
      "name": "Unpaused",
      "type": "event"
    },
    {
      "inputs": [],
      "name": "BPS",
      "outputs": [
        {
          "internalType": "uint256",
          "name": "",
          "type": "uint256"
        }
      ],
      "stateMutability": "view",
      "type": "function"
    },
    {
      "inputs": [],
      "name": "FEE_BPS",
      "outputs": [
        {
          "internalType": "uint256",
          "name": "",
          "type": "uint256"
        }
      ],
      "stateMutability": "view",
      "type": "function"
    },
    {
      "inputs": [
        {
          "internalType": "uint256",
          "name": "",
          "type": "uint256"
        }
      ],
      "name": "activeListingKeys",
      "outputs": [
        {
          "internalType": "address",
          "name": "collection",
          "type": "address"
        },
        {
          "internalType": "uint256",
          "name": "tokenId",
          "type": "uint256"
        }
      ],
      "stateMutability": "view",
      "type": "function"
    },
    {
      "inputs": [
        {
          "internalType": "uint256",
          "name": "",
          "type": "uint256"
        }
      ],
      "name": "activeRentalKeys",
      "outputs": [
        {
          "internalType": "address",
          "name": "collection",
          "type": "address"
        },
        {
          "internalType": "uint256",
          "name": "tokenId",
          "type": "uint256"
        }
      ],
      "stateMutability": "view",
      "type": "function"
    },
    {
      "inputs": [
        {
          "internalType": "uint256",
          "name": "",
          "type": "uint256"
        }
      ],
      "name": "activeRentalListingKeys",
      "outputs": [
        {
          "internalType": "address",
          "name": "collection",
          "type": "address"
        },
        {
          "internalType": "uint256",
          "name": "tokenId",
          "type": "uint256"
        }
      ],
      "stateMutability": "view",
      "type": "function"
    },
    {
      "inputs": [
        {
          "internalType": "address",
          "name": "",
          "type": "address"
        },
        {
          "internalType": "uint256",
          "name": "",
          "type": "uint256"
        }
      ],
      "name": "activeRentals",
      "outputs": [
        {
          "internalType": "address",
          "name": "renter",
          "type": "address"
        },
        {
          "internalType": "uint256",
          "name": "startTime",
          "type": "uint256"
        },
        {
          "internalType": "uint256",
          "name": "endTime",
          "type": "uint256"
        },
        {
          "internalType": "uint256",
          "name": "dailyRate",
          "type": "uint256"
        },
        {
          "internalType": "uint256",
          "name": "lastProcessed",
          "type": "uint256"
        }
      ],
      "stateMutability": "view",
      "type": "function"
    },
    {
      "inputs": [],
      "name": "boostRegistry",
      "outputs": [
        {
          "internalType": "address",
          "name": "",
          "type": "address"
        }
      ],
      "stateMutability": "view",
      "type": "function"
    },
    {
      "inputs": [
        {
          "internalType": "address",
          "name": "collection",
          "type": "address"
        },
        {
          "internalType": "uint256",
          "name": "tokenId",
          "type": "uint256"
        }
      ],
      "name": "buy",
      "outputs": [],
      "stateMutability": "payable",
      "type": "function"
    },
    {
      "inputs": [
        {
          "internalType": "address",
          "name": "collection",
          "type": "address"
        },
        {
          "internalType": "uint256",
          "name": "tokenId",
          "type": "uint256"
        }
      ],
      "name": "cancel",
      "outputs": [],
      "stateMutability": "nonpayable",
      "type": "function"
    },
    {
      "inputs": [
        {
          "internalType": "address",
          "name": "collection",
          "type": "address"
        },
        {
          "internalType": "uint256",
          "name": "tokenId",
          "type": "uint256"
        }
      ],
      "name": "cancelRentalListing",
      "outputs": [],
      "stateMutability": "nonpayable",
      "type": "function"
    },
    {
      "inputs": [
        {
          "internalType": "address",
          "name": "collection",
          "type": "address"
        },
        {
          "internalType": "uint256",
          "name": "tokenId",
          "type": "uint256"
        }
      ],
      "name": "emergencyCancelRentalListing",
      "outputs": [],
      "stateMutability": "nonpayable",
      "type": "function"
    },
    {
      "inputs": [
        {
          "internalType": "address",
          "name": "collection",
          "type": "address"
        },
        {
          "internalType": "uint256",
          "name": "tokenId",
          "type": "uint256"
        }
      ],
      "name": "emergencyEndRental",
      "outputs": [],
      "stateMutability": "nonpayable",
      "type": "function"
    },
    {
      "inputs": [
        {
          "internalType": "address",
          "name": "collection",
          "type": "address"
        },
        {
          "internalType": "uint256",
          "name": "tokenId",
          "type": "uint256"
        }
      ],
      "name": "endRental",
      "outputs": [],
      "stateMutability": "nonpayable",
      "type": "function"
    },
    {
      "inputs": [],
      "name": "feeRecipient",
      "outputs": [
        {
          "internalType": "address",
          "name": "",
          "type": "address"
        }
      ],
      "stateMutability": "view",
      "type": "function"
    },
    {
      "inputs": [
        {
          "internalType": "address",
          "name": "collection",
          "type": "address"
        },
        {
          "internalType": "uint256",
          "name": "tokenId",
          "type": "uint256"
        }
      ],
      "name": "getActiveRental",
      "outputs": [
        {
          "internalType": "address",
          "name": "renter",
          "type": "address"
        },
        {
          "internalType": "uint256",
          "name": "startTime",
          "type": "uint256"
        },
        {
          "internalType": "uint256",
          "name": "endTime",
          "type": "uint256"
        },
        {
          "internalType": "uint256",
          "name": "dailyRate",
          "type": "uint256"
        },
        {
          "internalType": "uint256",
          "name": "pendingPayment",
          "type": "uint256"
        }
      ],
      "stateMutability": "view",
      "type": "function"
    },
    {
      "inputs": [],
      "name": "getActiveRentalCount",
      "outputs": [
        {
          "internalType": "uint256",
          "name": "",
          "type": "uint256"
        }
      ],
      "stateMutability": "view",
      "type": "function"
    },
    {
      "inputs": [],
      "name": "getActiveRentalListingCount",
      "outputs": [
        {
          "internalType": "uint256",
          "name": "",
          "type": "uint256"
        }
      ],
      "stateMutability": "view",
      "type": "function"
    },
    {
      "inputs": [],
      "name": "getAllActiveListings",
      "outputs": [
        {
          "internalType": "address[]",
          "name": "collections",
          "type": "address[]"
        },
        {
          "internalType": "uint256[]",
          "name": "tokenIds",
          "type": "uint256[]"
        },
        {
          "internalType": "address[]",
          "name": "sellers",
          "type": "address[]"
        },
        {
          "internalType": "uint256[]",
          "name": "prices",
          "type": "uint256[]"
        },
        {
          "internalType": "uint256[]",
          "name": "commitmentDays",
          "type": "uint256[]"
        },
        {
          "internalType": "uint256[]",
          "name": "listedAts",
          "type": "uint256[]"
        }
      ],
      "stateMutability": "view",
      "type": "function"
    },
    {
      "inputs": [],
      "name": "getAllActiveRentalListings",
      "outputs": [
        {
          "internalType": "address[]",
          "name": "collections",
          "type": "address[]"
        },
        {
          "internalType": "uint256[]",
          "name": "tokenIds",
          "type": "uint256[]"
        },
        {
          "internalType": "address[]",
          "name": "owners",
          "type": "address[]"
        },
        {
          "internalType": "uint256[]",
          "name": "dailyRates",
          "type": "uint256[]"
        },
        {
          "internalType": "uint256[]",
          "name": "commitmentEnds",
          "type": "uint256[]"
        }
      ],
      "stateMutability": "view",
      "type": "function"
    },
    {
      "inputs": [
        {
          "internalType": "address",
          "name": "collection",
          "type": "address"
        },
        {
          "internalType": "uint256",
          "name": "tokenId",
          "type": "uint256"
        }
      ],
      "name": "getRentalListing",
      "outputs": [
        {
          "internalType": "address",
          "name": "owner_",
          "type": "address"
        },
        {
          "internalType": "uint256",
          "name": "dailyRate",
          "type": "uint256"
        },
        {
          "internalType": "uint256",
          "name": "commitmentEnd",
          "type": "uint256"
        },
        {
          "internalType": "uint256",
          "name": "daysRemaining",
          "type": "uint256"
        },
        {
          "internalType": "bool",
          "name": "isActive",
          "type": "bool"
        },
        {
          "internalType": "bool",
          "name": "isRented",
          "type": "bool"
        }
      ],
      "stateMutability": "view",
      "type": "function"
    },
    {
      "inputs": [
        {
          "internalType": "address",
          "name": "user",
          "type": "address"
        }
      ],
      "name": "getUserRentalStats",
      "outputs": [
        {
          "internalType": "uint256",
          "name": "activeRentals_",
          "type": "uint256"
        },
        {
          "internalType": "uint256",
          "name": "rentalListings_",
          "type": "uint256"
        }
      ],
      "stateMutability": "view",
      "type": "function"
    },
    {
      "inputs": [
        {
          "internalType": "address",
          "name": "user",
          "type": "address"
        }
      ],
      "name": "getUserTotalListings",
      "outputs": [
        {
          "internalType": "uint256",
          "name": "sales",
          "type": "uint256"
        },
        {
          "internalType": "uint256",
          "name": "rentals",
          "type": "uint256"
        },
        {
          "internalType": "uint256",
          "name": "total",
          "type": "uint256"
        }
      ],
      "stateMutability": "view",
      "type": "function"
    },
    {
      "inputs": [
        {
          "internalType": "address",
          "name": "_feeRecipient",
          "type": "address"
        }
      ],
      "name": "initialize",
      "outputs": [],
      "stateMutability": "nonpayable",
      "type": "function"
    },
    {
      "inputs": [
        {
          "internalType": "address",
          "name": "collection",
          "type": "address"
        },
        {
          "internalType": "uint256",
          "name": "tokenId",
          "type": "uint256"
        },
        {
          "internalType": "uint256",
          "name": "price",
          "type": "uint256"
        },
        {
          "internalType": "uint256",
          "name": "commitmentDays",
          "type": "uint256"
        }
      ],
      "name": "list",
      "outputs": [],
      "stateMutability": "nonpayable",
      "type": "function"
    },
    {
      "inputs": [
        {
          "internalType": "address",
          "name": "collection",
          "type": "address"
        },
        {
          "internalType": "uint256",
          "name": "tokenId",
          "type": "uint256"
        },
        {
          "internalType": "uint256",
          "name": "dailyRate",
          "type": "uint256"
        },
        {
          "internalType": "uint256",
          "name": "commitmentDays",
          "type": "uint256"
        }
      ],
      "name": "listForRent",
      "outputs": [],
      "stateMutability": "nonpayable",
      "type": "function"
    },
    {
      "inputs": [
        {
          "internalType": "address",
          "name": "",
          "type": "address"
        },
        {
          "internalType": "uint256",
          "name": "",
          "type": "uint256"
        }
      ],
      "name": "listingIndex",
      "outputs": [
        {
          "internalType": "uint256",
          "name": "",
          "type": "uint256"
        }
      ],
      "stateMutability": "view",
      "type": "function"
    },
    {
      "inputs": [
        {
          "internalType": "address",
          "name": "",
          "type": "address"
        },
        {
          "internalType": "uint256",
          "name": "",
          "type": "uint256"
        }
      ],
      "name": "listings",
      "outputs": [
        {
          "internalType": "address",
          "name": "seller",
          "type": "address"
        },
        {
          "internalType": "uint256",
          "name": "price",
          "type": "uint256"
        },
        {
          "internalType": "uint256",
          "name": "dailyRate",
          "type": "uint256"
        },
        {
          "internalType": "uint256",
          "name": "commitmentDays",
          "type": "uint256"
        },
        {
          "internalType": "uint256",
          "name": "listedAt",
          "type": "uint256"
        }
      ],
      "stateMutability": "view",
      "type": "function"
    },
    {
      "inputs": [],
      "name": "minLPForRental",
      "outputs": [
        {
          "internalType": "uint256",
          "name": "",
          "type": "uint256"
        }
      ],
      "stateMutability": "view",
      "type": "function"
    },
    {
      "inputs": [],
      "name": "owner",
      "outputs": [
        {
          "internalType": "address",
          "name": "",
          "type": "address"
        }
      ],
      "stateMutability": "view",
      "type": "function"
    },
    {
      "inputs": [],
      "name": "pause",
      "outputs": [],
      "stateMutability": "nonpayable",
      "type": "function"
    },
    {
      "inputs": [],
      "name": "paused",
      "outputs": [
        {
          "internalType": "bool",
          "name": "",
          "type": "bool"
        }
      ],
      "stateMutability": "view",
      "type": "function"
    },
    {
      "inputs": [
        {
          "internalType": "uint256",
          "name": "maxToProcess",
          "type": "uint256"
        }
      ],
      "name": "processRentals",
      "outputs": [],
      "stateMutability": "nonpayable",
      "type": "function"
    },
    {
      "inputs": [],
      "name": "renounceOwnership",
      "outputs": [],
      "stateMutability": "nonpayable",
      "type": "function"
    },
    {
      "inputs": [
        {
          "internalType": "address",
          "name": "collection",
          "type": "address"
        },
        {
          "internalType": "uint256",
          "name": "tokenId",
          "type": "uint256"
        },
        {
          "internalType": "uint256",
          "name": "rentalDays",
          "type": "uint256"
        }
      ],
      "name": "rent",
      "outputs": [],
      "stateMutability": "nonpayable",
      "type": "function"
    },
    {
      "inputs": [
        {
          "internalType": "address",
          "name": "",
          "type": "address"
        },
        {
          "internalType": "uint256",
          "name": "",
          "type": "uint256"
        }
      ],
      "name": "rentalKeyIndex",
      "outputs": [
        {
          "internalType": "uint256",
          "name": "",
          "type": "uint256"
        }
      ],
      "stateMutability": "view",
      "type": "function"
    },
    {
      "inputs": [
        {
          "internalType": "address",
          "name": "",
          "type": "address"
        },
        {
          "internalType": "uint256",
          "name": "",
          "type": "uint256"
        }
      ],
      "name": "rentalListingIndex",
      "outputs": [
        {
          "internalType": "uint256",
          "name": "",
          "type": "uint256"
        }
      ],
      "stateMutability": "view",
      "type": "function"
    },
    {
      "inputs": [
        {
          "internalType": "address",
          "name": "",
          "type": "address"
        },
        {
          "internalType": "uint256",
          "name": "",
          "type": "uint256"
        }
      ],
      "name": "rentalListings",
      "outputs": [
        {
          "internalType": "address",
          "name": "owner",
          "type": "address"
        },
        {
          "internalType": "uint256",
          "name": "dailyRate",
          "type": "uint256"
        },
        {
          "internalType": "uint256",
          "name": "commitmentEnd",
          "type": "uint256"
        },
        {
          "internalType": "bool",
          "name": "isActive",
          "type": "bool"
        }
      ],
      "stateMutability": "view",
      "type": "function"
    },
    {
      "inputs": [
        {
          "internalType": "address",
          "name": "_boostRegistry",
          "type": "address"
        }
      ],
      "name": "setBoostRegistry",
      "outputs": [],
      "stateMutability": "nonpayable",
      "type": "function"
    },
    {
      "inputs": [
        {
          "internalType": "address",
          "name": "_feeRecipient",
          "type": "address"
        }
      ],
      "name": "setFeeRecipient",
      "outputs": [],
      "stateMutability": "nonpayable",
      "type": "function"
    },
    {
      "inputs": [
        {
          "internalType": "uint256",
          "name": "_minLP",
          "type": "uint256"
        }
      ],
      "name": "setMinLPForRental",
      "outputs": [],
      "stateMutability": "nonpayable",
      "type": "function"
    },
    {
      "inputs": [
        {
          "internalType": "bool",
          "name": "_testMode",
          "type": "bool"
        }
      ],
      "name": "setTestMode",
      "outputs": [],
      "stateMutability": "nonpayable",
      "type": "function"
    },
    {
      "inputs": [
        {
          "internalType": "address",
          "name": "_toadzStake",
          "type": "address"
        }
      ],
      "name": "setToadzStake",
      "outputs": [],
      "stateMutability": "nonpayable",
      "type": "function"
    },
    {
      "inputs": [
        {
          "internalType": "address",
          "name": "collection",
          "type": "address"
        },
        {
          "internalType": "bool",
          "name": "status",
          "type": "bool"
        }
      ],
      "name": "setWhitelisted",
      "outputs": [],
      "stateMutability": "nonpayable",
      "type": "function"
    },
    {
      "inputs": [],
      "name": "testMode",
      "outputs": [
        {
          "internalType": "bool",
          "name": "",
          "type": "bool"
        }
      ],
      "stateMutability": "view",
      "type": "function"
    },
    {
      "inputs": [],
      "name": "toadzStake",
      "outputs": [
        {
          "internalType": "address",
          "name": "",
          "type": "address"
        }
      ],
      "stateMutability": "view",
      "type": "function"
    },
    {
      "inputs": [
        {
          "internalType": "address",
          "name": "newOwner",
          "type": "address"
        }
      ],
      "name": "transferOwnership",
      "outputs": [],
      "stateMutability": "nonpayable",
      "type": "function"
    },
    {
      "inputs": [],
      "name": "unpause",
      "outputs": [],
      "stateMutability": "nonpayable",
      "type": "function"
    },
    {
      "inputs": [
        {
          "internalType": "address",
          "name": "",
          "type": "address"
        }
      ],
      "name": "userActiveRentalCount",
      "outputs": [
        {
          "internalType": "uint256",
          "name": "",
          "type": "uint256"
        }
      ],
      "stateMutability": "view",
      "type": "function"
    },
    {
      "inputs": [
        {
          "internalType": "address",
          "name": "",
          "type": "address"
        }
      ],
      "name": "userListingCount",
      "outputs": [
        {
          "internalType": "uint256",
          "name": "",
          "type": "uint256"
        }
      ],
      "stateMutability": "view",
      "type": "function"
    },
    {
      "inputs": [
        {
          "internalType": "address",
          "name": "",
          "type": "address"
        }
      ],
      "name": "userRentalListingCount",
      "outputs": [
        {
          "internalType": "uint256",
          "name": "",
          "type": "uint256"
        }
      ],
      "stateMutability": "view",
      "type": "function"
    },
    {
      "inputs": [
        {
          "internalType": "address",
          "name": "",
          "type": "address"
        }
      ],
      "name": "whitelisted",
      "outputs": [
        {
          "internalType": "bool",
          "name": "",
          "type": "bool"
        }
      ],
      "stateMutability": "view",
      "type": "function"
    }
  ],
  "bytecode": "0x60806040523480156200001157600080fd5b506200001c62000022565b620000e3565b600054610100900460ff16156200008f5760405162461bcd60e51b815260206004820152602760248201527f496e697469616c697a61626c653a20636f6e747261637420697320696e697469604482015266616c697a696e6760c81b606482015260840160405180910390fd5b60005460ff90811614620000e1576000805460ff191660ff9081179091556040519081527f7f26b83ff96e1f2b6a682f133852f6798a09c465da95921460cefb38474024989060200160405180910390a15b565b61464b80620000f36000396000f3fe6080604052600436106102e35760003560e01c8063715018a611610190578063bb74a1c2116100dc578063d936547e11610095578063ed0c95561161006f578063ed0c955614610ab8578063f2fde38b14610acd578063f48b9ce514610aed578063feef879914610b0d57600080fd5b8063d936547e14610a3b578063dfcfc83614610a6b578063e74b981b14610a9857600080fd5b8063bb74a1c214610991578063bf333f2c146109b1578063c4d66de8146109c7578063cce7ec13146109e7578063cd9ea342146109fa578063d76fb79014610a1b57600080fd5b80639281aa0b1161014957806398590ef91161012357806398590ef9146108e1578063a354599514610901578063a822a21014610939578063ae2254661461095957600080fd5b80639281aa0b146108815780639395b649146108a157806397515406146108c157600080fd5b8063715018a6146107be57806380594fef146107d35780638456cb591461080e57806385ad53cd1461082357806385fc7b70146108435780638da5cb5b1461086357600080fd5b80633a5057d81161024f5780635c975abb1161020857806368ee2b5d116101e257806368ee2b5d1461074257806369a7dc9f14610762578063701e5084146107775780637101ac011461079e57600080fd5b80635c975abb146106a357806361d2f484146106c7578063636762a0146106e757600080fd5b80633a5057d8146105725780633f4ba83a146105d157806346904840146105e65780634dc32a181461061e57806352c70b421461063e578063587437ec1461066b57600080fd5b806324980f5e116102a157806324980f5e14610445578063249d39e914610465578063249e4143146104895780632a3859d51461050f5780633680e4da1461052557806339b1ea381461054557600080fd5b806207df30146102e85780630defcc501461037e5780631157decb146103a05780631f03168e146103c05780631fedd64c146103ff5780631ff1292f14610425575b600080fd5b3480156102f457600080fd5b50610347610303366004614176565b60c9602090815260009283526040808420909152908252902080546001820154600283015460038401546004909401546001600160a01b0390931693919290919085565b604080516001600160a01b0390961686526020860194909452928401919091526060830152608082015260a0015b60405180910390f35b34801561038a57600080fd5b5061039e610399366004614176565b610b65565b005b3480156103ac57600080fd5b5061039e6103bb366004614176565b610c7a565b3480156103cc57600080fd5b506103e06103db3660046141a2565b610e40565b604080516001600160a01b039093168352602083019190915201610375565b34801561040b57600080fd5b50610414610e78565b604051610375959493929190614231565b34801561043157600080fd5b5061039e6104403660046142ac565b611169565b34801561045157600080fd5b5061039e610460366004614176565b61118f565b34801561047157600080fd5b5061047b61271081565b604051908152602001610375565b34801561049557600080fd5b506104e36104a4366004614176565b60d060209081526000928352604080842090915290825290208054600182015460028301546003909301546001600160a01b0390921692909160ff1684565b604080516001600160a01b03909516855260208501939093529183015215156060820152608001610375565b34801561051b57600080fd5b5061047b60d95481565b34801561053157600080fd5b506103e06105403660046141a2565b611294565b34801561055157600080fd5b5061047b6105603660046142d0565b60cc6020526000908152604090205481565b34801561057e57600080fd5b5061034761058d366004614176565b60d1602090815260009283526040808420909152908252902080546001820154600283015460038401546004909401546001600160a01b0390931693919290919085565b3480156105dd57600080fd5b5061039e6112a4565b3480156105f257600080fd5b5060cb54610606906001600160a01b031681565b6040516001600160a01b039091168152602001610375565b34801561062a57600080fd5b5061039e6106393660046142ed565b6112b6565b34801561064a57600080fd5b5061047b6106593660046142d0565b60d86020526000908152604090205481565b34801561067757600080fd5b5061047b610686366004614176565b60cf60209081526000928352604080842090915290825290205481565b3480156106af57600080fd5b5060655460ff165b6040519015158152602001610375565b3480156106d357600080fd5b5060d554610606906001600160a01b031681565b3480156106f357600080fd5b50610707610702366004614176565b61182d565b604080516001600160a01b039097168752602087019590955293850192909252606084015215156080830152151560a082015260c001610375565b34801561074e57600080fd5b5061034761075d366004614176565b6118d4565b34801561076e57600080fd5b5060d35461047b565b34801561078357600080fd5b5061078c611977565b60405161037596959493929190614322565b3480156107aa57600080fd5b5061039e6107b93660046142d0565b611cdb565b3480156107ca57600080fd5b5061039e611d05565b3480156107df57600080fd5b506107f36107ee3660046142d0565b611d17565b60408051938452602084019290925290820152606001610375565b34801561081a57600080fd5b5061039e611d4f565b34801561082f57600080fd5b5061039e61083e3660046143a4565b611d5f565b34801561084f57600080fd5b5061039e61085e366004614176565b612373565b34801561086f57600080fd5b506097546001600160a01b0316610606565b34801561088d57600080fd5b5061039e61089c3660046143df565b6125d9565b3480156108ad57600080fd5b5061039e6108bc3660046142d0565b612640565b3480156108cd57600080fd5b5060cd54610606906001600160a01b031681565b3480156108ed57600080fd5b5061039e6108fc366004614176565b61266a565b34801561090d57600080fd5b5061047b61091c366004614176565b60d760209081526000928352604080842090915290825290205481565b34801561094557600080fd5b5061039e6109543660046141a2565b6127ff565b34801561096557600080fd5b5061047b610974366004614176565b60d460209081526000928352604080842090915290825290205481565b34801561099d57600080fd5b5061039e6109ac3660046143a4565b61280c565b3480156109bd57600080fd5b5061047b6101f481565b3480156109d357600080fd5b5061039e6109e23660046142d0565b612d22565b61039e6109f5366004614176565b612e5e565b348015610a0657600080fd5b5060d5546106b790600160a01b900460ff1681565b348015610a2757600080fd5b506103e0610a363660046141a2565b61318d565b348015610a4757600080fd5b506106b7610a563660046142d0565b60ca6020526000908152604090205460ff1681565b348015610a7757600080fd5b5061047b610a863660046142d0565b60d26020526000908152604090205481565b348015610aa457600080fd5b5061039e610ab33660046142d0565b61319d565b348015610ac457600080fd5b5060d65461047b565b348015610ad957600080fd5b5061039e610ae83660046142d0565b61320c565b348015610af957600080fd5b5061039e610b083660046141a2565b613285565b348015610b1957600080fd5b50610b50610b283660046142d0565b6001600160a01b0316600090815260d8602090815260408083205460d2909252909120549091565b60408051928352602083019190915201610375565b610b6d613484565b6001600160a01b03808316600090815260d1602090815260408083208584529091529020805490911615610c7557610ba583836134de565b5080546001600160a01b0316600081815260d860205260408120805491610bcb8361442e565b90915550506001600160a01b038416600090815260d160209081526040808320868452909152812080546001600160a01b031916815560018101829055600281018290556003810182905560040155610c248484613709565b806001600160a01b031683856001600160a01b03167f0c410837861a3377819fdb70b8bbc306c24d4ebd4acc39e362031c300aabd08f6000604051610c6b91815260200190565b60405180910390a4505b505050565b610c82613882565b6001600160a01b03808316600090815260d16020908152604080832085845290915290208054909116610cef5760405162461bcd60e51b815260206004820152601060248201526f139bc81858dd1a5d99481c995b9d185b60821b60448201526064015b60405180910390fd5b80546001600160a01b0316331480610d0b575080600201544210155b80610d2057506097546001600160a01b031633145b610d595760405162461bcd60e51b815260206004820152600a60248201526910d85b9b9bdd08195b9960b21b6044820152606401610ce6565b610d6383836134de565b5080546001600160a01b0316600081815260d860205260408120805491610d898361442e565b90915550506001600160a01b038416600090815260d160209081526040808320868452909152812080546001600160a01b031916815560018101829055600281018290556003810182905560040155610de28484613709565b806001600160a01b031683856001600160a01b03167f0c410837861a3377819fdb70b8bbc306c24d4ebd4acc39e362031c300aabd08f6000604051610e2991815260200190565b60405180910390a45050610e3c60018055565b5050565b60ce8181548110610e5057600080fd5b6000918252602090912060029091020180546001909101546001600160a01b03909116915082565b60d65460609081908190819081908067ffffffffffffffff811115610e9f57610e9f614445565b604051908082528060200260200182016040528015610ec8578160200160208202803683370190505b5095508067ffffffffffffffff811115610ee457610ee4614445565b604051908082528060200260200182016040528015610f0d578160200160208202803683370190505b5094508067ffffffffffffffff811115610f2957610f29614445565b604051908082528060200260200182016040528015610f52578160200160208202803683370190505b5093508067ffffffffffffffff811115610f6e57610f6e614445565b604051908082528060200260200182016040528015610f97578160200160208202803683370190505b5092508067ffffffffffffffff811115610fb357610fb3614445565b604051908082528060200260200182016040528015610fdc578160200160208202803683370190505b50915060005b8181101561116057600060d68281548110610fff57610fff61445b565b60009182526020808320604080518082018252600294850290920180546001600160a01b0390811680855260019283015485870190815290885260d0865283882090518852855295829020825160808101845281549097168752908101549386019390935292820154928401929092526003015460ff161515606083015280518a51919350908a90859081106110975761109761445b565b60200260200101906001600160a01b031690816001600160a01b03168152505081602001518884815181106110ce576110ce61445b565b60200260200101818152505080600001518784815181106110f1576110f161445b565b60200260200101906001600160a01b031690816001600160a01b03168152505080602001518684815181106111285761112861445b565b602002602001018181525050806040015185848151811061114b5761114b61445b565b60209081029190910101525050600101610fe2565b50509091929394565b611171613484565b60d58054911515600160a01b0260ff60a01b19909216919091179055565b611197613484565b6001600160a01b038216600090815260d0602090815260408083208484529091529020600381015460ff1615610c755780546001600160a01b03166111dc84846138e1565b6001600160a01b03808516600090815260d060209081526040808320878452825280832080546001600160a01b03191681556001810184905560028101849055600301805460ff19169055928416825260d2905290812080549161123f8361442e565b919050555061124d81613a5a565b806001600160a01b031683856001600160a01b03167f4d0929ac6840b4a8a4ac55fa87afeb39f6990da62a9b16e2d43121c206930dc060405160405180910390a450505050565b60d68181548110610e5057600080fd5b6112ac613484565b6112b4613b03565b565b6112be613882565b6112c6613b55565b6001600160a01b038316600090815260d0602090815260408083208584529091529020600381015460ff166113335760405162461bcd60e51b8152602060048201526013602482015272139bdd081b1a5cdd195908199bdc881c995b9d606a1b6044820152606401610ce6565b60018210156113775760405162461bcd60e51b815260206004820152601060248201526f135a5b880c4819185e481c995b9d185b60821b6044820152606401610ce6565b6001600160a01b03808516600090815260d1602090815260408083208784529091529020805490911615806113b0575080600201544210155b6113ed5760405162461bcd60e51b815260206004820152600e60248201526d105b1c9958591e481c995b9d195960921b6044820152606401610ce6565b60d5546040516393b57f9960e01b81523360048201526001600160a01b03909116906393b57f9990602401602060405180830381865afa158015611435573d6000803e3d6000fd5b505050506040513d601f19601f820116820180604052508101906114599190614471565b6114a55760405162461bcd60e51b815260206004820152601b60248201527f52656e746572206e65656473207374616b6520706f736974696f6e00000000006044820152606401610ce6565b60d55460405163055f575160e41b81523360048201526000916001600160a01b0316906355f575109060240160c060405180830381865afa1580156114ee573d6000803e3d6000fd5b505050506040513d601f19601f82011682018060405250810190611512919061448e565b50505050509050600084846001015461152b91906144d8565b9050808210156115875760405162461bcd60e51b815260206004820152602160248201527f496e73756666696369656e74207374616b6564204c5020666f722072656e74616044820152601b60fa1b6064820152608401610ce6565b60d954156115e15760d9548210156115e15760405162461bcd60e51b815260206004820152601760248201527f42656c6f77206d696e204c5020666f722072656e74616c0000000000000000006044820152606401610ce6565b82546001600160a01b03161561167a576115fb87876134de565b5082546001600160a01b0316600090815260d8602052604081208054916116218361442e565b90915550506001600160a01b038716600090815260d160209081526040808320898452909152812080546001600160a01b03191681556001810182905560028101829055600381018290556004015561167a8787613709565b6040805160a08101825233815242602082015290810161169987613b9b565b6116a390426144ef565b8152600186810154602080840191909152426040938401526001600160a01b038b8116600081815260d184528581208d82528452858120875181549085166001600160a01b031991821617825588860151828801558888015160028084019190915560608a01516003840155608090990151600490920191909155865180880188528381528086018f815260d3805498890181558085529151979099027f915c3eb987b20e1af620c1403197bf687fb7f18513b3a73fde6e78c7072c41a68101805498909616979092169690961790935595517f915c3eb987b20e1af620c1403197bf687fb7f18513b3a73fde6e78c7072c41a790920191909155915491845260d481528284208a8552905291205533600090815260d8602052604081208054916117cd83614502565b9190505550336001600160a01b031686886001600160a01b03167f081800e2060bf3ee8d09ef525d8e0a12913cf6cbceab785fee99bc57c7866de08860405161181891815260200190565b60405180910390a450505050610c7560018055565b6001600160a01b03808316600081815260d060209081526040808320868452825280832093835260d18252808320868452909152812082546001840154600285015460038601549290961695909490939260ff90921691839190428611156118aa576118a74283600201546118a2919061451b565b613bcc565b94505b80546001600160a01b0316158015906118c65750806002015442105b925050509295509295509295565b6001600160a01b03808316600090815260d16020908152604080832085845290915281208054600182015460028301546003840154929095169490939092851561196c5760008160020154421161192b5742611931565b81600201545b9050816004015481111561196a5760006119548360040154836118a2919061451b565b905082600301548161196691906144d8565b9350505b505b509295509295909350565b606080606080606080600060ce8054905090508067ffffffffffffffff8111156119a3576119a3614445565b6040519080825280602002602001820160405280156119cc578160200160208202803683370190505b5096508067ffffffffffffffff8111156119e8576119e8614445565b604051908082528060200260200182016040528015611a11578160200160208202803683370190505b5095508067ffffffffffffffff811115611a2d57611a2d614445565b604051908082528060200260200182016040528015611a56578160200160208202803683370190505b5094508067ffffffffffffffff811115611a7257611a72614445565b604051908082528060200260200182016040528015611a9b578160200160208202803683370190505b5093508067ffffffffffffffff811115611ab757611ab7614445565b604051908082528060200260200182016040528015611ae0578160200160208202803683370190505b5092508067ffffffffffffffff811115611afc57611afc614445565b604051908082528060200260200182016040528015611b25578160200160208202803683370190505b50915060005b81811015611cd157600060ce8281548110611b4857611b4861445b565b60009182526020808320604080518082018252600294850290920180546001600160a01b0390811680855260019283015485870190815290885260c9865283882090518852855295829020825160a08101845281549097168752908101549386019390935292820154928401929092526003810154606084015260040154608083015280518b51919350908b9085908110611be557611be561445b565b60200260200101906001600160a01b031690816001600160a01b0316815250508160200151898481518110611c1c57611c1c61445b565b6020026020010181815250508060000151888481518110611c3f57611c3f61445b565b60200260200101906001600160a01b031690816001600160a01b0316815250508060200151878481518110611c7657611c7661445b565b6020026020010181815250508060600151868481518110611c9957611c9961445b565b6020026020010181815250508060800151858481518110611cbc57611cbc61445b565b60209081029190910101525050600101611b2b565b5050909192939495565b611ce3613484565b60cd80546001600160a01b0319166001600160a01b0392909216919091179055565b611d0d613484565b6112b46000613bf8565b6001600160a01b038116600090815260cc602090815260408083205460d29092528220549091611d4782846144ef565b929491935050565b611d57613484565b6112b4613c4a565b611d67613882565b611d6f613b55565b6001600160a01b038416600090815260ca602052604090205460ff16611dd75760405162461bcd60e51b815260206004820152601a60248201527f436f6c6c656374696f6e206e6f742077686974656c69737465640000000000006044820152606401610ce6565b60008211611e205760405162461bcd60e51b815260206004820152601660248201527504461696c792072617465206d757374206265203e20360541b6044820152606401610ce6565b6007811015611e695760405162461bcd60e51b8152602060048201526015602482015274135a5b880dc819185e5cc818dbdb5b5a5d1b595b9d605a1b6044820152606401610ce6565b6001600160a01b038416600090815260d06020908152604080832086845290915290206003015460ff1615611ee05760405162461bcd60e51b815260206004820152601760248201527f416c7265616479206c697374656420666f722072656e740000000000000000006044820152606401610ce6565b6001600160a01b03848116600090815260c9602090815260408083208784529091529020541615611f455760405162461bcd60e51b815260206004820152600f60248201526e4c697374656420666f722073616c6560881b6044820152606401610ce6565b6040516331a9108f60e11b815260048101849052849033906001600160a01b03831690636352211e90602401602060405180830381865afa158015611f8e573d6000803e3d6000fd5b505050506040513d601f19601f82011682018060405250810190611fb2919061452e565b6001600160a01b031614611fd85760405162461bcd60e51b8152600401610ce69061454b565b60405163e985e9c560e01b81523360048201523060248201526001600160a01b0382169063e985e9c590604401602060405180830381865afa158015612022573d6000803e3d6000fd5b505050506040513d601f19601f820116820180604052508101906120469190614471565b806120c2575060405163020604bf60e21b81526004810185905230906001600160a01b0383169063081812fc90602401602060405180830381865afa158015612093573d6000803e3d6000fd5b505050506040513d601f19601f820116820180604052508101906120b7919061452e565b6001600160a01b0316145b6120fd5760405162461bcd60e51b815260206004820152600c60248201526b139bdd08185c1c1c9bdd995960a21b6044820152606401610ce6565b60d5546040516393b57f9960e01b81523360048201526001600160a01b03909116906393b57f9990602401602060405180830381865afa158015612145573d6000803e3d6000fd5b505050506040513d601f19601f820116820180604052508101906121699190614471565b6121b55760405162461bcd60e51b815260206004820152601a60248201527f4f776e6572206e65656473207374616b6520706f736974696f6e0000000000006044820152606401610ce6565b6040518060800160405280336001600160a01b031681526020018481526020016121de84613b9b565b6121e890426144ef565b8152600160209182018190526001600160a01b03888116600081815260d0855260408082208b83528652808220875181546001600160a01b03199081169187169190911782558888015182880155888301516002808401919091556060909901516003909201805460ff191692151592909217909155815180830183528481528088018d815260d68054988901815580865291517fe767803f8ecf1dee6bb0345811f7312cda556058b19db6389ad9ae3568643ddd98909a0297880180549093169990961698909817905592517fe767803f8ecf1dee6bb0345811f7312cda556058b19db6389ad9ae3568643dde90940193909355935493825260d78352808220888352909252205533600090815260d26020526040812080549161230c83614502565b919050555061231a33613a5a565b6040805184815260208101849052339186916001600160a01b038916917f5aa7c96a3ef257d76deeaf0f70ecb48af32ffde0f710dddd0d06624bdc80891e91015b60405180910390a45061236d60018055565b50505050565b61237b613882565b612383613b55565b6001600160a01b038216600090815260d0602090815260408083208484529091529020600381015460ff166123e75760405162461bcd60e51b815260206004820152600a602482015269139bdd081b1a5cdd195960b21b6044820152606401610ce6565b80546001600160a01b031633146124105760405162461bcd60e51b8152600401610ce69061454b565b6001600160a01b03808416600090815260d160209081526040808320868452909152902080549091161580612449575080600201544210155b6124855760405162461bcd60e51b815260206004820152600d60248201526c1058dd1a5d99481c995b9d185b609a1b6044820152606401610ce6565b80546001600160a01b03161561251e5761249f84846134de565b5080546001600160a01b0316600090815260d8602052604081208054916124c58361442e565b90915550506001600160a01b038416600090815260d160209081526040808320868452909152812080546001600160a01b03191681556001810182905560028101829055600381018290556004015561251e8484613709565b61252884846138e1565b6001600160a01b038416600090815260d060209081526040808320868452825280832080546001600160a01b03191681556001810184905560028101849055600301805460ff1916905533835260d290915281208054916125888361442e565b919050555061259633613a5a565b604051339084906001600160a01b038716907f4d0929ac6840b4a8a4ac55fa87afeb39f6990da62a9b16e2d43121c206930dc090600090a45050610e3c60018055565b6125e1613484565b6001600160a01b038216600081815260ca6020908152604091829020805460ff191685151590811790915591519182527f39921e5677c943b0b7f6c29ab86b823c5daa404cb1a0a7e470670595761803c7910160405180910390a25050565b612648613484565b60d580546001600160a01b0319166001600160a01b0392909216919091179055565b612672613882565b61267a613b55565b6001600160a01b03808316600090815260c9602090815260408083208584529091529020805490911633146126de5760405162461bcd60e51b815260206004820152600a6024820152692737ba1039b2b63632b960b11b6044820152606401610ce6565b60006126ed8260030154613b9b565b90508082600401546126ff91906144ef565b4210156127425760405162461bcd60e51b815260206004820152601160248201527010dbdb5b5a5d1b595b9d081c195c9a5bd9607a1b6044820152606401610ce6565b61274c8484613c87565b6001600160a01b038416600090815260c960209081526040808320868452825280832080546001600160a01b031916815560018101849055600281018490556003810184905560040183905533835260cc90915281208054916127ae8361442e565b91905055506127bc33613a5a565b604051339084906001600160a01b038716907f0c8fde439b4e72d175ffeb3c5f3c15c6f70f473413f4c2d68f8971c0d629b60d90600090a45050610e3c60018055565b612807613484565b60d955565b612814613882565b61281c613b55565b6001600160a01b038416600090815260ca602052604090205460ff166128845760405162461bcd60e51b815260206004820152601a60248201527f436f6c6c656374696f6e206e6f742077686974656c69737465640000000000006044820152606401610ce6565b600082116128c85760405162461bcd60e51b815260206004820152601160248201527005072696365206d757374206265203e203607c1b6044820152606401610ce6565b6001600160a01b03848116600090815260c960209081526040808320878452909152902054161561292c5760405162461bcd60e51b815260206004820152600e60248201526d105b1c9958591e481b1a5cdd195960921b6044820152606401610ce6565b60078110156129755760405162461bcd60e51b8152602060048201526015602482015274135a5b880dc819185e5cc818dbdb5b5a5d1b595b9d605a1b6044820152606401610ce6565b6001600160a01b038416600090815260d06020908152604080832086845290915290206003015460ff16156129de5760405162461bcd60e51b815260206004820152600f60248201526e131a5cdd195908199bdc881c995b9d608a1b6044820152606401610ce6565b6040516331a9108f60e11b815260048101849052849033906001600160a01b03831690636352211e90602401602060405180830381865afa158015612a27573d6000803e3d6000fd5b505050506040513d601f19601f82011682018060405250810190612a4b919061452e565b6001600160a01b031614612a715760405162461bcd60e51b8152600401610ce69061454b565b60405163e985e9c560e01b81523360048201523060248201526001600160a01b0382169063e985e9c590604401602060405180830381865afa158015612abb573d6000803e3d6000fd5b505050506040513d601f19601f82011682018060405250810190612adf9190614471565b80612b5b575060405163020604bf60e21b81526004810185905230906001600160a01b0383169063081812fc90602401602060405180830381865afa158015612b2c573d6000803e3d6000fd5b505050506040513d601f19601f82011682018060405250810190612b50919061452e565b6001600160a01b0316145b612b965760405162461bcd60e51b815260206004820152600c60248201526b139bdd08185c1c1c9bdd995960a21b6044820152606401610ce6565b6040805160a081018252338152602080820186815260008385018181526060850188815242608087019081526001600160a01b038d811680865260c988528986208e87528852898620985189546001600160a01b0319908116918416919091178a5596516001808b019190915594516002808b0191909155935160038a01559151600490980197909755875180890189528181528087018d815260ce8054958601815580875291517fd36cd1c74ef8d7326d8021b776c18fb5a5724b7f7bc93c2f42e43e10ef27d12a959094029485018054909716939098169290921790945594517fd36cd1c74ef8d7326d8021b776c18fb5a5724b7f7bc93c2f42e43e10ef27d12b90910155925490835260cf82528383208884529091529190205533600090815260cc60205260408120805491612cce83614502565b9190505550612cdc33613a5a565b336001600160a01b031684866001600160a01b03167f8b06cda60618abf2b2d07227f9dd63ec6349ca3269ce0eb18d49122a48362ad88660405161235b91815260200190565b600054610100900460ff1615808015612d425750600054600160ff909116105b80612d5c5750303b158015612d5c575060005460ff166001145b612dbf5760405162461bcd60e51b815260206004820152602e60248201527f496e697469616c697a61626c653a20636f6e747261637420697320616c72656160448201526d191e481a5b9a5d1a585b1a5e995960921b6064820152608401610ce6565b6000805460ff191660011790558015612de2576000805461ff0019166101001790555b612dea613e00565b612df2613e2f565b612dfa613e5e565b60cb80546001600160a01b0319166001600160a01b0384161790558015610e3c576000805461ff0019169055604051600181527f7f26b83ff96e1f2b6a682f133852f6798a09c465da95921460cefb38474024989060200160405180910390a15050565b612e66613882565b612e6e613b55565b6001600160a01b03808316600090815260c960209081526040808320858452825291829020825160a0810184528154909416808552600182015492850192909252600281015492840192909252600382015460608401526004909101546080830152612f095760405162461bcd60e51b815260206004820152600a602482015269139bdd081b1a5cdd195960b21b6044820152606401610ce6565b8060200151341015612f545760405162461bcd60e51b8152602060048201526014602482015273125b9cdd59999a58da595b9d081c185e5b595b9d60621b6044820152606401610ce6565b612f5e8383613c87565b6001600160a01b03808416600090815260c960209081526040808320868452825280832080546001600160a01b03191681556001810184905560028101849055600381018490556004018390558451909316825260cc9052908120805491612fc58361442e565b90915550508051612fd590613a5a565b8051604051632142170760e11b81526001600160a01b038516916342842e0e9161300691903390879060040161456e565b600060405180830381600087803b15801561302057600080fd5b505af1158015613034573d6000803e3d6000fd5b5050505060006127106101f4836020015161304f91906144d8565b6130599190614592565b9050600081836020015161306d919061451b565b83516040519192506001600160a01b03169082156108fc029083906000818181858888f193505050501580156130a7573d6000803e3d6000fd5b5060cb546040516001600160a01b039091169083156108fc029084906000818181858888f193505050501580156130e2573d6000803e3d6000fd5b50826020015134111561312e57602083015133906108fc90613104903461451b565b6040518115909202916000818181858888f1935050505015801561312c573d6000803e3d6000fd5b505b8251602080850151604080516001600160a01b0394851681529283019190915233928792908916917fda87ba82c20701b6408a3d08484f0e5ece08f4d8400b15716a197e6e0c23c261910160405180910390a4505050610e3c60018055565b60d38181548110610e5057600080fd5b6131a5613484565b6001600160a01b0381166131ea5760405162461bcd60e51b815260206004820152600c60248201526b5a65726f206164647265737360a01b6044820152606401610ce6565b60cb80546001600160a01b0319166001600160a01b0392909216919091179055565b613214613484565b6001600160a01b0381166132795760405162461bcd60e51b815260206004820152602660248201527f4f776e61626c653a206e6577206f776e657220697320746865207a65726f206160448201526564647265737360d01b6064820152608401610ce6565b61328281613bf8565b50565b61328d613882565b6000805b60d354811080156132a157508282105b1561347957600060d382815481106132bb576132bb61445b565b60009182526020808320604080518082018252600290940290910180546001600160a01b0390811680865260019092015485850190815291865260d1845282862091518652925283208054929450929182911661332d5761332484600001518560200151613709565b50505050613291565b8260020154421061333f575060019050805b6000613353856000015186602001516134de565b905080156133645760019250600291505b82156134545783546001600160a01b0316600081815260d86020526040812080549161338f8361442e565b909155505085516001600160a01b0316600090815260d160209081526040808320828a01805185529252822080546001600160a01b031916815560018101839055600281018390556003810183905560040191909155865190516133f39190613709565b806001600160a01b0316866020015187600001516001600160a01b03167f0c410837861a3377819fdb70b8bbc306c24d4ebd4acc39e362031c300aabd08f8660405161344191815260200190565b60405180910390a4505050505050613291565b8561345e81614502565b965050868061346c90614502565b9750505050505050613291565b505061328260018055565b6097546001600160a01b031633146112b45760405162461bcd60e51b815260206004820181905260248201527f4f776e61626c653a2063616c6c6572206973206e6f7420746865206f776e65726044820152606401610ce6565b6001600160a01b03808316600090815260d160209081526040808320858452909152812080549192909116613517576000915050613703565b6001600160a01b038416600090815260d06020908152604080832086845290915281206002830154909190421161354e5742613554565b82600201545b90508260040154811161356d5760009350505050613703565b60006135828460040154836118a2919061451b565b905080600003613599576000945050505050613703565b60008460030154826135ab91906144d8565b60d554865460405163055f575160e41b81526001600160a01b0391821660048201529293506000929116906355f575109060240160c060405180830381865afa1580156135fc573d6000803e3d6000fd5b505050506040513d601f19601f82011682018060405250810190613620919061448e565b50505050509050818110156136865760008660030154826136419190614592565b9050801561367657600387015461365890826144d8565b87548754919450613676916001600160a01b03918216911685613e8d565b6001975050505050505050613703565b855485546136a1916001600160a01b03908116911684613e8d565b6004860184905584548654604080516001600160a01b03928316815260208101869052928216928b928d16917f6a3fab4807a40cf5bad2aa60fee8290cdb3d44d9333cc0d8ede50de282aa8945910160405180910390a4600096505050505050505b92915050565b6001600160a01b038216600090815260d4602090815260408083208484529091528120549081900361373a57505050565b600061374760018361451b565b60d35490915060009061375c9060019061451b565b905080821461381d57600060d3828154811061377a5761377a61445b565b60009182526020918290206040805180820190915260029092020180546001600160a01b03168252600101549181019190915260d380549192508291859081106137c6576137c661445b565b6000918252602080832084516002939093020180546001600160a01b0319166001600160a01b0393841617815593810151600190940193909355835116815260d48252604080822093830151825292909152208390555b60d380548061382e5761382e6145b4565b6000828152602080822060026000199094019384020180546001600160a01b0319168155600101829055919092556001600160a01b0396909616815260d48652604080822095825294909552505050812055565b6002600154036138d45760405162461bcd60e51b815260206004820152601f60248201527f5265656e7472616e637947756172643a207265656e7472616e742063616c6c006044820152606401610ce6565b6002600155565b60018055565b6001600160a01b038216600090815260d7602090815260408083208484529091528120549081900361391257505050565b600061391f60018361451b565b60d6549091506000906139349060019061451b565b90508082146139f557600060d682815481106139525761395261445b565b60009182526020918290206040805180820190915260029092020180546001600160a01b03168252600101549181019190915260d6805491925082918590811061399e5761399e61445b565b6000918252602080832084516002939093020180546001600160a01b0319166001600160a01b0393841617815593810151600190940193909355835116815260d78252604080822093830151825292909152208390555b60d6805480613a0657613a066145b4565b6000828152602080822060026000199094019384020180546001600160a01b0319168155600101829055919092556001600160a01b0396909616815260d78652604080822095825294909552505050812055565b60cd546001600160a01b031615613282576001600160a01b038116600090815260d2602090815260408083205460cc909252822054613a9991906144ef565b60cd54604051635799f9a560e01b81526001600160a01b03858116600483015260248201849052929350911690635799f9a590604401600060405180830381600087803b158015613ae957600080fd5b505af1925050508015613afa575060015b15610e3c575050565b613b0b61408e565b6065805460ff191690557f5db9ee0a495bf2e6ff9c91a7834c1ba4fdd244a5e8aa4e537bd38aeae4b073aa335b6040516001600160a01b03909116815260200160405180910390a1565b60655460ff16156112b45760405162461bcd60e51b815260206004820152601060248201526f14185d5cd8589b194e881c185d5cd95960821b6044820152606401610ce6565b60d554600090600160a01b900460ff16613bc157613bbc82620151806144d8565b613703565b61370382603c6144d8565b60d554600090600160a01b900460ff16613bed57613bbc6201518083614592565b613703603c83614592565b609780546001600160a01b038381166001600160a01b0319831681179093556040519116919082907f8be0079c531659141344cd1fd0a4f28419497f9722a3daafe3b4186f6b6457e090600090a35050565b613c52613b55565b6065805460ff191660011790557f62e78cea01bee320cd4e420270b5ea74000d11b0c9f74754ebdbfc544b05a258613b383390565b6001600160a01b038216600090815260cf6020908152604080832084845290915281205490819003613cb857505050565b6000613cc560018361451b565b60ce54909150600090613cda9060019061451b565b9050808214613d9b57600060ce8281548110613cf857613cf861445b565b60009182526020918290206040805180820190915260029092020180546001600160a01b03168252600101549181019190915260ce8054919250829185908110613d4457613d4461445b565b6000918252602080832084516002939093020180546001600160a01b0319166001600160a01b0393841617815593810151600190940193909355835116815260cf8252604080822093830151825292909152208390555b60ce805480613dac57613dac6145b4565b6000828152602080822060026000199094019384020180546001600160a01b0319168155600101829055919092556001600160a01b0396909616815260cf8652604080822095825294909552505050812055565b600054610100900460ff16613e275760405162461bcd60e51b8152600401610ce6906145ca565b6112b46140d7565b600054610100900460ff16613e565760405162461bcd60e51b8152600401610ce6906145ca565b6112b46140fe565b600054610100900460ff16613e855760405162461bcd60e51b8152600401610ce6906145ca565b6112b4614131565b80600003613e9a57505050565b6000612710613eab6101f4846144d8565b613eb59190614592565b90506000613ec3828461451b565b60d5546040516383b002af60e01b81529192506001600160a01b0316906383b002af90613ef89088908890869060040161456e565b600060405180830381600087803b158015613f1257600080fd5b505af1158015613f26573d6000803e3d6000fd5b50505050600082118015613fa5575060d55460cb546040516393b57f9960e01b81526001600160a01b0391821660048201529116906393b57f9990602401602060405180830381865afa158015613f81573d6000803e3d6000fd5b505050506040513d601f19601f82011682018060405250810190613fa59190614471565b1561401a5760d55460cb546040516383b002af60e01b81526001600160a01b03928316926383b002af92613fe3928a9290911690879060040161456e565b600060405180830381600087803b158015613ffd57600080fd5b505af1158015614011573d6000803e3d6000fd5b50505050614087565b81156140875760d5546040516383b002af60e01b81526001600160a01b03909116906383b002af906140549088908890879060040161456e565b600060405180830381600087803b15801561406e57600080fd5b505af1158015614082573d6000803e3d6000fd5b505050505b5050505050565b60655460ff166112b45760405162461bcd60e51b815260206004820152601460248201527314185d5cd8589b194e881b9bdd081c185d5cd95960621b6044820152606401610ce6565b600054610100900460ff166138db5760405162461bcd60e51b8152600401610ce6906145ca565b600054610100900460ff166141255760405162461bcd60e51b8152600401610ce6906145ca565b6065805460ff19169055565b600054610100900460ff166141585760405162461bcd60e51b8152600401610ce6906145ca565b6112b433613bf8565b6001600160a01b038116811461328257600080fd5b6000806040838503121561418957600080fd5b823561419481614161565b946020939093013593505050565b6000602082840312156141b457600080fd5b5035919050565b60008151808452602080850194506020840160005b838110156141f55781516001600160a01b0316875295820195908201906001016141d0565b509495945050505050565b60008151808452602080850194506020840160005b838110156141f557815187529582019590820190600101614215565b60a08152600061424460a08301886141bb565b82810360208401526142568188614200565b9050828103604084015261426a81876141bb565b9050828103606084015261427e8186614200565b905082810360808401526142928185614200565b98975050505050505050565b801515811461328257600080fd5b6000602082840312156142be57600080fd5b81356142c98161429e565b9392505050565b6000602082840312156142e257600080fd5b81356142c981614161565b60008060006060848603121561430257600080fd5b833561430d81614161565b95602085013595506040909401359392505050565b60c08152600061433560c08301896141bb565b82810360208401526143478189614200565b9050828103604084015261435b81886141bb565b9050828103606084015261436f8187614200565b905082810360808401526143838186614200565b905082810360a08401526143978185614200565b9998505050505050505050565b600080600080608085870312156143ba57600080fd5b84356143c581614161565b966020860135965060408601359560600135945092505050565b600080604083850312156143f257600080fd5b82356143fd81614161565b9150602083013561440d8161429e565b809150509250929050565b634e487b7160e01b600052601160045260246000fd5b60008161443d5761443d614418565b506000190190565b634e487b7160e01b600052604160045260246000fd5b634e487b7160e01b600052603260045260246000fd5b60006020828403121561448357600080fd5b81516142c98161429e565b60008060008060008060c087890312156144a757600080fd5b865195506020870151945060408701519350606087015192506080870151915060a087015190509295509295509295565b808202811582820484141761370357613703614418565b8082018082111561370357613703614418565b60006001820161451457614514614418565b5060010190565b8181038181111561370357613703614418565b60006020828403121561454057600080fd5b81516142c981614161565b6020808252600990820152682737ba1037bbb732b960b91b604082015260600190565b6001600160a01b039384168152919092166020820152604081019190915260600190565b6000826145af57634e487b7160e01b600052601260045260246000fd5b500490565b634e487b7160e01b600052603160045260246000fd5b6020808252602b908201527f496e697469616c697a61626c653a20636f6e7472616374206973206e6f74206960408201526a6e697469616c697a696e6760a81b60608201526080019056fea264697066735822122020123839780ebf28fc5920b5d136a5f1717a446a31838a50cf15ab61f9b7c38364736f6c63430008180033",
  "linkReferences": {},
  "deployedLinkReferences": {}
}