{
  "_format": "hh-sol-artifact-1",
  "contractName": "ToadzStake",
  "sourceName": "contracts/ToadzStakeV5.sol",
  "abi": [
    {
      "inputs": [],
      "stateMutability": "nonpayable",
      "type": "constructor"
    },
    {
      "inputs": [
        {
          "internalType": "uint256",
          "name": "x",
          "type": "uint256"
        },
        {
          "internalType": "uint256",
          "name": "y",
          "type": "uint256"
        }
      ],
      "name": "PRBMath_MulDiv18_Overflow",
      "type": "error"
    },
    {
      "inputs": [
        {
          "internalType": "UD60x18",
          "name": "x",
          "type": "uint256"
        }
      ],
      "name": "PRBMath_UD60x18_Exp2_InputTooBig",
      "type": "error"
    },
    {
      "inputs": [
        {
          "internalType": "UD60x18",
          "name": "x",
          "type": "uint256"
        }
      ],
      "name": "PRBMath_UD60x18_Log_InputTooSmall",
      "type": "error"
    },
    {
      "anonymous": false,
      "inputs": [
        {
          "indexed": true,
          "internalType": "address",
          "name": "user",
          "type": "address"
        },
        {
          "indexed": false,
          "internalType": "uint256",
          "name": "wflrAdded",
          "type": "uint256"
        },
        {
          "indexed": false,
          "internalType": "uint256",
          "name": "pondAdded",
          "type": "uint256"
        },
        {
          "indexed": false,
          "internalType": "uint256",
          "name": "newTotal",
          "type": "uint256"
        },
        {
          "indexed": false,
          "internalType": "uint256",
          "name": "lockMultiplier",
          "type": "uint256"
        }
      ],
      "name": "AddedToStake",
      "type": "event"
    },
    {
      "anonymous": false,
      "inputs": [
        {
          "indexed": true,
          "internalType": "address",
          "name": "user",
          "type": "address"
        },
        {
          "indexed": false,
          "internalType": "uint256",
          "name": "wflrAmount",
          "type": "uint256"
        },
        {
          "indexed": false,
          "internalType": "uint256",
          "name": "pondAmount",
          "type": "uint256"
        },
        {
          "indexed": false,
          "internalType": "uint256",
          "name": "lockDays",
          "type": "uint256"
        },
        {
          "indexed": false,
          "internalType": "uint256",
          "name": "multiplier",
          "type": "uint256"
        }
      ],
      "name": "Deposited",
      "type": "event"
    },
    {
      "anonymous": false,
      "inputs": [
        {
          "indexed": true,
          "internalType": "address",
          "name": "user",
          "type": "address"
        },
        {
          "indexed": false,
          "internalType": "uint256",
          "name": "wflrReturned",
          "type": "uint256"
        },
        {
          "indexed": false,
          "internalType": "uint256",
          "name": "pondReturned",
          "type": "uint256"
        }
      ],
      "name": "Exited",
      "type": "event"
    },
    {
      "anonymous": false,
      "inputs": [
        {
          "indexed": true,
          "internalType": "uint24",
          "name": "epochId",
          "type": "uint24"
        },
        {
          "indexed": false,
          "internalType": "uint256",
          "name": "amount",
          "type": "uint256"
        }
      ],
      "name": "FTSORewardsClaimed",
      "type": "event"
    },
    {
      "anonymous": false,
      "inputs": [
        {
          "indexed": false,
          "internalType": "uint8",
          "name": "version",
          "type": "uint8"
        }
      ],
      "name": "Initialized",
      "type": "event"
    },
    {
      "anonymous": false,
      "inputs": [
        {
          "indexed": true,
          "internalType": "address",
          "name": "from",
          "type": "address"
        },
        {
          "indexed": true,
          "internalType": "address",
          "name": "to",
          "type": "address"
        },
        {
          "indexed": false,
          "internalType": "uint256",
          "name": "amount",
          "type": "uint256"
        }
      ],
      "name": "LPTransferred",
      "type": "event"
    },
    {
      "anonymous": false,
      "inputs": [
        {
          "indexed": false,
          "internalType": "uint256",
          "name": "amount",
          "type": "uint256"
        }
      ],
      "name": "NativeFLRWrapped",
      "type": "event"
    },
    {
      "anonymous": false,
      "inputs": [
        {
          "indexed": true,
          "internalType": "address",
          "name": "previousOwner",
          "type": "address"
        },
        {
          "indexed": true,
          "internalType": "address",
          "name": "newOwner",
          "type": "address"
        }
      ],
      "name": "OwnershipTransferred",
      "type": "event"
    },
    {
      "anonymous": false,
      "inputs": [
        {
          "indexed": false,
          "internalType": "uint256",
          "name": "amount",
          "type": "uint256"
        }
      ],
      "name": "PGSReceived",
      "type": "event"
    },
    {
      "anonymous": false,
      "inputs": [
        {
          "indexed": false,
          "internalType": "address",
          "name": "account",
          "type": "address"
        }
      ],
      "name": "Paused",
      "type": "event"
    },
    {
      "anonymous": false,
      "inputs": [
        {
          "indexed": true,
          "internalType": "address",
          "name": "referrer",
          "type": "address"
        },
        {
          "indexed": true,
          "internalType": "address",
          "name": "referee",
          "type": "address"
        },
        {
          "indexed": false,
          "internalType": "uint256",
          "name": "amount",
          "type": "uint256"
        }
      ],
      "name": "ReferralPaid",
      "type": "event"
    },
    {
      "anonymous": false,
      "inputs": [
        {
          "indexed": true,
          "internalType": "address",
          "name": "user",
          "type": "address"
        },
        {
          "indexed": true,
          "internalType": "address",
          "name": "referrer",
          "type": "address"
        }
      ],
      "name": "ReferrerSet",
      "type": "event"
    },
    {
      "anonymous": false,
      "inputs": [
        {
          "indexed": true,
          "internalType": "address",
          "name": "user",
          "type": "address"
        },
        {
          "indexed": false,
          "internalType": "uint256",
          "name": "newWflrStaked",
          "type": "uint256"
        },
        {
          "indexed": false,
          "internalType": "uint256",
          "name": "pondBuyback",
          "type": "uint256"
        },
        {
          "indexed": false,
          "internalType": "uint256",
          "name": "newLockDays",
          "type": "uint256"
        }
      ],
      "name": "Restaked",
      "type": "event"
    },
    {
      "anonymous": false,
      "inputs": [
        {
          "indexed": false,
          "internalType": "uint256",
          "name": "amount",
          "type": "uint256"
        },
        {
          "indexed": false,
          "internalType": "uint256",
          "name": "newRewardIndex",
          "type": "uint256"
        }
      ],
      "name": "RewardsDistributed",
      "type": "event"
    },
    {
      "anonymous": false,
      "inputs": [
        {
          "indexed": false,
          "internalType": "uint256",
          "name": "amount",
          "type": "uint256"
        },
        {
          "indexed": false,
          "internalType": "uint256",
          "name": "newSeedBalance",
          "type": "uint256"
        }
      ],
      "name": "SeedDeposited",
      "type": "event"
    },
    {
      "anonymous": false,
      "inputs": [
        {
          "indexed": false,
          "internalType": "uint256",
          "name": "amount",
          "type": "uint256"
        },
        {
          "indexed": false,
          "internalType": "uint256",
          "name": "newSeedBalance",
          "type": "uint256"
        }
      ],
      "name": "SeedWithdrawn",
      "type": "event"
    },
    {
      "anonymous": false,
      "inputs": [
        {
          "indexed": false,
          "internalType": "address",
          "name": "account",
          "type": "address"
        }
      ],
      "name": "Unpaused",
      "type": "event"
    },
    {
      "inputs": [],
      "name": "LOCK_180_DAYS",
      "outputs": [
        {
          "internalType": "uint256",
          "name": "",
          "type": "uint256"
        }
      ],
      "stateMutability": "view",
      "type": "function"
    },
    {
      "inputs": [],
      "name": "LOCK_365_DAYS",
      "outputs": [
        {
          "internalType": "uint256",
          "name": "",
          "type": "uint256"
        }
      ],
      "stateMutability": "view",
      "type": "function"
    },
    {
      "inputs": [],
      "name": "LOCK_90_DAYS",
      "outputs": [
        {
          "internalType": "uint256",
          "name": "",
          "type": "uint256"
        }
      ],
      "stateMutability": "view",
      "type": "function"
    },
    {
      "inputs": [],
      "name": "MPOND_PER_WFLR",
      "outputs": [
        {
          "internalType": "uint256",
          "name": "",
          "type": "uint256"
        }
      ],
      "stateMutability": "view",
      "type": "function"
    },
    {
      "inputs": [],
      "name": "MULT_180",
      "outputs": [
        {
          "internalType": "uint256",
          "name": "",
          "type": "uint256"
        }
      ],
      "stateMutability": "view",
      "type": "function"
    },
    {
      "inputs": [],
      "name": "MULT_365",
      "outputs": [
        {
          "internalType": "uint256",
          "name": "",
          "type": "uint256"
        }
      ],
      "stateMutability": "view",
      "type": "function"
    },
    {
      "inputs": [],
      "name": "MULT_90",
      "outputs": [
        {
          "internalType": "uint256",
          "name": "",
          "type": "uint256"
        }
      ],
      "stateMutability": "view",
      "type": "function"
    },
    {
      "inputs": [],
      "name": "PRECISION",
      "outputs": [
        {
          "internalType": "uint256",
          "name": "",
          "type": "uint256"
        }
      ],
      "stateMutability": "view",
      "type": "function"
    },
    {
      "inputs": [],
      "name": "REFERRAL_PERCENT",
      "outputs": [
        {
          "internalType": "uint256",
          "name": "",
          "type": "uint256"
        }
      ],
      "stateMutability": "view",
      "type": "function"
    },
    {
      "inputs": [],
      "name": "RESTAKE_BUYBACK_PERCENT",
      "outputs": [
        {
          "internalType": "uint256",
          "name": "",
          "type": "uint256"
        }
      ],
      "stateMutability": "view",
      "type": "function"
    },
    {
      "inputs": [
        {
          "internalType": "uint256",
          "name": "wflrAmount",
          "type": "uint256"
        },
        {
          "internalType": "uint8",
          "name": "lockTier",
          "type": "uint8"
        }
      ],
      "name": "addToStake",
      "outputs": [],
      "stateMutability": "nonpayable",
      "type": "function"
    },
    {
      "inputs": [
        {
          "internalType": "address",
          "name": "",
          "type": "address"
        }
      ],
      "name": "authorizedSender",
      "outputs": [
        {
          "internalType": "bool",
          "name": "",
          "type": "bool"
        }
      ],
      "stateMutability": "view",
      "type": "function"
    },
    {
      "inputs": [],
      "name": "boostMarket",
      "outputs": [
        {
          "internalType": "address",
          "name": "",
          "type": "address"
        }
      ],
      "stateMutability": "view",
      "type": "function"
    },
    {
      "inputs": [],
      "name": "boostRegistry",
      "outputs": [
        {
          "internalType": "address",
          "name": "",
          "type": "address"
        }
      ],
      "stateMutability": "view",
      "type": "function"
    },
    {
      "inputs": [],
      "name": "boostsEnabled",
      "outputs": [
        {
          "internalType": "bool",
          "name": "",
          "type": "bool"
        }
      ],
      "stateMutability": "view",
      "type": "function"
    },
    {
      "inputs": [],
      "name": "buffer",
      "outputs": [
        {
          "internalType": "address",
          "name": "",
          "type": "address"
        }
      ],
      "stateMutability": "view",
      "type": "function"
    },
    {
      "inputs": [
        {
          "internalType": "uint24",
          "name": "_rewardEpochId",
          "type": "uint24"
        }
      ],
      "name": "claimFtsoRewards",
      "outputs": [],
      "stateMutability": "nonpayable",
      "type": "function"
    },
    {
      "inputs": [
        {
          "internalType": "uint24",
          "name": "_rewardEpochId",
          "type": "uint24"
        },
        {
          "components": [
            {
              "internalType": "bytes32[]",
              "name": "merkleProof",
              "type": "bytes32[]"
            },
            {
              "components": [
                {
                  "internalType": "uint24",
                  "name": "rewardEpochId",
                  "type": "uint24"
                },
                {
                  "internalType": "bytes20",
                  "name": "beneficiary",
                  "type": "bytes20"
                },
                {
                  "internalType": "uint120",
                  "name": "amount",
                  "type": "uint120"
                },
                {
                  "internalType": "enum IRewardsV2.RewardClaimType",
                  "name": "claimType",
                  "type": "uint8"
                }
              ],
              "internalType": "struct IRewardsV2.RewardClaim",
              "name": "body",
              "type": "tuple"
            }
          ],
          "internalType": "struct IRewardsV2.RewardClaimWithProof[]",
          "name": "_claims",
          "type": "tuple[]"
        }
      ],
      "name": "claimFtsoRewardsWithProof",
      "outputs": [],
      "stateMutability": "nonpayable",
      "type": "function"
    },
    {
      "inputs": [
        {
          "internalType": "uint256",
          "name": "_bips",
          "type": "uint256"
        }
      ],
      "name": "delegateToFtso",
      "outputs": [],
      "stateMutability": "nonpayable",
      "type": "function"
    },
    {
      "inputs": [
        {
          "internalType": "uint256",
          "name": "wflrAmount",
          "type": "uint256"
        },
        {
          "internalType": "uint8",
          "name": "lockTier",
          "type": "uint8"
        },
        {
          "internalType": "address",
          "name": "_referrer",
          "type": "address"
        }
      ],
      "name": "deposit",
      "outputs": [],
      "stateMutability": "nonpayable",
      "type": "function"
    },
    {
      "inputs": [
        {
          "internalType": "address",
          "name": "user",
          "type": "address"
        },
        {
          "internalType": "uint256",
          "name": "wflrAmount",
          "type": "uint256"
        },
        {
          "internalType": "uint8",
          "name": "lockTier",
          "type": "uint8"
        },
        {
          "internalType": "address",
          "name": "_referrer",
          "type": "address"
        }
      ],
      "name": "depositFor",
      "outputs": [],
      "stateMutability": "nonpayable",
      "type": "function"
    },
    {
      "inputs": [
        {
          "internalType": "uint256",
          "name": "amount",
          "type": "uint256"
        }
      ],
      "name": "distributeRewards",
      "outputs": [],
      "stateMutability": "nonpayable",
      "type": "function"
    },
    {
      "inputs": [
        {
          "internalType": "address",
          "name": "user",
          "type": "address"
        },
        {
          "internalType": "uint256",
          "name": "wflrStaked",
          "type": "uint256"
        },
        {
          "internalType": "uint256",
          "name": "pondStaked",
          "type": "uint256"
        },
        {
          "internalType": "uint256",
          "name": "earnedWflr",
          "type": "uint256"
        },
        {
          "internalType": "uint256",
          "name": "lockExpiry",
          "type": "uint256"
        },
        {
          "internalType": "uint256",
          "name": "lockMultiplier",
          "type": "uint256"
        }
      ],
      "name": "emergencyPushPosition",
      "outputs": [],
      "stateMutability": "nonpayable",
      "type": "function"
    },
    {
      "inputs": [
        {
          "internalType": "address",
          "name": "user",
          "type": "address"
        },
        {
          "internalType": "uint256",
          "name": "amount",
          "type": "uint256"
        }
      ],
      "name": "emergencySetTotalDeposited",
      "outputs": [],
      "stateMutability": "nonpayable",
      "type": "function"
    },
    {
      "inputs": [
        {
          "internalType": "address",
          "name": "user",
          "type": "address"
        }
      ],
      "name": "emergencyUnlock",
      "outputs": [],
      "stateMutability": "nonpayable",
      "type": "function"
    },
    {
      "inputs": [
        {
          "internalType": "uint256",
          "name": "_amount",
          "type": "uint256"
        }
      ],
      "name": "emergencyUnwrap",
      "outputs": [],
      "stateMutability": "nonpayable",
      "type": "function"
    },
    {
      "inputs": [],
      "name": "emergencyWithdraw",
      "outputs": [],
      "stateMutability": "nonpayable",
      "type": "function"
    },
    {
      "inputs": [],
      "name": "emergencyWithdrawNative",
      "outputs": [],
      "stateMutability": "nonpayable",
      "type": "function"
    },
    {
      "inputs": [],
      "name": "exit",
      "outputs": [],
      "stateMutability": "nonpayable",
      "type": "function"
    },
    {
      "inputs": [],
      "name": "ftsoProvider",
      "outputs": [
        {
          "internalType": "address",
          "name": "",
          "type": "address"
        }
      ],
      "stateMutability": "view",
      "type": "function"
    },
    {
      "inputs": [
        {
          "internalType": "address",
          "name": "user",
          "type": "address"
        }
      ],
      "name": "getEffectiveShares",
      "outputs": [
        {
          "internalType": "uint256",
          "name": "",
          "type": "uint256"
        }
      ],
      "stateMutability": "view",
      "type": "function"
    },
    {
      "inputs": [
        {
          "internalType": "uint256",
          "name": "_rewardEpochId",
          "type": "uint256"
        }
      ],
      "name": "getEpochReward",
      "outputs": [
        {
          "internalType": "uint256",
          "name": "",
          "type": "uint256"
        }
      ],
      "stateMutability": "view",
      "type": "function"
    },
    {
      "inputs": [
        {
          "internalType": "address",
          "name": "user",
          "type": "address"
        }
      ],
      "name": "getPendingRewards",
      "outputs": [
        {
          "internalType": "uint256",
          "name": "",
          "type": "uint256"
        }
      ],
      "stateMutability": "view",
      "type": "function"
    },
    {
      "inputs": [
        {
          "internalType": "address",
          "name": "user",
          "type": "address"
        }
      ],
      "name": "getPercentGain",
      "outputs": [
        {
          "internalType": "uint256",
          "name": "",
          "type": "uint256"
        }
      ],
      "stateMutability": "view",
      "type": "function"
    },
    {
      "inputs": [
        {
          "internalType": "uint256",
          "name": "wflrAmount",
          "type": "uint256"
        }
      ],
      "name": "getPondRequired",
      "outputs": [
        {
          "internalType": "uint256",
          "name": "",
          "type": "uint256"
        }
      ],
      "stateMutability": "pure",
      "type": "function"
    },
    {
      "inputs": [
        {
          "internalType": "address",
          "name": "user",
          "type": "address"
        }
      ],
      "name": "getPositionValue",
      "outputs": [
        {
          "internalType": "uint256",
          "name": "total",
          "type": "uint256"
        },
        {
          "internalType": "uint256",
          "name": "principal",
          "type": "uint256"
        },
        {
          "internalType": "uint256",
          "name": "rewards",
          "type": "uint256"
        }
      ],
      "stateMutability": "view",
      "type": "function"
    },
    {
      "inputs": [],
      "name": "getTopStakerReturn",
      "outputs": [
        {
          "internalType": "uint256",
          "name": "",
          "type": "uint256"
        }
      ],
      "stateMutability": "view",
      "type": "function"
    },
    {
      "inputs": [],
      "name": "getTotalDelegated",
      "outputs": [
        {
          "internalType": "uint256",
          "name": "total",
          "type": "uint256"
        },
        {
          "internalType": "uint256",
          "name": "staked",
          "type": "uint256"
        },
        {
          "internalType": "uint256",
          "name": "seed",
          "type": "uint256"
        }
      ],
      "stateMutability": "view",
      "type": "function"
    },
    {
      "inputs": [],
      "name": "getUnclaimedEpochs",
      "outputs": [
        {
          "internalType": "uint256[]",
          "name": "",
          "type": "uint256[]"
        }
      ],
      "stateMutability": "view",
      "type": "function"
    },
    {
      "inputs": [
        {
          "internalType": "address",
          "name": "user",
          "type": "address"
        }
      ],
      "name": "getUserMultiplier",
      "outputs": [
        {
          "internalType": "uint256",
          "name": "",
          "type": "uint256"
        }
      ],
      "stateMutability": "view",
      "type": "function"
    },
    {
      "inputs": [
        {
          "internalType": "address",
          "name": "user",
          "type": "address"
        }
      ],
      "name": "getWeightedShares",
      "outputs": [
        {
          "internalType": "uint256",
          "name": "",
          "type": "uint256"
        }
      ],
      "stateMutability": "view",
      "type": "function"
    },
    {
      "inputs": [
        {
          "internalType": "address",
          "name": "user",
          "type": "address"
        }
      ],
      "name": "hasActivePosition",
      "outputs": [
        {
          "internalType": "bool",
          "name": "",
          "type": "bool"
        }
      ],
      "stateMutability": "view",
      "type": "function"
    },
    {
      "inputs": [
        {
          "internalType": "bool",
          "name": "_testNet",
          "type": "bool"
        },
        {
          "internalType": "address",
          "name": "_wflr",
          "type": "address"
        },
        {
          "internalType": "address",
          "name": "_ftsoAddress",
          "type": "address"
        },
        {
          "internalType": "address",
          "name": "_rewardsManagerAddress",
          "type": "address"
        }
      ],
      "name": "initialize",
      "outputs": [],
      "stateMutability": "nonpayable",
      "type": "function"
    },
    {
      "inputs": [],
      "name": "maxDeposit",
      "outputs": [
        {
          "internalType": "uint256",
          "name": "",
          "type": "uint256"
        }
      ],
      "stateMutability": "view",
      "type": "function"
    },
    {
      "inputs": [],
      "name": "minDeposit",
      "outputs": [
        {
          "internalType": "uint256",
          "name": "",
          "type": "uint256"
        }
      ],
      "stateMutability": "view",
      "type": "function"
    },
    {
      "inputs": [],
      "name": "owner",
      "outputs": [
        {
          "internalType": "address",
          "name": "",
          "type": "address"
        }
      ],
      "stateMutability": "view",
      "type": "function"
    },
    {
      "inputs": [],
      "name": "pause",
      "outputs": [],
      "stateMutability": "nonpayable",
      "type": "function"
    },
    {
      "inputs": [],
      "name": "paused",
      "outputs": [
        {
          "internalType": "bool",
          "name": "",
          "type": "bool"
        }
      ],
      "stateMutability": "view",
      "type": "function"
    },
    {
      "inputs": [],
      "name": "pond",
      "outputs": [
        {
          "internalType": "address",
          "name": "",
          "type": "address"
        }
      ],
      "stateMutability": "view",
      "type": "function"
    },
    {
      "inputs": [],
      "name": "poolCap",
      "outputs": [
        {
          "internalType": "uint256",
          "name": "",
          "type": "uint256"
        }
      ],
      "stateMutability": "view",
      "type": "function"
    },
    {
      "inputs": [
        {
          "internalType": "address",
          "name": "",
          "type": "address"
        }
      ],
      "name": "positions",
      "outputs": [
        {
          "internalType": "uint256",
          "name": "wflrStaked",
          "type": "uint256"
        },
        {
          "internalType": "uint256",
          "name": "pondStaked",
          "type": "uint256"
        },
        {
          "internalType": "uint256",
          "name": "earnedWflr",
          "type": "uint256"
        },
        {
          "internalType": "uint256",
          "name": "lockExpiry",
          "type": "uint256"
        },
        {
          "internalType": "uint256",
          "name": "lockMultiplier",
          "type": "uint256"
        },
        {
          "internalType": "uint256",
          "name": "rewardDebt",
          "type": "uint256"
        },
        {
          "internalType": "uint256",
          "name": "lastUpdateTime",
          "type": "uint256"
        }
      ],
      "stateMutability": "view",
      "type": "function"
    },
    {
      "inputs": [
        {
          "internalType": "uint256",
          "name": "amount",
          "type": "uint256"
        }
      ],
      "name": "receivePGS",
      "outputs": [],
      "stateMutability": "nonpayable",
      "type": "function"
    },
    {
      "inputs": [
        {
          "internalType": "uint256",
          "name": "_rewardEpochId",
          "type": "uint256"
        },
        {
          "internalType": "uint256",
          "name": "_amount",
          "type": "uint256"
        }
      ],
      "name": "recordEpochRewards",
      "outputs": [],
      "stateMutability": "nonpayable",
      "type": "function"
    },
    {
      "inputs": [
        {
          "internalType": "address",
          "name": "",
          "type": "address"
        }
      ],
      "name": "referrer",
      "outputs": [
        {
          "internalType": "address",
          "name": "",
          "type": "address"
        }
      ],
      "stateMutability": "view",
      "type": "function"
    },
    {
      "inputs": [],
      "name": "renounceOwnership",
      "outputs": [],
      "stateMutability": "nonpayable",
      "type": "function"
    },
    {
      "inputs": [
        {
          "internalType": "uint8",
          "name": "newLockTier",
          "type": "uint8"
        }
      ],
      "name": "restake",
      "outputs": [],
      "stateMutability": "nonpayable",
      "type": "function"
    },
    {
      "inputs": [
        {
          "internalType": "uint256",
          "name": "",
          "type": "uint256"
        }
      ],
      "name": "rewardForEpoch",
      "outputs": [
        {
          "internalType": "uint256",
          "name": "",
          "type": "uint256"
        }
      ],
      "stateMutability": "view",
      "type": "function"
    },
    {
      "inputs": [],
      "name": "rewardIndex",
      "outputs": [
        {
          "internalType": "uint256",
          "name": "",
          "type": "uint256"
        }
      ],
      "stateMutability": "view",
      "type": "function"
    },
    {
      "inputs": [],
      "name": "rewardsManagerAddress",
      "outputs": [
        {
          "internalType": "address",
          "name": "",
          "type": "address"
        }
      ],
      "stateMutability": "view",
      "type": "function"
    },
    {
      "inputs": [],
      "name": "seedBalance",
      "outputs": [
        {
          "internalType": "uint256",
          "name": "",
          "type": "uint256"
        }
      ],
      "stateMutability": "view",
      "type": "function"
    },
    {
      "inputs": [
        {
          "internalType": "uint256",
          "name": "amount",
          "type": "uint256"
        }
      ],
      "name": "seedDelegation",
      "outputs": [],
      "stateMutability": "nonpayable",
      "type": "function"
    },
    {
      "inputs": [
        {
          "internalType": "address",
          "name": "_address",
          "type": "address"
        },
        {
          "internalType": "bool",
          "name": "_value",
          "type": "bool"
        }
      ],
      "name": "setAuthorizedSender",
      "outputs": [],
      "stateMutability": "nonpayable",
      "type": "function"
    },
    {
      "inputs": [
        {
          "internalType": "address",
          "name": "_boostMarket",
          "type": "address"
        }
      ],
      "name": "setBoostMarket",
      "outputs": [],
      "stateMutability": "nonpayable",
      "type": "function"
    },
    {
      "inputs": [
        {
          "internalType": "address",
          "name": "_registry",
          "type": "address"
        }
      ],
      "name": "setBoostRegistry",
      "outputs": [],
      "stateMutability": "nonpayable",
      "type": "function"
    },
    {
      "inputs": [
        {
          "internalType": "bool",
          "name": "_enabled",
          "type": "bool"
        }
      ],
      "name": "setBoostsEnabled",
      "outputs": [],
      "stateMutability": "nonpayable",
      "type": "function"
    },
    {
      "inputs": [
        {
          "internalType": "address",
          "name": "_buffer",
          "type": "address"
        }
      ],
      "name": "setBuffer",
      "outputs": [],
      "stateMutability": "nonpayable",
      "type": "function"
    },
    {
      "inputs": [
        {
          "internalType": "address",
          "name": "_provider",
          "type": "address"
        }
      ],
      "name": "setFtsoProvider",
      "outputs": [],
      "stateMutability": "nonpayable",
      "type": "function"
    },
    {
      "inputs": [
        {
          "internalType": "uint256",
          "name": "_lock90",
          "type": "uint256"
        },
        {
          "internalType": "uint256",
          "name": "_lock180",
          "type": "uint256"
        },
        {
          "internalType": "uint256",
          "name": "_lock365",
          "type": "uint256"
        }
      ],
      "name": "setLockPeriods",
      "outputs": [],
      "stateMutability": "nonpayable",
      "type": "function"
    },
    {
      "inputs": [
        {
          "internalType": "uint256",
          "name": "amount",
          "type": "uint256"
        }
      ],
      "name": "setMPONDPERWFLR",
      "outputs": [],
      "stateMutability": "nonpayable",
      "type": "function"
    },
    {
      "inputs": [
        {
          "internalType": "uint256",
          "name": "_max",
          "type": "uint256"
        }
      ],
      "name": "setMaxDeposit",
      "outputs": [],
      "stateMutability": "nonpayable",
      "type": "function"
    },
    {
      "inputs": [
        {
          "internalType": "uint256",
          "name": "_min",
          "type": "uint256"
        }
      ],
      "name": "setMinDeposit",
      "outputs": [],
      "stateMutability": "nonpayable",
      "type": "function"
    },
    {
      "inputs": [
        {
          "internalType": "address",
          "name": "_pond",
          "type": "address"
        }
      ],
      "name": "setPond",
      "outputs": [],
      "stateMutability": "nonpayable",
      "type": "function"
    },
    {
      "inputs": [
        {
          "internalType": "uint256",
          "name": "_cap",
          "type": "uint256"
        }
      ],
      "name": "setPoolCap",
      "outputs": [],
      "stateMutability": "nonpayable",
      "type": "function"
    },
    {
      "inputs": [
        {
          "internalType": "address",
          "name": "_address",
          "type": "address"
        }
      ],
      "name": "setRewardsManager",
      "outputs": [],
      "stateMutability": "nonpayable",
      "type": "function"
    },
    {
      "inputs": [
        {
          "internalType": "bool",
          "name": "_testMode",
          "type": "bool"
        }
      ],
      "name": "setTestMode",
      "outputs": [],
      "stateMutability": "nonpayable",
      "type": "function"
    },
    {
      "inputs": [
        {
          "internalType": "uint256",
          "name": "bps",
          "type": "uint256"
        }
      ],
      "name": "setTopStakerReturn",
      "outputs": [],
      "stateMutability": "nonpayable",
      "type": "function"
    },
    {
      "inputs": [
        {
          "internalType": "uint256",
          "name": "amount",
          "type": "uint256"
        }
      ],
      "name": "setTotalPGSDistributed",
      "outputs": [],
      "stateMutability": "nonpayable",
      "type": "function"
    },
    {
      "inputs": [
        {
          "internalType": "address",
          "name": "_wflr",
          "type": "address"
        }
      ],
      "name": "setWflr",
      "outputs": [],
      "stateMutability": "nonpayable",
      "type": "function"
    },
    {
      "inputs": [
        {
          "internalType": "address",
          "name": "_zap",
          "type": "address"
        }
      ],
      "name": "setZapContract",
      "outputs": [],
      "stateMutability": "nonpayable",
      "type": "function"
    },
    {
      "inputs": [],
      "name": "topStakerReturnBps",
      "outputs": [
        {
          "internalType": "uint256",
          "name": "",
          "type": "uint256"
        }
      ],
      "stateMutability": "view",
      "type": "function"
    },
    {
      "inputs": [
        {
          "internalType": "address",
          "name": "",
          "type": "address"
        }
      ],
      "name": "totalDeposited",
      "outputs": [
        {
          "internalType": "uint256",
          "name": "",
          "type": "uint256"
        }
      ],
      "stateMutability": "view",
      "type": "function"
    },
    {
      "inputs": [],
      "name": "totalEffectiveShares",
      "outputs": [
        {
          "internalType": "uint256",
          "name": "",
          "type": "uint256"
        }
      ],
      "stateMutability": "view",
      "type": "function"
    },
    {
      "inputs": [],
      "name": "totalFtsoRewardsClaimed",
      "outputs": [
        {
          "internalType": "uint256",
          "name": "",
          "type": "uint256"
        }
      ],
      "stateMutability": "view",
      "type": "function"
    },
    {
      "inputs": [],
      "name": "totalPGSDistributed",
      "outputs": [
        {
          "internalType": "uint256",
          "name": "",
          "type": "uint256"
        }
      ],
      "stateMutability": "view",
      "type": "function"
    },
    {
      "inputs": [],
      "name": "totalPondStaked",
      "outputs": [
        {
          "internalType": "uint256",
          "name": "",
          "type": "uint256"
        }
      ],
      "stateMutability": "view",
      "type": "function"
    },
    {
      "inputs": [
        {
          "internalType": "address",
          "name": "",
          "type": "address"
        }
      ],
      "name": "totalRewardsEarned",
      "outputs": [
        {
          "internalType": "uint256",
          "name": "",
          "type": "uint256"
        }
      ],
      "stateMutability": "view",
      "type": "function"
    },
    {
      "inputs": [],
      "name": "totalWeightedShares",
      "outputs": [
        {
          "internalType": "uint256",
          "name": "",
          "type": "uint256"
        }
      ],
      "stateMutability": "view",
      "type": "function"
    },
    {
      "inputs": [],
      "name": "totalWflrStaked",
      "outputs": [
        {
          "internalType": "uint256",
          "name": "",
          "type": "uint256"
        }
      ],
      "stateMutability": "view",
      "type": "function"
    },
    {
      "inputs": [
        {
          "internalType": "address",
          "name": "from",
          "type": "address"
        },
        {
          "internalType": "address",
          "name": "to",
          "type": "address"
        },
        {
          "internalType": "uint256",
          "name": "amount",
          "type": "uint256"
        }
      ],
      "name": "transferLP",
      "outputs": [],
      "stateMutability": "nonpayable",
      "type": "function"
    },
    {
      "inputs": [
        {
          "internalType": "address",
          "name": "newOwner",
          "type": "address"
        }
      ],
      "name": "transferOwnership",
      "outputs": [],
      "stateMutability": "nonpayable",
      "type": "function"
    },
    {
      "inputs": [],
      "name": "undelegate",
      "outputs": [],
      "stateMutability": "nonpayable",
      "type": "function"
    },
    {
      "inputs": [],
      "name": "unpause",
      "outputs": [],
      "stateMutability": "nonpayable",
      "type": "function"
    },
    {
      "inputs": [],
      "name": "wflr",
      "outputs": [
        {
          "internalType": "contract IERC20",
          "name": "",
          "type": "address"
        }
      ],
      "stateMutability": "view",
      "type": "function"
    },
    {
      "inputs": [
        {
          "internalType": "uint256",
          "name": "amount",
          "type": "uint256"
        }
      ],
      "name": "withdrawSeed",
      "outputs": [],
      "stateMutability": "nonpayable",
      "type": "function"
    },
    {
      "inputs": [],
      "name": "wrapAndDistribute",
      "outputs": [],
      "stateMutability": "nonpayable",
      "type": "function"
    },
    {
      "inputs": [],
      "name": "wrapNativeFLR",
      "outputs": [],
      "stateMutability": "nonpayable",
      "type": "function"
    },
    {
      "inputs": [],
      "name": "zapContract",
      "outputs": [
        {
          "internalType": "address",
          "name": "",
          "type": "address"
        }
      ],
      "stateMutability": "view",
      "type": "function"
    },
    {
      "stateMutability": "payable",
      "type": "receive"
    }
  ],
  "bytecode": "0x60806040523480156200001157600080fd5b506200001c62000022565b620000e3565b600054610100900460ff16156200008f5760405162461bcd60e51b815260206004820152602760248201527f496e697469616c697a61626c653a20636f6e747261637420697320696e697469604482015266616c697a696e6760c81b606482015260840160405180910390fd5b60005460ff90811614620000e1576000805460ff191660ff9081179091556040519081527f7f26b83ff96e1f2b6a682f133852f6798a09c465da95921460cefb38474024989060200160405180910390a15b565b615fde80620000f36000396000f3fe6080604052600436106105425760003560e01c80638da5cb5b116102bd578063c5e22f3f11610180578063e95c41c3116100e7578063f2fde38b116100a0578063f40d5a801161007a578063f40d5a8014610777578063f6ed2017146110e7578063f85ef98814611107578063fcaa87371461112757600080fd5b8063f2fde38b14611087578063f38a95e3146110a7578063f3dfc2a9146110c757600080fd5b8063e95c41c314610fe7578063e9ee2fa914611007578063e9fad8ee1461101d578063edaafe2014611032578063f27dc75414611052578063f29768711461107257600080fd5b8063dabbcf0711610139578063dabbcf0714610f44578063db2e21bc14610f5a578063dd45bc9e14610f6f578063e37c3a5514610f8f578063e49eab3514610fa5578063e4f24cb014610fba57600080fd5b8063c5e22f3f14610e5e578063c8dfc59b14610e97578063cd0b197114610eb7578063ce9f8be514610ed7578063d418634a14610ef7578063d835f53514610f2457600080fd5b80639efcedc211610224578063ae0c3039116101dd578063ae0c303914610da5578063b823cf8f14610dc5578063b84868e314610de5578063b8b768ed14610e12578063b954dc5714610e28578063bb371fdd14610e3e57600080fd5b80639efcedc214610cf35780639ffa1ab914610d09578063a0272ad314610d29578063a5cdb00c14610d49578063a6c3c45314610d69578063aaf5eb6814610d8957600080fd5b80639469ae4f116102765780639469ae4f14610c3d57806394785fdb14610c5d5780639751540614610c7d5780639ab83a4114610c9d5780639cc597fb14610cbd5780639e1bc6f314610cdd57600080fd5b80638da5cb5b14610b7b5780638fcc9cfb14610b9957806391d7a3bf14610bb95780639207bd6c14610bdb57806392ab89bb14610bf057806393b57f9914610c0557600080fd5b806351fb712f11610405578063715018a61161036c57806380ff06d01161032557806380ff06d014610adb5780638237ae3114610afb5780638286521814610b1b57806383b002af14610b315780638456cb5914610b515780638cc075a614610b6657600080fd5b8063715018a614610a4c578063732005d914610a615780637b06f69f14610a775780637bb482c314610a8c5780637bd639df14610aa65780637ff9bca114610abb57600080fd5b80635cad0f88116103be5780635cad0f88146109aa5780635e67e3d9146109ca5780636083e59a146109e057806362e5164c146109f65780636e8d49dd14610a165780637101ac0114610a2c57600080fd5b806351fb712f1461088357806353055481146108a357806355f57510146108d057806359967a591461095d57806359974e38146109725780635c975abb1461099257600080fd5b80633286eda6116104a95780634634490e116104625780634634490e146107d75780634774dc93146107f75780634931fee8146108175780634e11aebd146108375780634e921afa1461085757806351383f981461086d57600080fd5b80633286eda6146107335780633391ddc21461075757806333a8915a146107775780633af0261a1461078c5780633f4ba83a146107ac57806341b3d185146107c157600080fd5b806320d6101a116104fb57806320d6101a1461065d578063235141da1461067d5780632549dad91461069d5780632763a394146106bd57806329ead466146106dd5780632cf003c2146106fd57600080fd5b806307eb21351461054e5780630826dd4d146105655780630a8ddc5e146105a25780631c083f6a146105c25780631ee7b24c146105fd5780631ff1292f1461063d57600080fd5b3661054957005b600080fd5b34801561055a57600080fd5b50610563611147565b005b34801561057157600080fd5b5060cd54610585906001600160a01b031681565b6040516001600160a01b0390911681526020015b60405180910390f35b3480156105ae57600080fd5b506105636105bd366004615601565b6111df565b3480156105ce57600080fd5b506105e26105dd366004615601565b611209565b60408051938452602084019290925290820152606001610599565b34801561060957600080fd5b5061062d610618366004615601565b60ce6020526000908152604090205460ff1681565b6040519015158152602001610599565b34801561064957600080fd5b5061056361065836600461562a565b611254565b34801561066957600080fd5b50610563610678366004615647565b611290565b34801561068957600080fd5b50610563610698366004615647565b61134e565b3480156106a957600080fd5b5060e754610585906001600160a01b031681565b3480156106c957600080fd5b506105636106d8366004615671565b6113d4565b3480156106e957600080fd5b506105636106f83660046156be565b611a5b565b34801561070957600080fd5b50610585610718366004615601565b60de602052600090815260409020546001600160a01b031681565b34801561073f57600080fd5b5061074960db5481565b604051908152602001610599565b34801561076357600080fd5b506105636107723660046156e8565b611a7f565b34801561078357600080fd5b50610749600181565b34801561079857600080fd5b506107496107a7366004615647565b611ea1565b3480156107b857600080fd5b50610563611eef565b3480156107cd57600080fd5b5061074960d85481565b3480156107e357600080fd5b506105636107f2366004615716565b611f01565b34801561080357600080fd5b5061056361081236600461579c565b612187565b34801561082357600080fd5b506105636108323660046157d8565b6126ec565b34801561084357600080fd5b50610749610852366004615601565b612742565b34801561086357600080fd5b5061074960dc5481565b34801561087957600080fd5b5061074960cb5481565b34801561088f57600080fd5b5061056361089e3660046157fa565b612817565b3480156108af57600080fd5b506107496108be366004615601565b60e16020526000908152604090205481565b3480156108dc57600080fd5b506109286108eb366004615601565b60d4602052600090815260409020805460018201546002830154600384015460048501546005860154600690960154949593949293919290919087565b604080519788526020880196909652948601939093526060850191909152608084015260a083015260c082015260e001610599565b34801561096957600080fd5b50610749600281565b34801561097e57600080fd5b5061056361098d366004615647565b612c63565b34801561099e57600080fd5b5060975460ff1661062d565b3480156109b657600080fd5b5060e354610585906001600160a01b031681565b3480156109d657600080fd5b5061074960e55481565b3480156109ec57600080fd5b5061074960d95481565b348015610a0257600080fd5b50610563610a11366004615826565b612cd1565b348015610a2257600080fd5b5061074960e25481565b348015610a3857600080fd5b50610563610a47366004615601565b612d57565b348015610a5857600080fd5b50610563612d81565b348015610a6d57600080fd5b5061074960e05481565b348015610a8357600080fd5b50610749600a81565b348015610a9857600080fd5b5060dd5461062d9060ff1681565b348015610ab257600080fd5b50610563612d93565b348015610ac757600080fd5b50610563610ad6366004615601565b612e8c565b348015610ae757600080fd5b50610563610af636600461562a565b612eb4565b348015610b0757600080fd5b50610563610b16366004615647565b612ecf565b348015610b2757600080fd5b5061074960ca5481565b348015610b3d57600080fd5b50610563610b4c366004615870565b612ff9565b348015610b5d57600080fd5b5061056361334b565b348015610b7257600080fd5b5060e654610749565b348015610b8757600080fd5b506033546001600160a01b0316610585565b348015610ba557600080fd5b50610563610bb4366004615647565b61335b565b348015610bc557600080fd5b50610bce613368565b60405161059991906158ac565b348015610be757600080fd5b50610749600481565b348015610bfc57600080fd5b5061056361340a565b348015610c1157600080fd5b5061062d610c20366004615601565b6001600160a01b0316600090815260d46020526040902054151590565b348015610c4957600080fd5b50610563610c583660046158f0565b613476565b348015610c6957600080fd5b50610563610c78366004615601565b61348c565b348015610c8957600080fd5b5060d254610585906001600160a01b031681565b348015610ca957600080fd5b5060d054610585906001600160a01b031681565b348015610cc957600080fd5b50610749610cd8366004615601565b6134b6565b348015610ce957600080fd5b5061074960d75481565b348015610cff57600080fd5b5061074960e65481565b348015610d1557600080fd5b50610563610d24366004615601565b6134e6565b348015610d3557600080fd5b50610563610d44366004615647565b613510565b348015610d5557600080fd5b50610563610d64366004615601565b61351d565b348015610d7557600080fd5b50610749610d84366004615601565b613547565b348015610d9557600080fd5b50610749670de0b6b3a764000081565b348015610db157600080fd5b50610563610dc0366004615647565b6135e2565b348015610dd157600080fd5b50610563610de0366004615601565b61361b565b348015610df157600080fd5b50610749610e00366004615647565b60cc6020526000908152604090205481565b348015610e1e57600080fd5b5061074960e45481565b348015610e3457600080fd5b5061074960da5481565b348015610e4a57600080fd5b50610563610e59366004615647565b613645565b348015610e6a57600080fd5b50610749610e79366004615601565b6001600160a01b0316600090815260d4602052604090206004015490565b348015610ea357600080fd5b50610563610eb236600461591c565b613652565b348015610ec357600080fd5b50610563610ed2366004615647565b61390a565b348015610ee357600080fd5b5060d154610585906001600160a01b031681565b348015610f0357600080fd5b50610749610f12366004615647565b600090815260cc602052604090205490565b348015610f3057600080fd5b50610563610f3f366004615647565b613917565b348015610f5057600080fd5b5061074960d65481565b348015610f6657600080fd5b50610563613924565b348015610f7b57600080fd5b50610563610f8a366004615937565b613a3c565b348015610f9b57600080fd5b5061074960c95481565b348015610fb157600080fd5b50610563613c18565b348015610fc657600080fd5b50610749610fd5366004615601565b60df6020526000908152604090205481565b348015610ff357600080fd5b50610563611002366004615601565b613d00565b34801561101357600080fd5b5061074960d55481565b34801561102957600080fd5b50610563613d2a565b34801561103e57600080fd5b5060d354610585906001600160a01b031681565b34801561105e57600080fd5b5061056361106d366004615647565b614058565b34801561107e57600080fd5b506105e261418b565b34801561109357600080fd5b506105636110a2366004615601565b6141a6565b3480156110b357600080fd5b5060cf54610585906001600160a01b031681565b3480156110d357600080fd5b506105636110e2366004615974565b61421c565b3480156110f357600080fd5b50610749611102366004615601565b61424f565b34801561111357600080fd5b50610563611122366004615647565b6142cf565b34801561113357600080fd5b50610563611142366004615601565b6142dc565b61114f614306565b60006111636033546001600160a01b031690565b6001600160a01b03164760405160006040518083038185875af1925050503d80600081146111ad576040519150601f19603f3d011682016040523d82523d6000602084013e6111b2565b606091505b50509050806111dc5760405162461bcd60e51b81526004016111d3906159ab565b60405180910390fd5b50565b6111e7614306565b60cd80546001600160a01b0319166001600160a01b0392909216919091179055565b6001600160a01b038116600090815260d460205260408120805490829061122f8561424f565b816002015461123e91906159ea565b915061124a82846159ea565b9350509193909250565b61125c614306565b80156112775761151860c955612a3060ca5561546060cb5550565b6276a70060c95562ed4e0060ca556301e1338060cb5550565b611298614306565b60d1546001600160a01b03166112e35760405162461bcd60e51b815260206004820152601060248201526f1c1c9bdd9a59195c881b9bdd081cd95d60821b60448201526064016111d3565b60d05460d15460405163026e402b60e01b81526001600160a01b039283169263026e402b926113199291169085906004016159fd565b600060405180830381600087803b15801561133357600080fd5b505af1158015611347573d6000803e3d6000fd5b5050505050565b60cf546001600160a01b031633146113945760405162461bcd60e51b815260206004820152600960248201526813db9b1e481413d39160ba1b60448201526064016111d3565b61139d81614360565b6040518181527fb59707bafa534eb28f7d16864e440910dd26773fdf62617a70e402d6091a4c8c906020015b60405180910390a150565b6113dc614508565b6113e4614561565b60e7546001600160a01b031633146114295760405162461bcd60e51b815260206004820152600860248201526704f6e6c79207a61760c41b60448201526064016111d3565b60d85483101561144b5760405162461bcd60e51b81526004016111d390615a16565b60d95483111561148d5760405162461bcd60e51b815260206004820152600d60248201526c41626f7665206d6178696d756d60981b60448201526064016111d3565b60da548360db5461149e91906159ea565b11156114bc5760405162461bcd60e51b81526004016111d390615a3d565b6001600160a01b038416600090815260d46020526040902054156115135760405162461bcd60e51b815260206004820152600e60248201526d105b1c9958591e481cdd185ad95960921b60448201526064016111d3565b6001600160a01b0381161580159061153d5750836001600160a01b0316816001600160a01b031614155b801561156157506001600160a01b03848116600090815260de602052604090205416155b156115ba576001600160a01b03848116600081815260de602052604080822080546001600160a01b0319169486169485179055517f5f7165288eef601591cf549e15ff19ef9060b7f71b9c115be946fa1fe7ebf68a9190a35b60d0546040516323b872dd60e01b81526001600160a01b03909116906323b872dd906115ee90339030908890600401615a67565b6020604051808303816000875af115801561160d573d6000803e3d6000fd5b505050506040513d601f19601f820116820180604052508101906116319190615a8b565b61164d5760405162461bcd60e51b81526004016111d390615aa8565b600061165884611ea1565b60cf546040516370a0823160e01b81526001600160a01b0388811660048301529293508392909116906370a0823190602401602060405180830381865afa1580156116a7573d6000803e3d6000fd5b505050506040513d601f19601f820116820180604052508101906116cb9190615ad6565b10156116e95760405162461bcd60e51b81526004016111d390615aef565b60cf546040516356e4bb9760e11b81526001600160a01b039091169063adc9772e9061171b90889085906004016159fd565b600060405180830381600087803b15801561173557600080fd5b505af1158015611749573d6000803e3d6000fd5b50505050600080611759856145a7565b915091506040518060e0016040528087815260200184815260200160008152602001834261178791906159ea565b8152602080820184905260006040808401829052426060948501526001600160a01b038c16825260d483528082208551815592850151600184015584015160028301559183015160038201556080830151600482015560a0830151600582015560c0909201516006909201919091556118008288615b1a565b90508060d6600082825461181491906159ea565b925050819055508660db600082825461182d91906159ea565b925050819055508360dc600082825461184691906159ea565b90915550506001600160a01b038816600090815260e16020526040812088905560dd5460ff168015611882575060d2546001600160a01b031615155b61188c5781611928565b60d254604051639581372b60e01b81526001600160a01b038b81166004830152670de0b6b3a7640000921690639581372b90602401602060405180830381865afa1580156118de573d6000803e3d6000fd5b505050506040513d601f19601f820116820180604052508101906119029190615ad6565b61191490670de0b6b3a76400006159ea565b61191e9084615b1a565b6119289190615b31565b90508060d7600082825461193c91906159ea565b909155505060d554670de0b6b3a7640000906119589083615b1a565b6119629190615b31565b6001600160a01b03808b16600090815260d46020526040908190206005019290925560d05460d154925163026e402b60e01b81529082169263026e402b926119b392911690612710906004016159fd565b600060405180830381600087803b1580156119cd57600080fd5b505af11580156119e1573d6000803e3d6000fd5b50505050886001600160a01b03167fe3b53cd1a44fbf11535e145d80b8ef1ed6d57a73bf5daa7e939b6b01657d654989876201518088611a219190615b31565b604080519384526020840192909252908201526060810186905260800160405180910390a25050505050611a556001606555565b50505050565b611a63614306565b6001600160a01b03909116600090815260e16020526040902055565b611a87614508565b611a8f614561565b33600090815260d4602052604090208054611abc5760405162461bcd60e51b81526004016111d390615b53565b4281600301541115611b035760405162461bcd60e51b815260206004820152601060248201526f131bd8dac81b9bdd08195e1c1a5c995960821b60448201526064016111d3565b611b0c336145eb565b6000611b173361424f565b905080826002016000828254611b2d91906159ea565b909155505033600090815260df602052604081208054839290611b519084906159ea565b9250508190555060006064600a8460010154611b6d9190615b1a565b611b779190615b31565b60cf5460405163b2a09dbf60e01b81523360048201529192506000916001600160a01b039091169063b2a09dbf90602401602060405180830381865afa158015611bc5573d6000803e3d6000fd5b505050506040513d601f19601f82011682018060405250810190611be99190615ad6565b90506000670de0b6b3a7640000611c008385615b1a565b611c0a9190615b31565b60d3549091506001600160a01b0316611c565760405162461bcd60e51b815260206004820152600e60248201526d109d5999995c881b9bdd081cd95d60921b60448201526064016111d3565b60d354604051631b26ab8b60e31b8152600481018390526001600160a01b039091169063d9355c5890602401600060405180830381600087803b158015611c9c57600080fd5b505af1158015611cb0573d6000803e3d6000fd5b505060cf54604051632770a7eb60e21b81526001600160a01b039091169250639dc29fac9150611ce690339087906004016159fd565b600060405180830381600087803b158015611d0057600080fd5b505af1158015611d14573d6000803e3d6000fd5b5050505082856001016000828254611d2c9190615b78565b925050819055508260dc6000828254611d459190615b78565b9091555060009050611d56336134b6565b90506000828760020154611d6a91906159ea565b905080876000016000828254611d8091906159ea565b909155505060006002880181905580611d988a6145a7565b9092509050611da782426159ea565b60038a0155600489018190554260068a01556000611dc4336134b6565b9050808560d654611dd59190615b78565b611ddf91906159ea565b60d6819055508360db6000828254611df791906159ea565b90915550611e0790503386614797565b6000611e1233612742565b9050670de0b6b3a764000060d55482611e2b9190615b1a565b611e359190615b31565b60058c01558a5433907f63acdca311ce77b458c1dde8cdea3e282508af05da37a4f52a915b7784c37c48908b611e6e6201518089615b31565b6040805193845260208401929092529082015260600160405180910390a250505050505050505050506111dc6001606555565b600081600003611eb357506000919050565b816709b6e64a8ec600006000611ec9838361488d565b9050611ed4816149a3565b611ee690670de0b6b3a7640000615b1a565b95945050505050565b611ef7614306565b611eff6149b7565b565b33600090815260ce602052604090205460ff1680611f2957506033546001600160a01b031633145b611f455760405162461bcd60e51b81526004016111d390615b8b565b60cd546001600160a01b0316611f975760405162461bcd60e51b81526020600482015260176024820152761c995dd85c991cc81b585b9859d95c881b9bdd081cd95d604a1b60448201526064016111d3565b60d0546040516370a0823160e01b81523060048201526000916001600160a01b0316906370a0823190602401602060405180830381865afa158015611fe0573d6000803e3d6000fd5b505050506040513d601f19601f820116820180604052508101906120049190615ad6565b60cd54604051638e33aba560e01b81529192506001600160a01b031690638e33aba590612040903090819089906001908a908a90600401615c53565b6020604051808303816000875af115801561205f573d6000803e3d6000fd5b505050506040513d601f19601f820116820180604052508101906120839190615ad6565b5060d0546040516370a0823160e01b81523060048201526000916001600160a01b0316906370a0823190602401602060405180830381865afa1580156120cd573d6000803e3d6000fd5b505050506040513d601f19601f820116820180604052508101906120f19190615ad6565b905060006120ff8383615b78565b9050801561217f5762ffffff8616600090815260cc6020526040812082905560e280548392906121309084906159ea565b9091555061213f905081614360565b8562ffffff167fdcb091c842f50372c0ebd2a4348d4a2174da7a1e2096be6009dcc82143789a518260405161217691815260200190565b60405180910390a25b505050505050565b61218f614508565b612197614561565b60d8548310156121b95760405162461bcd60e51b81526004016111d390615a16565b60d9548311156121fb5760405162461bcd60e51b815260206004820152600d60248201526c41626f7665206d6178696d756d60981b60448201526064016111d3565b60da548360db5461220c91906159ea565b111561222a5760405162461bcd60e51b81526004016111d390615a3d565b33600090815260d46020526040902054156122875760405162461bcd60e51b815260206004820152601c60248201527f416c7265616479207374616b6564202d207573652072657374616b650000000060448201526064016111d3565b6001600160a01b038116158015906122a857506001600160a01b0381163314155b80156122ca575033600090815260de60205260409020546001600160a01b0316155b156123245733600081815260de602052604080822080546001600160a01b0319166001600160a01b03861690811790915590519092917f5f7165288eef601591cf549e15ff19ef9060b7f71b9c115be946fa1fe7ebf68a91a35b60d0546040516323b872dd60e01b81526001600160a01b03909116906323b872dd9061235890339030908890600401615a67565b6020604051808303816000875af1158015612377573d6000803e3d6000fd5b505050506040513d601f19601f8201168201806040525081019061239b9190615a8b565b6123b75760405162461bcd60e51b81526004016111d390615aa8565b60006123c284611ea1565b60cf546040516370a0823160e01b815233600482015291925082916001600160a01b03909116906370a0823190602401602060405180830381865afa15801561240f573d6000803e3d6000fd5b505050506040513d601f19601f820116820180604052508101906124339190615ad6565b10156124515760405162461bcd60e51b81526004016111d390615aef565b60cf546040516356e4bb9760e11b81526001600160a01b039091169063adc9772e9061248390339085906004016159fd565b600060405180830381600087803b15801561249d57600080fd5b505af11580156124b1573d6000803e3d6000fd5b505050506000806124c1856145a7565b915091506040518060e001604052808781526020018481526020016000815260200183426124ef91906159ea565b8152602080820184905260006040808401829052426060948501523380835260d48452818320865181559386015160018501559085015160028401559284015160038301556080840151600483015560a0840151600583015560c09093015160069091015561255d906134b6565b90508060d6600082825461257191906159ea565b925050819055508660db600082825461258a91906159ea565b925050819055508360dc60008282546125a391906159ea565b909155505033600081815260e160205260408120899055906125c490612742565b90508060d760008282546125d891906159ea565b909155505060d554670de0b6b3a7640000906125f49083615b1a565b6125fe9190615b31565b33600090815260d46020526040908190206005019190915560d05460d154915163026e402b60e01b81526001600160a01b039182169263026e402b9261264d92911690612710906004016159fd565b600060405180830381600087803b15801561266757600080fd5b505af115801561267b573d6000803e3d6000fd5b503392507fe3b53cd1a44fbf11535e145d80b8ef1ed6d57a73bf5daa7e939b6b01657d654991508a9050876126b36201518089615b31565b604080519384526020840192909252908201526060810186905260800160405180910390a250505050506126e76001606555565b505050565b33600090815260ce602052604090205460ff168061271457506033546001600160a01b031633145b6127305760405162461bcd60e51b81526004016111d390615b8b565b600091825260cc602052604090912055565b60008061274e836134b6565b60dd5490915060ff16158061276c575060d2546001600160a01b0316155b156127775792915050565b60d254604051639581372b60e01b81526001600160a01b0385811660048301526000921690639581372b90602401602060405180830381865afa1580156127c2573d6000803e3d6000fd5b505050506040513d601f19601f820116820180604052508101906127e69190615ad6565b9050670de0b6b3a76400006127fb82826159ea565b6128059084615b1a565b61280f9190615b31565b949350505050565b61281f614508565b612827614561565b33600090815260d46020526040902080546128545760405162461bcd60e51b81526004016111d390615b53565b60d8548310156128765760405162461bcd60e51b81526004016111d390615a16565b60da548360db5461288791906159ea565b11156128a55760405162461bcd60e51b81526004016111d390615a3d565b6128ae336145eb565b60006128b9336134b6565b60d0546040516323b872dd60e01b81529192506001600160a01b0316906323b872dd906128ee90339030908990600401615a67565b6020604051808303816000875af115801561290d573d6000803e3d6000fd5b505050506040513d601f19601f820116820180604052508101906129319190615a8b565b61294d5760405162461bcd60e51b81526004016111d390615aa8565b60006129628584600001546107a791906159ea565b905060008360010154826129769190615b78565b90508015612a6d5760cf546040516370a0823160e01b815233600482015282916001600160a01b0316906370a0823190602401602060405180830381865afa1580156129c6573d6000803e3d6000fd5b505050506040513d601f19601f820116820180604052508101906129ea9190615ad6565b1015612a085760405162461bcd60e51b81526004016111d390615aef565b60cf546040516356e4bb9760e11b81526001600160a01b039091169063adc9772e90612a3a90339085906004016159fd565b600060405180830381600087803b158015612a5457600080fd5b505af1158015612a68573d6000803e3d6000fd5b505050505b85846000016000828254612a8191906159ea565b9250508190555080846001016000828254612a9c91906159ea565b909155506000905080612aae876145a7565b915091508560040154811115612ad557612ac882426159ea565b6003870155600486018190555b6000612ae0336134b6565b9050808660d654612af19190615b78565b612afb91906159ea565b60d6819055508860db6000828254612b1391906159ea565b925050819055508360dc6000828254612b2c91906159ea565b909155505033600090815260e16020526040812080548b9290612b509084906159ea565b90915550612b6090503387614797565b670de0b6b3a764000060d554612b7533612742565b612b7f9190615b1a565b612b899190615b31565b600588015542600688015560d05460d15460405163026e402b60e01b81526001600160a01b039283169263026e402b92612bcc92911690612710906004016159fd565b600060405180830381600087803b158015612be657600080fd5b505af1158015612bfa573d6000803e3d6000fd5b5050885460048a0154604080518e8152602081018a90529081019290925260608201523392507f19f38a9d7977a78e6440163907592b3ddc936905984d4a2e5a15876dc10f959f915060800160405180910390a250505050505050612c5f6001606555565b5050565b33600090815260ce602052604090205460ff1680612c8b57506033546001600160a01b031633145b612cc85760405162461bcd60e51b815260206004820152600e60248201526d139bdd08185d5d1a1bdc9a5e995960921b60448201526064016111d3565b6111dc81614360565b612cd9614306565b6040805160e08101825295865260208087019586528682019485526060870193845260808701928352600060a088018181524260c08a019081526001600160a01b03909a16825260d4909252919091209551865593516001860155915160028501555160038401555160048301555160058201559051600690910155565b612d5f614306565b60d280546001600160a01b0319166001600160a01b0392909216919091179055565b612d89614306565b611eff6000614a09565b612d9b614306565b4780612de15760405162461bcd60e51b815260206004820152601560248201527404e6f206e617469766520464c5220746f207772617605c1b60448201526064016111d3565b60d060009054906101000a90046001600160a01b03166001600160a01b031663d0e30db0826040518263ffffffff1660e01b81526004016000604051808303818588803b158015612e3157600080fd5b505af1158015612e45573d6000803e3d6000fd5b50505050507f3667c230d7b9c981d3646f35c73147e441f51201109cf4fc4cf9f378dade3b3081604051612e7b91815260200190565b60405180910390a16111dc81614360565b612e94614306565b6001600160a01b0316600090815260d46020526040902042600390910155565b612ebc614306565b60dd805460ff1916911515919091179055565b612ed7614306565b60008111612f155760405162461bcd60e51b815260206004820152600b60248201526a16995c9bc8185b5bdd5b9d60aa1b60448201526064016111d3565b60d0546040516323b872dd60e01b81526001600160a01b03909116906323b872dd90612f4990339030908690600401615a67565b6020604051808303816000875af1158015612f68573d6000803e3d6000fd5b505050506040513d601f19601f82011682018060405250810190612f8c9190615a8b565b612fa85760405162461bcd60e51b81526004016111d3906159ab565b8060e46000828254612fba91906159ea565b909155505060e4546040805183815260208101929092527fe6a717f59dcc76969ca6f9d6a58041eee35bc5a4cec7eaa1d4201a42e2d43e7791016113c9565b613001614508565b613009614561565b60e3546001600160a01b031633146130575760405162461bcd60e51b815260206004820152601160248201527013db9b1e48189bdbdcdd081b585c9ad95d607a1b60448201526064016111d3565b6001600160a01b0383161580159061307757506001600160a01b03821615155b6130b55760405162461bcd60e51b815260206004820152600f60248201526e496e76616c6964206164647265737360881b60448201526064016111d3565b816001600160a01b0316836001600160a01b0316036131055760405162461bcd60e51b815260206004820152600c60248201526b53616d65206164647265737360a01b60448201526064016111d3565b6001600160a01b03808416600090815260d460205260408082209285168252902081548311156131695760405162461bcd60e51b815260206004820152600f60248201526e0496e73756666696369656e74204c5608c1b60448201526064016111d3565b80546131af5760405162461bcd60e51b81526020600482015260156024820152742932b1b4b834b2b73a103737903837b9b4ba34b7b760591b60448201526064016111d3565b6131b8856145eb565b6131c1846145eb565b60006131cc866134b6565b905060006131d9866134b6565b9050848460000160008282546131ef9190615b78565b90915550508254859084906000906132089084906159ea565b90915550506001600160a01b038616600090815260e16020526040812080548792906132359084906159ea565b9091555060009050613246886134b6565b90506000613253886134b6565b90508082848660d6546132669190615b78565b6132709190615b78565b61327a91906159ea565b61328491906159ea565b60d6556132918985614797565b61329b8884614797565b670de0b6b3a764000060d5546132b08b612742565b6132ba9190615b1a565b6132c49190615b31565b600587015560d554670de0b6b3a7640000906132df8a612742565b6132e99190615b1a565b6132f39190615b31565b60058601556040518781526001600160a01b03808a1691908b16907f6c7bdc2d64bfca2ba90745a3439d5b016a03c101a04b6646a323fafa5200bcc89060200160405180910390a35050505050506126e76001606555565b613353614306565b611eff614a5b565b613363614306565b60d855565b60cd546060906001600160a01b031661338e575060408051600081526020810190915290565b60cd546040516306c7e24360e01b8152306004820152600060248201526001600160a01b03909116906306c7e24390604401600060405180830381865afa1580156133dd573d6000803e3d6000fd5b505050506040513d6000823e601f3d908101601f191682016040526134059190810190615d83565b905090565b613412614306565b60d060009054906101000a90046001600160a01b03166001600160a01b031663b302f3936040518163ffffffff1660e01b8152600401600060405180830381600087803b15801561346257600080fd5b505af1158015611a55573d6000803e3d6000fd5b61347e614306565b60c99290925560ca5560cb55565b613494614306565b60d180546001600160a01b0319166001600160a01b0392909216919091179055565b6001600160a01b038116600090815260d460205260408120600481015481546134df9190615b1a565b9392505050565b6134ee614306565b60e380546001600160a01b0319166001600160a01b0392909216919091179055565b613518614306565b60e055565b613525614306565b60d080546001600160a01b0319166001600160a01b0392909216919091179055565b6001600160a01b038116600090815260e160205260408120548082036135705750600092915050565b6001600160a01b038316600090815260d460205260408120906135928561424f565b600283015483546135a391906159ea565b6135ad91906159ea565b90508281116135c157506000949350505050565b826135cc8183615b78565b6135d890612710615b1a565b611ee69190615b31565b6135ea614306565b60d054604051632e1a7d4d60e01b8152600481018390526001600160a01b0390911690632e1a7d4d90602401611319565b613623614306565b60cf80546001600160a01b0319166001600160a01b0392909216919091179055565b61364d614306565b60d955565b33600090815260ce602052604090205460ff168061367a57506033546001600160a01b031633145b6136965760405162461bcd60e51b81526004016111d390615b8b565b60cd546001600160a01b03166136e85760405162461bcd60e51b81526020600482015260176024820152761c995dd85c991cc81b585b9859d95c881b9bdd081cd95d604a1b60448201526064016111d3565b60d0546040516370a0823160e01b81523060048201526000916001600160a01b0316906370a0823190602401602060405180830381865afa158015613731573d6000803e3d6000fd5b505050506040513d601f19601f820116820180604052508101906137559190615ad6565b60408051600080825260208201909252919250908161378a565b6137776155a6565b81526020019060019003908161376f5790505b5060cd54604051638e33aba560e01b81529192506001600160a01b031690638e33aba5906137c5903090819088906001908890600401615e41565b6020604051808303816000875af11580156137e4573d6000803e3d6000fd5b505050506040513d601f19601f820116820180604052508101906138089190615ad6565b5060d0546040516370a0823160e01b81523060048201526000916001600160a01b0316906370a0823190602401602060405180830381865afa158015613852573d6000803e3d6000fd5b505050506040513d601f19601f820116820180604052508101906138769190615ad6565b905060006138848483615b78565b905080156113475762ffffff8516600090815260cc6020526040812082905560e280548392906138b59084906159ea565b909155506138c4905081614360565b8462ffffff167fdcb091c842f50372c0ebd2a4348d4a2174da7a1e2096be6009dcc82143789a51826040516138fb91815260200190565b60405180910390a25050505050565b613912614306565b60e555565b61391f614306565b60da55565b61392c614306565b60d0546040516370a0823160e01b81523060048201526000916001600160a01b0316906370a0823190602401602060405180830381865afa158015613975573d6000803e3d6000fd5b505050506040513d601f19601f820116820180604052508101906139999190615ad6565b60d0549091506001600160a01b031663a9059cbb6139bf6033546001600160a01b031690565b836040518363ffffffff1660e01b81526004016139dd9291906159fd565b6020604051808303816000875af11580156139fc573d6000803e3d6000fd5b505050506040513d601f19601f82011682018060405250810190613a209190615a8b565b6111dc5760405162461bcd60e51b81526004016111d3906159ab565b600054610100900460ff1615808015613a5c5750600054600160ff909116105b80613a765750303b158015613a76575060005460ff166001145b613ad95760405162461bcd60e51b815260206004820152602e60248201527f496e697469616c697a61626c653a20636f6e747261637420697320616c72656160448201526d191e481a5b9a5d1a585b1a5e995960921b60648201526084016111d3565b6000805460ff191660011790558015613afc576000805461ff0019166101001790555b613b04614a98565b613b0c614ac7565b613b14614af6565b60d080546001600160a01b0319166001600160a01b0386161790558415613b4c5761151860c955612a3060ca5561546060cb55613b63565b6276a70060c95562ed4e0060ca556301e1338060cb555b60cd80546001600160a01b038085166001600160a01b03199283161790925560d180549286169290911691909117905568056bc75e2d6310000060d85569d3c21bcecceda100000060d9556a084595161401484a00000060da5560dd805460ff1916905560c860e0558015611347576000805461ff0019169055604051600181527f7f26b83ff96e1f2b6a682f133852f6798a09c465da95921460cefb38474024989060200160405180910390a15050505050565b613c20614306565b4780613c665760405162461bcd60e51b815260206004820152601560248201527404e6f206e617469766520464c5220746f207772617605c1b60448201526064016111d3565b60d060009054906101000a90046001600160a01b03166001600160a01b031663d0e30db0826040518263ffffffff1660e01b81526004016000604051808303818588803b158015613cb657600080fd5b505af1158015613cca573d6000803e3d6000fd5b50505050507f3667c230d7b9c981d3646f35c73147e441f51201109cf4fc4cf9f378dade3b30816040516113c991815260200190565b613d08614306565b60d380546001600160a01b0319166001600160a01b0392909216919091179055565b613d32614508565b613d3a614561565b33600090815260d4602052604090208054613d675760405162461bcd60e51b81526004016111d390615b53565b4281600301541115613dae5760405162461bcd60e51b815260206004820152601060248201526f131bd8dac81b9bdd08195e1c1a5c995960821b60448201526064016111d3565b613db7336145eb565b6000613dc23361424f565b905080826002016000828254613dd891906159ea565b909155505033600090815260df602052604081208054839290613dfc9084906159ea565b909155505060028201548254600091613e14916159ea565b60018401549091506000613e27336134b6565b90508060d66000828254613e3b9190615b78565b9091555050845460db8054600090613e54908490615b78565b925050819055508160dc6000828254613e6d9190615b78565b90915550613e7d90503382614797565b60cf54604051630615339760e51b81526001600160a01b039091169063c2a672e090613eaf90339086906004016159fd565b600060405180830381600087803b158015613ec957600080fd5b505af1158015613edd573d6000803e3d6000fd5b505060cf54604051631ec3730d60e11b8152336004820152600160248201526001600160a01b039091169250633d86e61a9150604401600060405180830381600087803b158015613f2d57600080fd5b505af1158015613f41573d6000803e3d6000fd5b505060008088556001880181905560028801819055600588018190556003880181905560048089018290553380835260e160205260408084209390935560d054925163a9059cbb60e01b81526001600160a01b03909316945063a9059cbb9350613faf9290918891016159fd565b6020604051808303816000875af1158015613fce573d6000803e3d6000fd5b505050506040513d601f19601f82011682018060405250810190613ff29190615a8b565b61400e5760405162461bcd60e51b81526004016111d390615aa8565b604080518481526020810184905233917fba49bb5279636ff80eebc4fcda6a47bdf6053db74c3719cc3f9cc54e44b2878b910160405180910390a25050505050611eff6001606555565b614060614306565b60e4548111156140a95760405162461bcd60e51b81526020600482015260146024820152734578636565647320736565642062616c616e636560601b60448201526064016111d3565b8060e460008282546140bb9190615b78565b909155505060d05460405163a9059cbb60e01b81526001600160a01b039091169063a9059cbb906140f290339085906004016159fd565b6020604051808303816000875af1158015614111573d6000803e3d6000fd5b505050506040513d601f19601f820116820180604052508101906141359190615a8b565b6141515760405162461bcd60e51b81526004016111d3906159ab565b60e4546040805183815260208101929092527feb13951adf6a37a8b1c512e437e0c63ac2aa6285654e39ef8e6bcec5ffa44c3c91016113c9565b60db5460e4546000919061419f81836159ea565b9250909192565b6141ae614306565b6001600160a01b0381166142135760405162461bcd60e51b815260206004820152602660248201527f4f776e61626c653a206e6577206f776e657220697320746865207a65726f206160448201526564647265737360d01b60648201526084016111d3565b6111dc81614a09565b614224614306565b6001600160a01b0391909116600090815260ce60205260409020805460ff1916911515919091179055565b6001600160a01b038116600090815260d460205260408120805482036142785750600092915050565b600061428384612742565b90506000670de0b6b3a764000060d5548361429e9190615b1a565b6142a89190615b31565b9050826005015481116142c057506000949350505050565b6005830154611ee69082615b78565b6142d7614306565b60e655565b6142e4614306565b60e780546001600160a01b0319166001600160a01b0392909216919091179055565b6033546001600160a01b03163314611eff5760405162461bcd60e51b815260206004820181905260248201527f4f776e61626c653a2063616c6c6572206973206e6f7420746865206f776e657260448201526064016111d3565b60d754158061436d575080155b156144805760d3546001600160a01b03161580159061438c5750600081115b156111dc5760d05460d35460405163a9059cbb60e01b81526001600160a01b039283169263a9059cbb926143c79291169085906004016159fd565b6020604051808303816000875af11580156143e6573d6000803e3d6000fd5b505050506040513d601f19601f8201168201806040525081019061440a9190615a8b565b61444f5760405162461bcd60e51b8152602060048201526016602482015275109d5999995c881d1c985b9cd9995c8819985a5b195960521b60448201526064016111d3565b60d35460405163b6b55f2560e01b8152600481018390526001600160a01b039091169063b6b55f2590602401611319565b60d754614495670de0b6b3a764000083615b1a565b61449f9190615b31565b60d560008282546144b091906159ea565b925050819055508060e560008282546144c991906159ea565b909155505060d5546040805183815260208101929092527f29e98ba00d07f171959c4ddcd2f3020debc7c52cf537a034d7e664340d098c6c91016113c9565b60026065540361455a5760405162461bcd60e51b815260206004820152601f60248201527f5265656e7472616e637947756172643a207265656e7472616e742063616c6c0060448201526064016111d3565b6002606555565b60975460ff1615611eff5760405162461bcd60e51b815260206004820152601060248201526f14185d5cd8589b194e881c185d5cd95960821b60448201526064016111d3565b6000808260ff166000036145c157505060c9549160019150565b8260ff166001036145d857505060ca549160029150565b505060cb549160049150565b6001606555565b6001600160a01b038116600090815260d4602052604081208054909103614610575050565b600061461b8361424f565b9050801561475b576001600160a01b03808416600090815260de602052604090205416801580159061466457506001600160a01b038116600090815260d4602052604090205415155b156147135760006064614678600185615b1a565b6146829190615b31565b6001600160a01b038316600090815260d460205260408120600201805492935083929091906146b29084906159ea565b909155506146c290508184615b78565b9250846001600160a01b0316826001600160a01b03167f0a721ab4682ceb61c7e4d264ef879fc419a6d764b136e7d96ef54b2053c756738360405161470991815260200190565b60405180910390a3505b8183600201600082825461472791906159ea565b90915550506001600160a01b038416600090815260df6020526040812080548492906147549084906159ea565b9091555050505b600061476684612742565b9050670de0b6b3a764000060d5548261477f9190615b1a565b6147899190615b31565b836005018190555050505050565b60dd5460009060ff1680156147b6575060d2546001600160a01b031615155b6147c0578161485c565b60d254604051639581372b60e01b81526001600160a01b038581166004830152670de0b6b3a7640000921690639581372b90602401602060405180830381865afa158015614812573d6000803e3d6000fd5b505050506040513d601f19601f820116820180604052508101906148369190615ad6565b61484890670de0b6b3a76400006159ea565b6148529084615b1a565b61485c9190615b31565b9050600061486984612742565b9050808260d75461487a9190615b78565b61488491906159ea565b60d75550505050565b600082828183036148b85780156148a55760006148af565b670de0b6b3a76400005b9250505061499d565b670de0b6b3a764000082036148d957670de0b6b3a76400009250505061499d565b806000036148f357670de0b6b3a76400009250505061499d565b670de0b6b3a7640000810361490c57849250505061499d565b670de0b6b3a764000082111561493d5761493661493161492b87614b25565b86614c58565b614c67565b925061499a565b600061495e61495b846ec097ce7bc90715b34b9f1000000000615b31565b90565b9050600061497761493161497184614b25565b88614c58565b905061499561495b826ec097ce7bc90715b34b9f1000000000615b31565b945050505b50505b92915050565b600061499d670de0b6b3a764000083615b31565b6149bf614cbd565b6097805460ff191690557f5db9ee0a495bf2e6ff9c91a7834c1ba4fdd244a5e8aa4e537bd38aeae4b073aa335b6040516001600160a01b03909116815260200160405180910390a1565b603380546001600160a01b038381166001600160a01b0319831681179093556040519116919082907f8be0079c531659141344cd1fd0a4f28419497f9722a3daafe3b4186f6b6457e090600090a35050565b614a63614561565b6097805460ff191660011790557f62e78cea01bee320cd4e420270b5ea74000d11b0c9f74754ebdbfc544b05a2586149ec3390565b600054610100900460ff16614abf5760405162461bcd60e51b81526004016111d390615f5d565b611eff614d06565b600054610100900460ff16614aee5760405162461bcd60e51b81526004016111d390615f5d565b611eff614d36565b600054610100900460ff16614b1d5760405162461bcd60e51b81526004016111d390615f5d565b611eff614d5d565b600081670de0b6b3a7640000811015614b545760405163036d32ef60e41b8152600481018490526024016111d3565b6000614be0670de0b6b3a7640000830460016fffffffffffffffffffffffffffffffff821160071b91821c67ffffffffffffffff811160061b90811c63ffffffff811160051b90811c61ffff811160041b90811c60ff8111600390811b91821c600f811160021b90811c918211871b91821c969096119490961792909217171791909117919091171790565b9050670de0b6b3a7640000810282821c670de0b6b3a763ffff198101614c095750949350505050565b671bc16d674ec800006706f05b59d3b200005b8015614c4c57670de0b6b3a7640000838002049250818310614c44579283019260019290921c915b60011c614c1c565b50919695505050505050565b60006134df61495b8484614d90565b600081680a688906bd8affffff811115614c975760405163b3b6ba1f60e01b8152600481018490526024016111d3565b6000614caf670de0b6b3a7640000604084901b615b31565b905061280f61495b82614e46565b60975460ff16611eff5760405162461bcd60e51b815260206004820152601460248201527314185d5cd8589b194e881b9bdd081c185d5cd95960621b60448201526064016111d3565b600054610100900460ff16614d2d5760405162461bcd60e51b81526004016111d390615f5d565b611eff33614a09565b600054610100900460ff166145e45760405162461bcd60e51b81526004016111d390615f5d565b600054610100900460ff16614d845760405162461bcd60e51b81526004016111d390615f5d565b6097805460ff19169055565b6000808060001984860984860292508281108382030391505080600003614dc45750670de0b6b3a76400009004905061499d565b670de0b6b3a76400008110614df657604051635173648d60e01b815260048101869052602481018590526044016111d3565b6000670de0b6b3a764000085870962040000818503049310909103600160ee1b02919091177faccb18165bd6fe31ae1cf318dc5b51eee0e1ba569b88cd74c1773b91fac106690291505092915050565b600160bf1b67ff00000000000000821615614f5357678000000000000000821615614e7a5768016a09e667f3bcc9090260401c5b674000000000000000821615614e99576801306fe0a31b7152df0260401c5b672000000000000000821615614eb8576801172b83c7d517adce0260401c5b671000000000000000821615614ed75768010b5586cf9890f62a0260401c5b670800000000000000821615614ef6576801059b0d31585743ae0260401c5b670400000000000000821615614f1557680102c9a3e778060ee70260401c5b670200000000000000821615614f345768010163da9fb33356d80260401c5b670100000000000000821615614f5357680100b1afa5abcbed610260401c5b66ff000000000000821615615052576680000000000000821615614f805768010058c86da1c09ea20260401c5b6640000000000000821615614f9e576801002c605e2e8cec500260401c5b6620000000000000821615614fbc57680100162f3904051fa10260401c5b6610000000000000821615614fda576801000b175effdc76ba0260401c5b6608000000000000821615614ff857680100058ba01fb9f96d0260401c5b66040000000000008216156150165768010002c5cc37da94920260401c5b6602000000000000821615615034576801000162e525ee05470260401c5b66010000000000008216156150525768010000b17255775c040260401c5b65ff0000000000821615615148576580000000000082161561507d576801000058b91b5bc9ae0260401c5b6540000000000082161561509a57680100002c5c89d5ec6d0260401c5b652000000000008216156150b75768010000162e43f4f8310260401c5b651000000000008216156150d457680100000b1721bcfc9a0260401c5b650800000000008216156150f15768010000058b90cf1e6e0260401c5b6504000000000082161561510e576801000002c5c863b73f0260401c5b6502000000000082161561512b57680100000162e430e5a20260401c5b65010000000000821615615148576801000000b1721835510260401c5b64ff000000008216156152355764800000000082161561517157680100000058b90c0b490260401c5b64400000000082161561518d5768010000002c5c8601cc0260401c5b6420000000008216156151a9576801000000162e42fff00260401c5b6410000000008216156151c55768010000000b17217fbb0260401c5b6408000000008216156151e1576801000000058b90bfce0260401c5b6404000000008216156151fd57680100000002c5c85fe30260401c5b6402000000008216156152195768010000000162e42ff10260401c5b64010000000082161561523557680100000000b17217f80260401c5b63ff00000082161561531957638000000082161561525c5768010000000058b90bfc0260401c5b6340000000821615615277576801000000002c5c85fe0260401c5b632000000082161561529257680100000000162e42ff0260401c5b63100000008216156152ad576801000000000b17217f0260401c5b63080000008216156152c857680100000000058b90c00260401c5b63040000008216156152e35768010000000002c5c8600260401c5b63020000008216156152fe576801000000000162e4300260401c5b63010000008216156153195768010000000000b172180260401c5b62ff00008216156153f4576280000082161561533e576801000000000058b90c0260401c5b6240000082161561535857680100000000002c5c860260401c5b622000008216156153725768010000000000162e430260401c5b6210000082161561538c57680100000000000b17210260401c5b620800008216156153a65768010000000000058b910260401c5b620400008216156153c0576801000000000002c5c80260401c5b620200008216156153da57680100000000000162e40260401c5b620100008216156153f4576801000000000000b1720260401c5b61ff008216156154c65761800082161561541757680100000000000058b90260401c5b6140008216156154305768010000000000002c5d0260401c5b612000821615615449576801000000000000162e0260401c5b6110008216156154625768010000000000000b170260401c5b61080082161561547b576801000000000000058c0260401c5b61040082161561549457680100000000000002c60260401c5b6102008216156154ad57680100000000000001630260401c5b6101008216156154c657680100000000000000b10260401c5b60ff82161561558f5760808216156154e757680100000000000000590260401c5b60408216156154ff576801000000000000002c0260401c5b602082161561551757680100000000000000160260401c5b601082161561552f576801000000000000000b0260401c5b600882161561554757680100000000000000060260401c5b600482161561555f57680100000000000000030260401c5b600282161561557757680100000000000000010260401c5b600182161561558f57680100000000000000010260401c5b670de0b6b3a76400000260409190911c60bf031c90565b6040518060400160405280606081526020016155e06040805160808101825260008082526020820181905291810182905290606082015290565b905290565b80356001600160a01b03811681146155fc57600080fd5b919050565b60006020828403121561561357600080fd5b6134df826155e5565b80151581146111dc57600080fd5b60006020828403121561563c57600080fd5b81356134df8161561c565b60006020828403121561565957600080fd5b5035919050565b803560ff811681146155fc57600080fd5b6000806000806080858703121561568757600080fd5b615690856155e5565b9350602085013592506156a560408601615660565b91506156b3606086016155e5565b905092959194509250565b600080604083850312156156d157600080fd5b6156da836155e5565b946020939093013593505050565b6000602082840312156156fa57600080fd5b6134df82615660565b803562ffffff811681146155fc57600080fd5b60008060006040848603121561572b57600080fd5b61573484615703565b9250602084013567ffffffffffffffff8082111561575157600080fd5b818601915086601f83011261576557600080fd5b81358181111561577457600080fd5b8760208260051b850101111561578957600080fd5b6020830194508093505050509250925092565b6000806000606084860312156157b157600080fd5b833592506157c160208501615660565b91506157cf604085016155e5565b90509250925092565b600080604083850312156157eb57600080fd5b50508035926020909101359150565b6000806040838503121561580d57600080fd5b8235915061581d60208401615660565b90509250929050565b60008060008060008060c0878903121561583f57600080fd5b615848876155e5565b9860208801359850604088013597606081013597506080810135965060a00135945092505050565b60008060006060848603121561588557600080fd5b61588e846155e5565b925061589c602085016155e5565b9150604084013590509250925092565b6020808252825182820181905260009190848201906040850190845b818110156158e4578351835292840192918401916001016158c8565b50909695505050505050565b60008060006060848603121561590557600080fd5b505081359360208301359350604090920135919050565b60006020828403121561592e57600080fd5b6134df82615703565b6000806000806080858703121561594d57600080fd5b84356159588161561c565b9350615966602086016155e5565b92506156a5604086016155e5565b6000806040838503121561598757600080fd5b615990836155e5565b915060208301356159a08161561c565b809150509250929050565b6020808252600f908201526e151c985b9cd9995c8819985a5b1959608a1b604082015260600190565b634e487b7160e01b600052601160045260246000fd5b8082018082111561499d5761499d6159d4565b6001600160a01b03929092168252602082015260400190565b6020808252600d908201526c42656c6f77206d696e696d756d60981b604082015260600190565b60208082526010908201526f141bdbdb0818d85c081c995858da195960821b604082015260600190565b6001600160a01b039384168152919092166020820152604081019190915260600190565b600060208284031215615a9d57600080fd5b81516134df8161561c565b60208082526014908201527315d19314881d1c985b9cd9995c8819985a5b195960621b604082015260600190565b600060208284031215615ae857600080fd5b5051919050565b602080825260119082015270125b9cdd59999a58da595b9d081413d391607a1b604082015260600190565b808202811582820484141761499d5761499d6159d4565b600082615b4e57634e487b7160e01b600052601260045260246000fd5b500490565b6020808252600b908201526a2737903837b9b4ba34b7b760a91b604082015260600190565b8181038181111561499d5761499d6159d4565b6020808252601590820152743737ba1030baba3437b934bd32b21039b2b73232b960591b604082015260600190565b60058110615bd857634e487b7160e01b600052602160045260246000fd5b9052565b62ffffff615be982615703565b16825260208101356bffffffffffffffffffffffff198116808214615c0d57600080fd5b60208401525060408101356001600160781b038116808214615c2e57600080fd5b604084015250606081013560058110615c4657600080fd5b6126e76060840182615bba565b6001600160a01b038781168252861660208083019190915262ffffff86166040830152841515606083015260a06080830181905282810184905260009160c09081850190600587811b8701840189875b8a811015615d595789830360bf190186528135368d9003609e19018112615cc957600080fd5b8c01803536829003601e19018112615ce057600080fd5b8101868101903567ffffffffffffffff811115615cfc57600080fd5b80871b803603831315615d0e57600080fd5b8b8752868c018290526001600160fb1b03821115615d2b57600080fd5b80838c890137615d3f8988018a8601615bdc565b988801989590950189019450505090840190600101615ca3565b50909e9d5050505050505050505050505050565b634e487b7160e01b600052604160045260246000fd5b60006020808385031215615d9657600080fd5b825167ffffffffffffffff80821115615dae57600080fd5b818501915085601f830112615dc257600080fd5b815181811115615dd457615dd4615d6d565b8060051b604051601f19603f83011681018181108582111715615df957615df9615d6d565b604052918252848201925083810185019188831115615e1757600080fd5b938501935b82851015615e3557845184529385019392850192615e1c565b98975050505050505050565b600060a080830160018060a01b03808a1685526020818a16818701526040915062ffffff808a1660408801526060891515606089015260a0608089015284895180875260c0965060c08a01915060c08160051b8b0101858c016000805b84811015615f44578d840360bf19018652825180518d865280518e8701819052908b019084908e8801905b80831015615ee95783518252928d019260019290920191908d0190615ec9565b50928c015180518c16888e0152808d01516bffffffffffffffffffffffff19168e8901528d8101516001600160781b03168b8901528a015192615f2f6080890185615bba565b988c0198965050509289019250600101615e9e565b5050508099505050505050505050509695505050505050565b6020808252602b908201527f496e697469616c697a61626c653a20636f6e7472616374206973206e6f74206960408201526a6e697469616c697a696e6760a81b60608201526080019056fea2646970667358221220bdf1bb7f894a6663a16b8fe9d5405d181b8fcbb754dd322c4aabc9951f757d8864736f6c63430008180033",
  "linkReferences": {},
  "deployedLinkReferences": {}
}