{
  "_format": "hh-sol-artifact-1",
  "contractName": "POND",
  "sourceName": "contracts/POND_V2.sol",
  "abi": [
    {
      "inputs": [],
      "stateMutability": "nonpayable",
      "type": "constructor"
    },
    {
      "anonymous": false,
      "inputs": [
        {
          "indexed": false,
          "internalType": "uint8",
          "name": "version",
          "type": "uint8"
        }
      ],
      "name": "Initialized",
      "type": "event"
    },
    {
      "anonymous": false,
      "inputs": [
        {
          "indexed": true,
          "internalType": "address",
          "name": "previousOwner",
          "type": "address"
        },
        {
          "indexed": true,
          "internalType": "address",
          "name": "newOwner",
          "type": "address"
        }
      ],
      "name": "OwnershipTransferred",
      "type": "event"
    },
    {
      "anonymous": false,
      "inputs": [
        {
          "indexed": false,
          "internalType": "address",
          "name": "account",
          "type": "address"
        }
      ],
      "name": "Paused",
      "type": "event"
    },
    {
      "anonymous": false,
      "inputs": [
        {
          "indexed": true,
          "internalType": "address",
          "name": "holder",
          "type": "address"
        },
        {
          "indexed": false,
          "internalType": "uint256",
          "name": "pondAmount",
          "type": "uint256"
        }
      ],
      "name": "PondBurned",
      "type": "event"
    },
    {
      "anonymous": false,
      "inputs": [
        {
          "indexed": true,
          "internalType": "address",
          "name": "buyer",
          "type": "address"
        },
        {
          "indexed": false,
          "internalType": "uint256",
          "name": "pondAmount",
          "type": "uint256"
        },
        {
          "indexed": false,
          "internalType": "uint256",
          "name": "wflrPaid",
          "type": "uint256"
        },
        {
          "indexed": false,
          "internalType": "uint256",
          "name": "floorToStakers",
          "type": "uint256"
        },
        {
          "indexed": false,
          "internalType": "uint256",
          "name": "spreadToBuffer",
          "type": "uint256"
        }
      ],
      "name": "PondPurchased",
      "type": "event"
    },
    {
      "anonymous": false,
      "inputs": [
        {
          "indexed": true,
          "internalType": "address",
          "name": "user",
          "type": "address"
        },
        {
          "indexed": false,
          "internalType": "uint256",
          "name": "amount",
          "type": "uint256"
        }
      ],
      "name": "PondStaked",
      "type": "event"
    },
    {
      "anonymous": false,
      "inputs": [
        {
          "indexed": true,
          "internalType": "address",
          "name": "user",
          "type": "address"
        },
        {
          "indexed": false,
          "internalType": "uint256",
          "name": "amount",
          "type": "uint256"
        }
      ],
      "name": "PondUnstaked",
      "type": "event"
    },
    {
      "anonymous": false,
      "inputs": [
        {
          "indexed": true,
          "internalType": "address",
          "name": "user",
          "type": "address"
        },
        {
          "indexed": false,
          "internalType": "uint256",
          "name": "amount",
          "type": "uint256"
        }
      ],
      "name": "RedemptionClaimed",
      "type": "event"
    },
    {
      "anonymous": false,
      "inputs": [
        {
          "indexed": true,
          "internalType": "address",
          "name": "user",
          "type": "address"
        },
        {
          "indexed": false,
          "internalType": "uint256",
          "name": "pondBurned",
          "type": "uint256"
        },
        {
          "indexed": false,
          "internalType": "uint256",
          "name": "wflrOwed",
          "type": "uint256"
        },
        {
          "indexed": false,
          "internalType": "uint256",
          "name": "dripEndTime",
          "type": "uint256"
        }
      ],
      "name": "RedemptionStarted",
      "type": "event"
    },
    {
      "anonymous": false,
      "inputs": [
        {
          "indexed": false,
          "internalType": "address",
          "name": "account",
          "type": "address"
        }
      ],
      "name": "Unpaused",
      "type": "event"
    },
    {
      "anonymous": false,
      "inputs": [
        {
          "indexed": true,
          "internalType": "address",
          "name": "user",
          "type": "address"
        },
        {
          "indexed": false,
          "internalType": "bool",
          "name": "wasStaked",
          "type": "bool"
        }
      ],
      "name": "WasStakedSet",
      "type": "event"
    },
    {
      "inputs": [],
      "name": "DECIMALS",
      "outputs": [
        {
          "internalType": "uint256",
          "name": "",
          "type": "uint256"
        }
      ],
      "stateMutability": "view",
      "type": "function"
    },
    {
      "inputs": [],
      "name": "DRIP_DURATION_FIXED",
      "outputs": [
        {
          "internalType": "uint256",
          "name": "",
          "type": "uint256"
        }
      ],
      "stateMutability": "view",
      "type": "function"
    },
    {
      "inputs": [],
      "name": "DRIP_DURATION_MAX",
      "outputs": [
        {
          "internalType": "uint256",
          "name": "",
          "type": "uint256"
        }
      ],
      "stateMutability": "view",
      "type": "function"
    },
    {
      "inputs": [],
      "name": "DRIP_DURATION_MIN",
      "outputs": [
        {
          "internalType": "uint256",
          "name": "",
          "type": "uint256"
        }
      ],
      "stateMutability": "view",
      "type": "function"
    },
    {
      "inputs": [],
      "name": "FLOOR_PRICE",
      "outputs": [
        {
          "internalType": "uint256",
          "name": "",
          "type": "uint256"
        }
      ],
      "stateMutability": "view",
      "type": "function"
    },
    {
      "inputs": [],
      "name": "PRICE_INCREMENT",
      "outputs": [
        {
          "internalType": "uint256",
          "name": "",
          "type": "uint256"
        }
      ],
      "stateMutability": "view",
      "type": "function"
    },
    {
      "inputs": [],
      "name": "REDEMPTION_PERCENT",
      "outputs": [
        {
          "internalType": "uint256",
          "name": "",
          "type": "uint256"
        }
      ],
      "stateMutability": "view",
      "type": "function"
    },
    {
      "inputs": [
        {
          "internalType": "address",
          "name": "",
          "type": "address"
        },
        {
          "internalType": "uint256",
          "name": "",
          "type": "uint256"
        }
      ],
      "name": "approve",
      "outputs": [
        {
          "internalType": "bool",
          "name": "",
          "type": "bool"
        }
      ],
      "stateMutability": "pure",
      "type": "function"
    },
    {
      "inputs": [
        {
          "internalType": "address",
          "name": "",
          "type": "address"
        }
      ],
      "name": "balanceOf",
      "outputs": [
        {
          "internalType": "uint256",
          "name": "",
          "type": "uint256"
        }
      ],
      "stateMutability": "view",
      "type": "function"
    },
    {
      "inputs": [],
      "name": "buffer",
      "outputs": [
        {
          "internalType": "address",
          "name": "",
          "type": "address"
        }
      ],
      "stateMutability": "view",
      "type": "function"
    },
    {
      "inputs": [
        {
          "internalType": "address",
          "name": "from",
          "type": "address"
        },
        {
          "internalType": "uint256",
          "name": "amount",
          "type": "uint256"
        }
      ],
      "name": "burn",
      "outputs": [],
      "stateMutability": "nonpayable",
      "type": "function"
    },
    {
      "inputs": [
        {
          "internalType": "address",
          "name": "from",
          "type": "address"
        },
        {
          "internalType": "uint256",
          "name": "amount",
          "type": "uint256"
        }
      ],
      "name": "burnForMint",
      "outputs": [],
      "stateMutability": "nonpayable",
      "type": "function"
    },
    {
      "inputs": [
        {
          "internalType": "uint256",
          "name": "wflrAmount",
          "type": "uint256"
        }
      ],
      "name": "buy",
      "outputs": [],
      "stateMutability": "nonpayable",
      "type": "function"
    },
    {
      "inputs": [
        {
          "internalType": "uint256",
          "name": "pondAmount",
          "type": "uint256"
        },
        {
          "internalType": "address",
          "name": "buyer",
          "type": "address"
        }
      ],
      "name": "buyExactFor",
      "outputs": [],
      "stateMutability": "nonpayable",
      "type": "function"
    },
    {
      "inputs": [
        {
          "internalType": "uint256",
          "name": "wflrAmount",
          "type": "uint256"
        },
        {
          "internalType": "address",
          "name": "recipient",
          "type": "address"
        }
      ],
      "name": "buyFor",
      "outputs": [],
      "stateMutability": "nonpayable",
      "type": "function"
    },
    {
      "inputs": [],
      "name": "claimRedemption",
      "outputs": [],
      "stateMutability": "nonpayable",
      "type": "function"
    },
    {
      "inputs": [
        {
          "internalType": "address",
          "name": "user",
          "type": "address"
        },
        {
          "internalType": "uint256",
          "name": "amount",
          "type": "uint256"
        }
      ],
      "name": "emergencySetBalance",
      "outputs": [],
      "stateMutability": "nonpayable",
      "type": "function"
    },
    {
      "inputs": [
        {
          "internalType": "address",
          "name": "user",
          "type": "address"
        },
        {
          "internalType": "uint256",
          "name": "amount",
          "type": "uint256"
        }
      ],
      "name": "emergencySetStakedPond",
      "outputs": [],
      "stateMutability": "nonpayable",
      "type": "function"
    },
    {
      "inputs": [
        {
          "internalType": "uint256",
          "name": "_amount",
          "type": "uint256"
        }
      ],
      "name": "emergencyUnwrap",
      "outputs": [],
      "stateMutability": "nonpayable",
      "type": "function"
    },
    {
      "inputs": [],
      "name": "emergencyWithdrawNative",
      "outputs": [],
      "stateMutability": "nonpayable",
      "type": "function"
    },
    {
      "inputs": [],
      "name": "emergencyWithdrawWFLR",
      "outputs": [],
      "stateMutability": "nonpayable",
      "type": "function"
    },
    {
      "inputs": [
        {
          "internalType": "address",
          "name": "user",
          "type": "address"
        }
      ],
      "name": "getAvailableBalance",
      "outputs": [
        {
          "internalType": "uint256",
          "name": "",
          "type": "uint256"
        }
      ],
      "stateMutability": "view",
      "type": "function"
    },
    {
      "inputs": [
        {
          "internalType": "address",
          "name": "user",
          "type": "address"
        }
      ],
      "name": "getAveragePrice",
      "outputs": [
        {
          "internalType": "uint256",
          "name": "",
          "type": "uint256"
        }
      ],
      "stateMutability": "view",
      "type": "function"
    },
    {
      "inputs": [
        {
          "internalType": "address",
          "name": "user",
          "type": "address"
        }
      ],
      "name": "getClaimableRedemption",
      "outputs": [
        {
          "internalType": "uint256",
          "name": "",
          "type": "uint256"
        }
      ],
      "stateMutability": "view",
      "type": "function"
    },
    {
      "inputs": [
        {
          "internalType": "uint256",
          "name": "pondAmount",
          "type": "uint256"
        }
      ],
      "name": "getCostForPond",
      "outputs": [
        {
          "internalType": "uint256",
          "name": "totalCost",
          "type": "uint256"
        },
        {
          "internalType": "uint256",
          "name": "floorPortion",
          "type": "uint256"
        },
        {
          "internalType": "uint256",
          "name": "spread",
          "type": "uint256"
        }
      ],
      "stateMutability": "view",
      "type": "function"
    },
    {
      "inputs": [],
      "name": "getCurrentPrice",
      "outputs": [
        {
          "internalType": "uint256",
          "name": "",
          "type": "uint256"
        }
      ],
      "stateMutability": "view",
      "type": "function"
    },
    {
      "inputs": [
        {
          "internalType": "address",
          "name": "user",
          "type": "address"
        }
      ],
      "name": "getDripDuration",
      "outputs": [
        {
          "internalType": "uint256",
          "name": "",
          "type": "uint256"
        }
      ],
      "stateMutability": "view",
      "type": "function"
    },
    {
      "inputs": [
        {
          "internalType": "uint256",
          "name": "wflrAmount",
          "type": "uint256"
        }
      ],
      "name": "getPondForWflr",
      "outputs": [
        {
          "internalType": "uint256",
          "name": "pondAmount",
          "type": "uint256"
        }
      ],
      "stateMutability": "view",
      "type": "function"
    },
    {
      "inputs": [],
      "name": "getTotalLiability",
      "outputs": [
        {
          "internalType": "uint256",
          "name": "",
          "type": "uint256"
        }
      ],
      "stateMutability": "view",
      "type": "function"
    },
    {
      "inputs": [
        {
          "internalType": "uint256",
          "name": "_dripDurationDays",
          "type": "uint256"
        },
        {
          "internalType": "address",
          "name": "_wflr",
          "type": "address"
        }
      ],
      "name": "initialize",
      "outputs": [],
      "stateMutability": "nonpayable",
      "type": "function"
    },
    {
      "inputs": [
        {
          "internalType": "address",
          "name": "",
          "type": "address"
        }
      ],
      "name": "isAuthorizedMinter",
      "outputs": [
        {
          "internalType": "bool",
          "name": "",
          "type": "bool"
        }
      ],
      "stateMutability": "view",
      "type": "function"
    },
    {
      "inputs": [],
      "name": "minPurchase",
      "outputs": [
        {
          "internalType": "uint256",
          "name": "",
          "type": "uint256"
        }
      ],
      "stateMutability": "view",
      "type": "function"
    },
    {
      "inputs": [
        {
          "internalType": "address",
          "name": "to",
          "type": "address"
        },
        {
          "internalType": "uint256",
          "name": "amount",
          "type": "uint256"
        }
      ],
      "name": "mint",
      "outputs": [],
      "stateMutability": "nonpayable",
      "type": "function"
    },
    {
      "inputs": [],
      "name": "name",
      "outputs": [
        {
          "internalType": "string",
          "name": "",
          "type": "string"
        }
      ],
      "stateMutability": "view",
      "type": "function"
    },
    {
      "inputs": [],
      "name": "owner",
      "outputs": [
        {
          "internalType": "address",
          "name": "",
          "type": "address"
        }
      ],
      "stateMutability": "view",
      "type": "function"
    },
    {
      "inputs": [],
      "name": "pause",
      "outputs": [],
      "stateMutability": "nonpayable",
      "type": "function"
    },
    {
      "inputs": [],
      "name": "paused",
      "outputs": [
        {
          "internalType": "bool",
          "name": "",
          "type": "bool"
        }
      ],
      "stateMutability": "view",
      "type": "function"
    },
    {
      "inputs": [],
      "name": "purchasesEnabled",
      "outputs": [
        {
          "internalType": "bool",
          "name": "",
          "type": "bool"
        }
      ],
      "stateMutability": "view",
      "type": "function"
    },
    {
      "inputs": [
        {
          "internalType": "address",
          "name": "",
          "type": "address"
        }
      ],
      "name": "redemptions",
      "outputs": [
        {
          "internalType": "uint256",
          "name": "totalOwed",
          "type": "uint256"
        },
        {
          "internalType": "uint256",
          "name": "totalClaimed",
          "type": "uint256"
        },
        {
          "internalType": "uint256",
          "name": "dripEndTime",
          "type": "uint256"
        },
        {
          "internalType": "uint256",
          "name": "dripStartTime",
          "type": "uint256"
        }
      ],
      "stateMutability": "view",
      "type": "function"
    },
    {
      "inputs": [],
      "name": "renounceOwnership",
      "outputs": [],
      "stateMutability": "nonpayable",
      "type": "function"
    },
    {
      "inputs": [
        {
          "internalType": "address",
          "name": "minter",
          "type": "address"
        },
        {
          "internalType": "bool",
          "name": "authorized",
          "type": "bool"
        }
      ],
      "name": "setAuthorizedMinter",
      "outputs": [],
      "stateMutability": "nonpayable",
      "type": "function"
    },
    {
      "inputs": [
        {
          "internalType": "address",
          "name": "_buffer",
          "type": "address"
        }
      ],
      "name": "setBuffer",
      "outputs": [],
      "stateMutability": "nonpayable",
      "type": "function"
    },
    {
      "inputs": [
        {
          "internalType": "uint256",
          "name": "_fixedDays",
          "type": "uint256"
        },
        {
          "internalType": "uint256",
          "name": "_minDays",
          "type": "uint256"
        },
        {
          "internalType": "uint256",
          "name": "_maxDays",
          "type": "uint256"
        }
      ],
      "name": "setDripDurations",
      "outputs": [],
      "stateMutability": "nonpayable",
      "type": "function"
    },
    {
      "inputs": [
        {
          "internalType": "uint256",
          "name": "_minPurchase",
          "type": "uint256"
        }
      ],
      "name": "setMinPurchase",
      "outputs": [],
      "stateMutability": "nonpayable",
      "type": "function"
    },
    {
      "inputs": [
        {
          "internalType": "bool",
          "name": "_enabled",
          "type": "bool"
        }
      ],
      "name": "setPurchasesEnabled",
      "outputs": [],
      "stateMutability": "nonpayable",
      "type": "function"
    },
    {
      "inputs": [
        {
          "internalType": "address",
          "name": "_toadzStake",
          "type": "address"
        }
      ],
      "name": "setToadzStake",
      "outputs": [],
      "stateMutability": "nonpayable",
      "type": "function"
    },
    {
      "inputs": [
        {
          "internalType": "address",
          "name": "user",
          "type": "address"
        },
        {
          "internalType": "bool",
          "name": "_wasStaked",
          "type": "bool"
        }
      ],
      "name": "setWasStaked",
      "outputs": [],
      "stateMutability": "nonpayable",
      "type": "function"
    },
    {
      "inputs": [
        {
          "internalType": "address",
          "name": "_wflr",
          "type": "address"
        }
      ],
      "name": "setWflr",
      "outputs": [],
      "stateMutability": "nonpayable",
      "type": "function"
    },
    {
      "inputs": [
        {
          "internalType": "address",
          "name": "_zap",
          "type": "address"
        }
      ],
      "name": "setZapContract",
      "outputs": [],
      "stateMutability": "nonpayable",
      "type": "function"
    },
    {
      "inputs": [
        {
          "internalType": "address",
          "name": "user",
          "type": "address"
        },
        {
          "internalType": "uint256",
          "name": "amount",
          "type": "uint256"
        }
      ],
      "name": "stake",
      "outputs": [],
      "stateMutability": "nonpayable",
      "type": "function"
    },
    {
      "inputs": [
        {
          "internalType": "address",
          "name": "",
          "type": "address"
        }
      ],
      "name": "stakedPond",
      "outputs": [
        {
          "internalType": "uint256",
          "name": "",
          "type": "uint256"
        }
      ],
      "stateMutability": "view",
      "type": "function"
    },
    {
      "inputs": [
        {
          "internalType": "uint256",
          "name": "pondAmount",
          "type": "uint256"
        }
      ],
      "name": "startRedemption",
      "outputs": [],
      "stateMutability": "nonpayable",
      "type": "function"
    },
    {
      "inputs": [],
      "name": "symbol",
      "outputs": [
        {
          "internalType": "string",
          "name": "",
          "type": "string"
        }
      ],
      "stateMutability": "view",
      "type": "function"
    },
    {
      "inputs": [],
      "name": "toadzStake",
      "outputs": [
        {
          "internalType": "address",
          "name": "",
          "type": "address"
        }
      ],
      "stateMutability": "view",
      "type": "function"
    },
    {
      "inputs": [
        {
          "internalType": "address",
          "name": "",
          "type": "address"
        }
      ],
      "name": "totalPondBought",
      "outputs": [
        {
          "internalType": "uint256",
          "name": "",
          "type": "uint256"
        }
      ],
      "stateMutability": "view",
      "type": "function"
    },
    {
      "inputs": [
        {
          "internalType": "address",
          "name": "",
          "type": "address"
        }
      ],
      "name": "totalPondCost",
      "outputs": [
        {
          "internalType": "uint256",
          "name": "",
          "type": "uint256"
        }
      ],
      "stateMutability": "view",
      "type": "function"
    },
    {
      "inputs": [],
      "name": "totalSupply",
      "outputs": [
        {
          "internalType": "uint256",
          "name": "",
          "type": "uint256"
        }
      ],
      "stateMutability": "view",
      "type": "function"
    },
    {
      "inputs": [
        {
          "internalType": "address",
          "name": "",
          "type": "address"
        },
        {
          "internalType": "uint256",
          "name": "",
          "type": "uint256"
        }
      ],
      "name": "transfer",
      "outputs": [
        {
          "internalType": "bool",
          "name": "",
          "type": "bool"
        }
      ],
      "stateMutability": "pure",
      "type": "function"
    },
    {
      "inputs": [
        {
          "internalType": "address",
          "name": "",
          "type": "address"
        },
        {
          "internalType": "address",
          "name": "",
          "type": "address"
        },
        {
          "internalType": "uint256",
          "name": "",
          "type": "uint256"
        }
      ],
      "name": "transferFrom",
      "outputs": [
        {
          "internalType": "bool",
          "name": "",
          "type": "bool"
        }
      ],
      "stateMutability": "pure",
      "type": "function"
    },
    {
      "inputs": [
        {
          "internalType": "address",
          "name": "newOwner",
          "type": "address"
        }
      ],
      "name": "transferOwnership",
      "outputs": [],
      "stateMutability": "nonpayable",
      "type": "function"
    },
    {
      "inputs": [],
      "name": "unpause",
      "outputs": [],
      "stateMutability": "nonpayable",
      "type": "function"
    },
    {
      "inputs": [
        {
          "internalType": "address",
          "name": "user",
          "type": "address"
        },
        {
          "internalType": "uint256",
          "name": "amount",
          "type": "uint256"
        }
      ],
      "name": "unstake",
      "outputs": [],
      "stateMutability": "nonpayable",
      "type": "function"
    },
    {
      "inputs": [
        {
          "internalType": "address",
          "name": "",
          "type": "address"
        }
      ],
      "name": "wasStaked",
      "outputs": [
        {
          "internalType": "bool",
          "name": "",
          "type": "bool"
        }
      ],
      "stateMutability": "view",
      "type": "function"
    },
    {
      "inputs": [],
      "name": "wflr",
      "outputs": [
        {
          "internalType": "contract IERC20",
          "name": "",
          "type": "address"
        }
      ],
      "stateMutability": "view",
      "type": "function"
    },
    {
      "inputs": [],
      "name": "zapContract",
      "outputs": [
        {
          "internalType": "address",
          "name": "",
          "type": "address"
        }
      ],
      "stateMutability": "view",
      "type": "function"
    },
    {
      "stateMutability": "payable",
      "type": "receive"
    }
  ],
  "bytecode": "0x60806040523480156200001157600080fd5b506200001c62000022565b620000e3565b600054610100900460ff16156200008f5760405162461bcd60e51b815260206004820152602760248201527f496e697469616c697a61626c653a20636f6e747261637420697320696e697469604482015266616c697a696e6760c81b606482015260840160405180910390fd5b60005460ff90811614620000e1576000805460ff191660ff9081179091556040519081527f7f26b83ff96e1f2b6a682f133852f6798a09c465da95921460cefb38474024989060200160405180910390a15b565b6137a180620000f36000396000f3fe6080604052600436106103d25760003560e01c8063715018a6116101fd578063a9059cbb11610118578063e842b319116100ab578063edaafe201161007a578063edaafe2014610b7e578063f1ef14b214610b9e578063f2fde38b14610bb3578063f5a907c114610bd3578063fcaa873714610be857600080fd5b8063e842b31914610b13578063e95c41c314610b29578063eb91d37e14610b49578063ed58bad814610b5e57600080fd5b8063c2a672e0116100e7578063c2a672e014610a93578063d96a094a14610ab3578063da35a26f14610ad3578063e8307d0014610af357600080fd5b8063a9059cbb14610460578063adc9772e14610a33578063ae0c303914610a53578063b2a09dbf14610a7357600080fd5b80639ab83a4111610190578063a17ede581161015f578063a17ede58146109c1578063a3a8573a146109d7578063a5cdb00c146109f7578063a71f48a414610a1757600080fd5b80639ab83a411461090a5780639bc3f2691461092a5780639dc29fac1461098c578063a16ba4e0146109ac57600080fd5b80638da5cb5b116101cc5780638da5cb5b1461088a5780639122d310146108a85780639395b649146108d557806395d89b41146108f557600080fd5b8063715018a614610810578063842392c2146108255780638456cb591461085557806386f5f0a21461086a57600080fd5b80633f4ba83a116102ed5780635c975abb1161028057806369a89b0d1161024f57806369a89b0d146107895780636c24a76f146107a95780636d25d802146107c957806370a08231146107e357600080fd5b80635c975abb1461071c578063607653321461073457806361d2f4841461075457806367e2ba3f1461077457600080fd5b8063468c493a116102bc578063468c493a146106965780634d52f8f6146106b657806350b728bb146106cc57806355ec237a146106ec57600080fd5b80633f4ba83a1461061457806340b2ddbf1461062957806340c10f19146106495780634670d5871461066957600080fd5b8063289ede311161036557806338b0ea851161033457806338b0ea851461058d5780633944fc8e146105ad5780633ad95417146105c75780633d86e61a146105f457600080fd5b8063289ede31146105075780632e0f26251461054257806333b5b62e1461055757806337095edb1461056d57600080fd5b8063095ea7b3116103a1578063095ea7b31461046057806318160ddd1461049057806323b872dd146104b45780632549dad9146104cf57600080fd5b806304219760146103de578063059057911461040057806306fdde031461042057806307eb21351461044b57600080fd5b366103d957005b600080fd5b3480156103ea57600080fd5b506103fe6103f936600461328a565b610c08565b005b34801561040c57600080fd5b506103fe61041b3660046132c3565b610c23565b34801561042c57600080fd5b50610435610fa4565b60405161044291906132ef565b60405180910390f35b34801561045757600080fd5b506103fe611032565b34801561046c57600080fd5b5061048061047b36600461333e565b6110c1565b6040519015158152602001610442565b34801561049c57600080fd5b506104a660ce5481565b604051908152602001610442565b3480156104c057600080fd5b5061048061047b366004613368565b3480156104db57600080fd5b5060db546104ef906001600160a01b031681565b6040516001600160a01b039091168152602001610442565b34801561051357600080fd5b506105276105223660046133a4565b611100565b60408051938452602084019290925290820152606001610442565b34801561054e57600080fd5b506104a6601281565b34801561056357600080fd5b506104a660d85481565b34801561057957600080fd5b506104a66105883660046133bd565b6111e4565b34801561059957600080fd5b506103fe6105a83660046133a4565b6112ab565b3480156105b957600080fd5b5060d9546104809060ff1681565b3480156105d357600080fd5b506104a66105e23660046133bd565b60d16020526000908152604090205481565b34801561060057600080fd5b506103fe61060f3660046133d8565b61159e565b34801561062057600080fd5b506103fe611628565b34801561063557600080fd5b506103fe61064436600461333e565b61163a565b34801561065557600080fd5b506103fe61066436600461333e565b61181e565b34801561067557600080fd5b506104a66106843660046133bd565b60d26020526000908152604090205481565b3480156106a257600080fd5b506104a66106b13660046133bd565b611892565b3480156106c257600080fd5b506104a660ca5481565b3480156106d857600080fd5b506104a66106e73660046133a4565b6119f4565b3480156106f857600080fd5b506104806107073660046133bd565b60d46020526000908152604090205460ff1681565b34801561072857600080fd5b5060975460ff16610480565b34801561074057600080fd5b506103fe61074f36600461333e565b611a8d565b34801561076057600080fd5b5060d5546104ef906001600160a01b031681565b34801561078057600080fd5b506103fe611ab1565b34801561079557600080fd5b506103fe6107a436600461340f565b611bd9565b3480156107b557600080fd5b506104a66107c43660046133bd565b611c16565b3480156107d557600080fd5b506104a66509184e72a00081565b3480156107ef57600080fd5b506104a66107fe3660046133bd565b60cf6020526000908152604090205481565b34801561081c57600080fd5b506103fe611c4a565b34801561083157600080fd5b506104806108403660046133bd565b60da6020526000908152604090205460ff1681565b34801561086157600080fd5b506103fe611c5c565b34801561087657600080fd5b506103fe61088536600461333e565b611c6c565b34801561089657600080fd5b506033546001600160a01b03166104ef565b3480156108b457600080fd5b506104a66108c33660046133bd565b60d06020526000908152604090205481565b3480156108e157600080fd5b506103fe6108f03660046133bd565b611c90565b34801561090157600080fd5b50610435611ce0565b34801561091657600080fd5b5060d7546104ef906001600160a01b031681565b34801561093657600080fd5b5061096c6109453660046133bd565b60d36020526000908152604090208054600182015460028301546003909301549192909184565b604080519485526020850193909352918301526060820152608001610442565b34801561099857600080fd5b506103fe6109a736600461333e565b611ced565b3480156109b857600080fd5b506103fe611d4c565b3480156109cd57600080fd5b506104a660cb5481565b3480156109e357600080fd5b506103fe6109f23660046132c3565b611f02565b348015610a0357600080fd5b506103fe610a123660046133bd565b6123ff565b348015610a2357600080fd5b506104a66706f05b59d3b2000081565b348015610a3f57600080fd5b506103fe610a4e36600461333e565b61244f565b348015610a5f57600080fd5b506103fe610a6e3660046133a4565b61256c565b348015610a7f57600080fd5b506104a6610a8e3660046133bd565b6125d5565b348015610a9f57600080fd5b506103fe610aae36600461333e565b61263d565b348015610abf57600080fd5b506103fe610ace3660046133a4565b612737565b348015610adf57600080fd5b506103fe610aee3660046132c3565b612bcb565b348015610aff57600080fd5b506103fe610b0e3660046133a4565b612d93565b348015610b1f57600080fd5b506104a660c95481565b348015610b3557600080fd5b506103fe610b443660046133bd565b612da0565b348015610b5557600080fd5b506104a6612df0565b348015610b6a57600080fd5b506103fe610b793660046133d8565b612e30565b348015610b8a57600080fd5b5060d6546104ef906001600160a01b031681565b348015610baa57600080fd5b506104a6612e63565b348015610bbf57600080fd5b506103fe610bce3660046133bd565b612e9b565b348015610bdf57600080fd5b506104a6603281565b348015610bf457600080fd5b506103fe610c033660046133bd565b612f11565b610c10612f3b565b60d9805460ff1916911515919091179055565b610c2b612f95565b610c33612fee565b60d5546001600160a01b03163314610c665760405162461bcd60e51b8152600401610c5d9061343b565b60405180910390fd5b60008211610ca45760405162461bcd60e51b815260206004820152600b60248201526a16995c9bc8185b5bdd5b9d60aa1b6044820152606401610c5d565b6000806000610cb285611100565b6001600160a01b038716600090815260cf6020526040812080549497509295509093508792610ce290849061347a565b925050819055508460ce6000828254610cfb919061347a565b90915550506001600160a01b038416600090815260d1602052604081208054859290610d2890849061347a565b90915550506001600160a01b038416600090815260d2602052604081208054879290610d5590849061347a565b909155505060d75460d65460405163a9059cbb60e01b81526001600160a01b0391821660048201526024810184905291169063a9059cbb906044016020604051808303816000875af1158015610daf573d6000803e3d6000fd5b505050506040513d601f19601f82011682018060405250810190610dd3919061348d565b610def5760405162461bcd60e51b8152600401610c5d906134aa565b60d65460405163b6b55f2560e01b8152600481018390526001600160a01b039091169063b6b55f2590602401600060405180830381600087803b158015610e3557600080fd5b505af1158015610e49573d6000803e3d6000fd5b505060d75460d55460405163a9059cbb60e01b81526001600160a01b039182166004820152602481018790529116925063a9059cbb91506044016020604051808303816000875af1158015610ea2573d6000803e3d6000fd5b505050506040513d601f19601f82011682018060405250810190610ec6919061348d565b610ee25760405162461bcd60e51b8152600401610c5d906134da565b60d5546040516311a8a0ed60e11b8152600481018490526001600160a01b039091169063235141da90602401600060405180830381600087803b158015610f2857600080fd5b505af1158015610f3c573d6000803e3d6000fd5b50506040805188815260208101879052908101859052606081018490526001600160a01b03871692507febba37ac928b00d5acc9631dea07443fead3cdd9adaf10c3e0d5db6f3df06e6a915060800160405180910390a2505050610fa06001606555565b5050565b60cc8054610fb190613509565b80601f0160208091040260200160405190810160405280929190818152602001828054610fdd90613509565b801561102a5780601f10610fff5761010080835404028352916020019161102a565b820191906000526020600020905b81548152906001019060200180831161100d57829003601f168201915b505050505081565b61103a612f3b565b600061104e6033546001600160a01b031690565b6001600160a01b03164760405160006040518083038185875af1925050503d8060008114611098576040519150601f19603f3d011682016040523d82523d6000602084013e61109d565b606091505b50509050806110be5760405162461bcd60e51b8152600401610c5d90613543565b50565b60405162461bcd60e51b81526020600482015260116024820152701413d391081a5cc81cdbdd5b189bdd5b99607a1b6044820152600090606401610c5d565b60008080670de0b6b3a764000061111f856706f05b59d3b2000061356c565b6111299190613583565b915060008460ce5461113b919061347a565b60ce549091506000611155670de0b6b3a764000084613583565b611167670de0b6b3a764000085613583565b611171919061356c565b90506000611187670de0b6b3a764000084613583565b611199670de0b6b3a764000085613583565b6111a3919061356c565b905060026111b182846135a5565b6111c1906509184e72a00061356c565b6111cb9190613583565b94506111d7858761347a565b9650505050509193909250565b6001600160a01b038116600090815260d3602052604081208054820361120d5750600092915050565b80600201544210611230576001810154815461122991906135a5565b9392505050565b600081600301544261124291906135a5565b905060008260030154836002015461125a91906135a5565b905060008183856000015461126f919061356c565b6112799190613583565b9050836001015481116112925750600095945050505050565b60018401546112a190826135a5565b9695505050505050565b6112b3612f95565b6112bb612fee565b60006112c633611c16565b9050818110156113185760405162461bcd60e51b815260206004820152601a60248201527f496e73756666696369656e7420756e7374616b656420504f4e440000000000006044820152606401610c5d565b600082116113565760405162461bcd60e51b815260206004820152600b60248201526a16995c9bc8185b5bdd5b9d60aa1b6044820152606401610c5d565b6000611361336125d5565b9050600081116113a95760405162461bcd60e51b81526020600482015260136024820152724e6f20707572636861736520686973746f727960681b6044820152606401610c5d565b600068056bc75e2d6310000060326113c1868561356c565b6113cb919061356c565b6113d59190613583565b33600090815260cf60205260408120805492935086929091906113f99084906135a5565b925050819055508360ce600082825461141291906135a5565b909155506000905061142333611892565b33600090815260d36020526040902060018101548154929350909111156114ee5760018101548154600091611457916135a5565b905060004283600201541161146d57600061147d565b42836002015461147d91906135a5565b9050600061148b868461347a565b905060008161149a878961356c565b6114a4858761356c565b6114ae919061347a565b6114b89190613583565b90508185600101546114ca919061347a565b855542600386018190556114df90829061347a565b60028601555061151192505050565b82815560006001820155426003820181905561150b90839061347a565b60028201555b60405186815233907fc1ce69d43d094cd5342d48ae39e8b73193add361c1a6f5e3aed4f2f3cec87c519060200160405180910390a2600281015460408051888152602081018690529081019190915233907f9b0dab4c5e02610174f45cd8c6874288a6146afc42d7548166a00bd77122e3ee9060600160405180910390a250505050506110be6001606555565b60d5546001600160a01b031633146115c85760405162461bcd60e51b8152600401610c5d9061343b565b6001600160a01b038216600081815260d46020908152604091829020805460ff191685151590811790915591519182527fd3944feef79e2884402870f19d526e45798e34d02c4a61f4fadfbcb98d2b9dc591015b60405180910390a25050565b611630612f3b565b61163861303b565b565b6033546001600160a01b031633148061165d575060d5546001600160a01b031633145b80611677575033600090815260da602052604090205460ff165b6116b45760405162461bcd60e51b815260206004820152600e60248201526d139bdd08185d5d1a1bdc9a5e995960921b6044820152606401610c5d565b6001600160a01b038216600090815260cf60205260409020548111156117135760405162461bcd60e51b8152602060048201526014602482015273496e73756666696369656e742062616c616e636560601b6044820152606401610c5d565b6001600160a01b038216600090815260d060205260409020548111611765576001600160a01b038216600090815260d060205260408120805483929061175a9084906135a5565b9091555061179d9050565b6001600160a01b038216600090815260d060205260409020541561179d576001600160a01b038216600090815260d060205260408120555b6001600160a01b038216600090815260cf6020526040812080548392906117c59084906135a5565b925050819055508060ce60008282546117de91906135a5565b90915550506040518181526001600160a01b038316907fc1ce69d43d094cd5342d48ae39e8b73193add361c1a6f5e3aed4f2f3cec87c519060200161161c565b60d5546001600160a01b031633146118485760405162461bcd60e51b8152600401610c5d9061343b565b6001600160a01b038216600090815260cf60205260408120805483929061187090849061347a565b925050819055508060ce6000828254611889919061347a565b90915550505050565b6001600160a01b038116600090815260d4602052604081205460ff166118ba57505060c95490565b60d6546001600160a01b03166118d257505060cb5490565b60d75460d6546040516370a0823160e01b81526001600160a01b03918216600482015260009291909116906370a0823190602401602060405180830381865afa158015611923573d6000803e3d6000fd5b505050506040513d601f19601f8201168201806040525081019061194791906135b8565b90506000611953612e63565b90508060000361196857505060ca5492915050565b60008161197684606461356c565b6119809190613583565b90506064811061199657505060ca549392505050565b60006119a382600161347a565b60ca546119b190606461356c565b6119bb9190613583565b905060cb548111156119d457505060cb54949350505050565b60ca548110156119eb57505060ca54949350505050565b95945050505050565b600080806706f05b59d3b20000611a0c85600261356c565b611a1e90670de0b6b3a764000061356c565b611a289190613583565b90505b66038d7ea4c68000611a3d83836135a5565b1115611a865760006002611a51838561347a565b611a5b9190613583565b90506000611a6882611100565b50509050858111611a7b57819350611a7f565b8192505b5050611a2b565b5092915050565b611a95612f3b565b6001600160a01b03909116600090815260d06020526040902055565b611ab9612f3b565b60d7546040516370a0823160e01b81523060048201526000916001600160a01b0316906370a0823190602401602060405180830381865afa158015611b02573d6000803e3d6000fd5b505050506040513d601f19601f82011682018060405250810190611b2691906135b8565b60d7549091506001600160a01b031663a9059cbb611b4c6033546001600160a01b031690565b6040516001600160e01b031960e084901b1681526001600160a01b039091166004820152602481018490526044016020604051808303816000875af1158015611b99573d6000803e3d6000fd5b505050506040513d601f19601f82011682018060405250810190611bbd919061348d565b6110be5760405162461bcd60e51b8152600401610c5d90613543565b611be1612f3b565b611bee836201518061356c565b60c955611bfe826201518061356c565b60ca55611c0e816201518061356c565b60cb55505050565b6001600160a01b038116600090815260d0602090815260408083205460cf909252822054611c4491906135a5565b92915050565b611c52612f3b565b611638600061308d565b611c64612f3b565b6116386130df565b611c74612f3b565b6001600160a01b03909116600090815260cf6020526040902055565b611c98612f3b565b6001600160a01b038116611cbe5760405162461bcd60e51b8152600401610c5d906135d1565b60d580546001600160a01b0319166001600160a01b0392909216919091179055565b60cd8054610fb190613509565b6033546001600160a01b0316331480611677575060d5546001600160a01b031633146116b45760405162461bcd60e51b815260206004820152600e60248201526d139bdd08185d5d1a1bdc9a5e995960921b6044820152606401610c5d565b611d54612f95565b611d5c612fee565b6000611d67336111e4565b905060008111611dac5760405162461bcd60e51b815260206004820152601060248201526f4e6f7468696e6720746f20636c61696d60801b6044820152606401610c5d565b33600090815260d3602052604081206001018054839290611dce90849061347a565b909155505060d654604051630f08332f60e11b8152600481018390526001600160a01b0390911690631e10665e90602401600060405180830381600087803b158015611e1957600080fd5b505af1158015611e2d573d6000803e3d6000fd5b505060d75460405163a9059cbb60e01b8152336004820152602481018590526001600160a01b03909116925063a9059cbb91506044016020604051808303816000875af1158015611e82573d6000803e3d6000fd5b505050506040513d601f19601f82011682018060405250810190611ea6919061348d565b611ec25760405162461bcd60e51b8152600401610c5d90613543565b60405181815233907f205acb6266a72dcee37489ca52e143caa5789aed463de89e15336f32191a35019060200160405180910390a2506116386001606555565b611f0a612f95565b611f12612fee565b60db546001600160a01b03163314611f575760405162461bcd60e51b815260206004820152600860248201526704f6e6c79207a61760c41b6044820152606401610c5d565b60d95460ff16611f9e5760405162461bcd60e51b8152602060048201526012602482015271141d5c98da185cd95cc8191a5cd8589b195960721b6044820152606401610c5d565b60d854821015611fe05760405162461bcd60e51b815260206004820152600d60248201526c42656c6f77206d696e696d756d60981b6044820152606401610c5d565b6000611feb836119f4565b9050600081116120295760405162461bcd60e51b815260206004820152600960248201526816995c9bc81413d39160ba1b6044820152606401610c5d565b600080600061203784611100565b925092509250828610156120815760405162461bcd60e51b815260206004820152601160248201527024b739bab33334b1b4b2b73a102ba3262960791b6044820152606401610c5d565b60d7546040516323b872dd60e01b8152336004820152306024820152604481018590526001600160a01b03909116906323b872dd906064016020604051808303816000875af11580156120d8573d6000803e3d6000fd5b505050506040513d601f19601f820116820180604052508101906120fc919061348d565b6121185760405162461bcd60e51b8152600401610c5d90613543565b6001600160a01b038516600090815260cf60205260408120805486929061214090849061347a565b925050819055508360ce6000828254612159919061347a565b90915550506001600160a01b038516600090815260d160205260408120805485929061218690849061347a565b90915550506001600160a01b038516600090815260d26020526040812080548692906121b390849061347a565b909155505060d75460d65460405163a9059cbb60e01b81526001600160a01b0391821660048201526024810184905291169063a9059cbb906044016020604051808303816000875af115801561220d573d6000803e3d6000fd5b505050506040513d601f19601f82011682018060405250810190612231919061348d565b61224d5760405162461bcd60e51b8152600401610c5d906134aa565b60d65460405163b6b55f2560e01b8152600481018390526001600160a01b039091169063b6b55f2590602401600060405180830381600087803b15801561229357600080fd5b505af11580156122a7573d6000803e3d6000fd5b505060d75460d55460405163a9059cbb60e01b81526001600160a01b039182166004820152602481018790529116925063a9059cbb91506044016020604051808303816000875af1158015612300573d6000803e3d6000fd5b505050506040513d601f19601f82011682018060405250810190612324919061348d565b6123405760405162461bcd60e51b8152600401610c5d906134da565b60d5546040516311a8a0ed60e11b8152600481018490526001600160a01b039091169063235141da90602401600060405180830381600087803b15801561238657600080fd5b505af115801561239a573d6000803e3d6000fd5b50506040805187815260208101879052908101859052606081018490526001600160a01b03881692507febba37ac928b00d5acc9631dea07443fead3cdd9adaf10c3e0d5db6f3df06e6a915060800160405180910390a250505050610fa06001606555565b612407612f3b565b6001600160a01b03811661242d5760405162461bcd60e51b8152600401610c5d906135d1565b60d780546001600160a01b0319166001600160a01b0392909216919091179055565b60d5546001600160a01b031633146124795760405162461bcd60e51b8152600401610c5d9061343b565b6001600160a01b038216600090815260d0602052604090205461249d90829061347a565b6001600160a01b038316600090815260cf602052604090205410156125045760405162461bcd60e51b815260206004820152601a60248201527f496e73756666696369656e7420756e7374616b656420504f4e440000000000006044820152606401610c5d565b6001600160a01b038216600090815260d060205260408120805483929061252c90849061347a565b90915550506040518181526001600160a01b038316907f432402dc3fffe1935ca66771c7ec34caad054169d2423ece1db53c35054ca0309060200161161c565b612574612f3b565b60d754604051632e1a7d4d60e01b8152600481018390526001600160a01b0390911690632e1a7d4d90602401600060405180830381600087803b1580156125ba57600080fd5b505af11580156125ce573d6000803e3d6000fd5b5050505050565b6001600160a01b038116600090815260d2602052604081205481036125fc57506000919050565b6001600160a01b038216600090815260d2602090815260408083205460d19092529091205461263390670de0b6b3a764000061356c565b611c449190613583565b60d5546001600160a01b031633146126675760405162461bcd60e51b8152600401610c5d9061343b565b6001600160a01b038216600090815260d060205260409020548111156126cf5760405162461bcd60e51b815260206004820152601860248201527f496e73756666696369656e74207374616b656420504f4e4400000000000000006044820152606401610c5d565b6001600160a01b038216600090815260d06020526040812080548392906126f79084906135a5565b90915550506040518181526001600160a01b038316907f4b1d5a1b019fe8f94fd26ccebfe38dfd660a56a68a5213afb2f0743e536a24999060200161161c565b61273f612f95565b612747612fee565b60d95460ff1661278e5760405162461bcd60e51b8152602060048201526012602482015271141d5c98da185cd95cc8191a5cd8589b195960721b6044820152606401610c5d565b60d8548110156127d05760405162461bcd60e51b815260206004820152600d60248201526c42656c6f77206d696e696d756d60981b6044820152606401610c5d565b60006127db826119f4565b9050600081116128195760405162461bcd60e51b815260206004820152600960248201526816995c9bc81413d39160ba1b6044820152606401610c5d565b600080600061282784611100565b925092509250828510156128715760405162461bcd60e51b815260206004820152601160248201527024b739bab33334b1b4b2b73a102ba3262960791b6044820152606401610c5d565b60d7546040516323b872dd60e01b8152336004820152306024820152604481018590526001600160a01b03909116906323b872dd906064016020604051808303816000875af11580156128c8573d6000803e3d6000fd5b505050506040513d601f19601f820116820180604052508101906128ec919061348d565b6129085760405162461bcd60e51b8152600401610c5d90613543565b33600090815260cf60205260408120805486929061292790849061347a565b925050819055508360ce6000828254612940919061347a565b909155505033600090815260d160205260408120805485929061296490849061347a565b909155505033600090815260d260205260408120805486929061298890849061347a565b909155505060d75460d65460405163a9059cbb60e01b81526001600160a01b0391821660048201526024810184905291169063a9059cbb906044016020604051808303816000875af11580156129e2573d6000803e3d6000fd5b505050506040513d601f19601f82011682018060405250810190612a06919061348d565b612a225760405162461bcd60e51b8152600401610c5d906134aa565b60d65460405163b6b55f2560e01b8152600481018390526001600160a01b039091169063b6b55f2590602401600060405180830381600087803b158015612a6857600080fd5b505af1158015612a7c573d6000803e3d6000fd5b505060d75460d55460405163a9059cbb60e01b81526001600160a01b039182166004820152602481018790529116925063a9059cbb91506044016020604051808303816000875af1158015612ad5573d6000803e3d6000fd5b505050506040513d601f19601f82011682018060405250810190612af9919061348d565b612b155760405162461bcd60e51b8152600401610c5d906134da565b60d5546040516311a8a0ed60e11b8152600481018490526001600160a01b039091169063235141da90602401600060405180830381600087803b158015612b5b57600080fd5b505af1158015612b6f573d6000803e3d6000fd5b50506040805187815260208101879052908101859052606081018490523392507febba37ac928b00d5acc9631dea07443fead3cdd9adaf10c3e0d5db6f3df06e6a915060800160405180910390a2505050506110be6001606555565b600054610100900460ff1615808015612beb5750600054600160ff909116105b80612c055750303b158015612c05575060005460ff166001145b612c685760405162461bcd60e51b815260206004820152602e60248201527f496e697469616c697a61626c653a20636f6e747261637420697320616c72656160448201526d191e481a5b9a5d1a585b1a5e995960921b6064820152608401610c5d565b6000805460ff191660011790558015612c8b576000805461ff0019166101001790555b612c9361311c565b612c9b61314b565b612ca361317a565b6040805180820190915260048152631413d39160e21b602082015260cc90612ccb9082613660565b506040805180820190915260048152631413d39160e21b602082015260cd90612cf49082613660565b50612d02836201518061356c565b60c95562278d0060ca556301e1338060cb5560d780546001600160a01b0319166001600160a01b038416179055678ac7230489e8000060d85560d9805460ff191660011790558015612d8e576000805461ff0019169055604051600181527f7f26b83ff96e1f2b6a682f133852f6798a09c465da95921460cefb38474024989060200160405180910390a15b505050565b612d9b612f3b565b60d855565b612da8612f3b565b6001600160a01b038116612dce5760405162461bcd60e51b8152600401610c5d906135d1565b60d680546001600160a01b0319166001600160a01b0392909216919091179055565b6000670de0b6b3a764000060ce546509184e72a000612e0f919061356c565b612e199190613583565b612e2b906706f05b59d3b2000061347a565b905090565b612e38612f3b565b6001600160a01b0391909116600090815260da60205260409020805460ff1916911515919091179055565b600068056bc75e2d6310000060326706f05b59d3b2000060ce54612e87919061356c565b612e91919061356c565b612e2b9190613583565b612ea3612f3b565b6001600160a01b038116612f085760405162461bcd60e51b815260206004820152602660248201527f4f776e61626c653a206e6577206f776e657220697320746865207a65726f206160448201526564647265737360d01b6064820152608401610c5d565b6110be8161308d565b612f19612f3b565b60db80546001600160a01b0319166001600160a01b0392909216919091179055565b6033546001600160a01b031633146116385760405162461bcd60e51b815260206004820181905260248201527f4f776e61626c653a2063616c6c6572206973206e6f7420746865206f776e65726044820152606401610c5d565b600260655403612fe75760405162461bcd60e51b815260206004820152601f60248201527f5265656e7472616e637947756172643a207265656e7472616e742063616c6c006044820152606401610c5d565b6002606555565b60975460ff16156116385760405162461bcd60e51b815260206004820152601060248201526f14185d5cd8589b194e881c185d5cd95960821b6044820152606401610c5d565b6001606555565b6130436131a9565b6097805460ff191690557f5db9ee0a495bf2e6ff9c91a7834c1ba4fdd244a5e8aa4e537bd38aeae4b073aa335b6040516001600160a01b03909116815260200160405180910390a1565b603380546001600160a01b038381166001600160a01b0319831681179093556040519116919082907f8be0079c531659141344cd1fd0a4f28419497f9722a3daafe3b4186f6b6457e090600090a35050565b6130e7612fee565b6097805460ff191660011790557f62e78cea01bee320cd4e420270b5ea74000d11b0c9f74754ebdbfc544b05a2586130703390565b600054610100900460ff166131435760405162461bcd60e51b8152600401610c5d90613720565b6116386131f2565b600054610100900460ff166131725760405162461bcd60e51b8152600401610c5d90613720565b611638613222565b600054610100900460ff166131a15760405162461bcd60e51b8152600401610c5d90613720565b611638613249565b60975460ff166116385760405162461bcd60e51b815260206004820152601460248201527314185d5cd8589b194e881b9bdd081c185d5cd95960621b6044820152606401610c5d565b600054610100900460ff166132195760405162461bcd60e51b8152600401610c5d90613720565b6116383361308d565b600054610100900460ff166130345760405162461bcd60e51b8152600401610c5d90613720565b600054610100900460ff166132705760405162461bcd60e51b8152600401610c5d90613720565b6097805460ff19169055565b80151581146110be57600080fd5b60006020828403121561329c57600080fd5b81356112298161327c565b80356001600160a01b03811681146132be57600080fd5b919050565b600080604083850312156132d657600080fd5b823591506132e6602084016132a7565b90509250929050565b60006020808352835180602085015260005b8181101561331d57858101830151858201604001528201613301565b506000604082860101526040601f19601f8301168501019250505092915050565b6000806040838503121561335157600080fd5b61335a836132a7565b946020939093013593505050565b60008060006060848603121561337d57600080fd5b613386846132a7565b9250613394602085016132a7565b9150604084013590509250925092565b6000602082840312156133b657600080fd5b5035919050565b6000602082840312156133cf57600080fd5b611229826132a7565b600080604083850312156133eb57600080fd5b6133f4836132a7565b915060208301356134048161327c565b809150509250929050565b60008060006060848603121561342457600080fd5b505081359360208301359350604090920135919050565b6020808252600f908201526e4f6e6c7920546f61647a5374616b6560881b604082015260600190565b634e487b7160e01b600052601160045260246000fd5b80820180821115611c4457611c44613464565b60006020828403121561349f57600080fd5b81516112298161327c565b60208082526016908201527514dc1c995859081d1c985b9cd9995c8819985a5b195960521b604082015260600190565b602080825260159082015274119b1bdbdc881d1c985b9cd9995c8819985a5b1959605a1b604082015260600190565b600181811c9082168061351d57607f821691505b60208210810361353d57634e487b7160e01b600052602260045260246000fd5b50919050565b6020808252600f908201526e151c985b9cd9995c8819985a5b1959608a1b604082015260600190565b8082028115828204841417611c4457611c44613464565b6000826135a057634e487b7160e01b600052601260045260246000fd5b500490565b81810381811115611c4457611c44613464565b6000602082840312156135ca57600080fd5b5051919050565b6020808252600f908201526e496e76616c6964206164647265737360881b604082015260600190565b634e487b7160e01b600052604160045260246000fd5b601f821115612d8e576000816000526020600020601f850160051c810160208610156136395750805b601f850160051c820191505b8181101561365857828155600101613645565b505050505050565b815167ffffffffffffffff81111561367a5761367a6135fa565b61368e816136888454613509565b84613610565b602080601f8311600181146136c357600084156136ab5750858301515b600019600386901b1c1916600185901b178555613658565b600085815260208120601f198616915b828110156136f2578886015182559484019460019091019084016136d3565b50858210156137105787850151600019600388901b60f8161c191681555b5050505050600190811b01905550565b6020808252602b908201527f496e697469616c697a61626c653a20636f6e7472616374206973206e6f74206960408201526a6e697469616c697a696e6760a81b60608201526080019056fea264697066735822122036b028fc456bc401ed81eeb4e4763953a8facf418450985d18850ab928821cc864736f6c63430008180033",
  "linkReferences": {},
  "deployedLinkReferences": {}
}