{
  "_format": "hh-sol-artifact-1",
  "contractName": "BoostRegistry",
  "sourceName": "contracts/BoostRegistry.sol",
  "abi": [
    {
      "inputs": [],
      "stateMutability": "nonpayable",
      "type": "constructor"
    },
    {
      "anonymous": false,
      "inputs": [
        {
          "indexed": false,
          "internalType": "uint256",
          "name": "baseBoost",
          "type": "uint256"
        },
        {
          "indexed": false,
          "internalType": "uint256",
          "name": "logMultiplier",
          "type": "uint256"
        }
      ],
      "name": "BoostParamsUpdated",
      "type": "event"
    },
    {
      "anonymous": false,
      "inputs": [
        {
          "indexed": false,
          "internalType": "uint8",
          "name": "version",
          "type": "uint8"
        }
      ],
      "name": "Initialized",
      "type": "event"
    },
    {
      "anonymous": false,
      "inputs": [
        {
          "indexed": false,
          "internalType": "uint256",
          "name": "count",
          "type": "uint256"
        }
      ],
      "name": "ListingCountBatchUpdated",
      "type": "event"
    },
    {
      "anonymous": false,
      "inputs": [
        {
          "indexed": true,
          "internalType": "address",
          "name": "user",
          "type": "address"
        },
        {
          "indexed": false,
          "internalType": "uint256",
          "name": "newCount",
          "type": "uint256"
        }
      ],
      "name": "ListingCountUpdated",
      "type": "event"
    },
    {
      "anonymous": false,
      "inputs": [
        {
          "indexed": true,
          "internalType": "address",
          "name": "oracle",
          "type": "address"
        }
      ],
      "name": "OGVaultOracleSet",
      "type": "event"
    },
    {
      "anonymous": false,
      "inputs": [
        {
          "indexed": true,
          "internalType": "address",
          "name": "previousOwner",
          "type": "address"
        },
        {
          "indexed": true,
          "internalType": "address",
          "name": "newOwner",
          "type": "address"
        }
      ],
      "name": "OwnershipTransferred",
      "type": "event"
    },
    {
      "anonymous": false,
      "inputs": [
        {
          "indexed": false,
          "internalType": "address",
          "name": "account",
          "type": "address"
        }
      ],
      "name": "Paused",
      "type": "event"
    },
    {
      "anonymous": false,
      "inputs": [
        {
          "indexed": false,
          "internalType": "address",
          "name": "account",
          "type": "address"
        }
      ],
      "name": "Unpaused",
      "type": "event"
    },
    {
      "anonymous": false,
      "inputs": [
        {
          "indexed": true,
          "internalType": "address",
          "name": "updater",
          "type": "address"
        }
      ],
      "name": "UpdaterSet",
      "type": "event"
    },
    {
      "inputs": [],
      "name": "PRECISION",
      "outputs": [
        {
          "internalType": "uint256",
          "name": "",
          "type": "uint256"
        }
      ],
      "stateMutability": "view",
      "type": "function"
    },
    {
      "inputs": [],
      "name": "baseBoost",
      "outputs": [
        {
          "internalType": "uint256",
          "name": "",
          "type": "uint256"
        }
      ],
      "stateMutability": "view",
      "type": "function"
    },
    {
      "inputs": [
        {
          "internalType": "address",
          "name": "user",
          "type": "address"
        }
      ],
      "name": "emergencyResetListings",
      "outputs": [],
      "stateMutability": "nonpayable",
      "type": "function"
    },
    {
      "inputs": [
        {
          "internalType": "address[]",
          "name": "users",
          "type": "address[]"
        }
      ],
      "name": "emergencyResetListingsBatch",
      "outputs": [],
      "stateMutability": "nonpayable",
      "type": "function"
    },
    {
      "inputs": [
        {
          "internalType": "address",
          "name": "user",
          "type": "address"
        }
      ],
      "name": "getBoostBreakdown",
      "outputs": [
        {
          "internalType": "uint256",
          "name": "ogCount",
          "type": "uint256"
        },
        {
          "internalType": "uint256",
          "name": "listingCount",
          "type": "uint256"
        },
        {
          "internalType": "uint256",
          "name": "ogBoost",
          "type": "uint256"
        },
        {
          "internalType": "uint256",
          "name": "listingBoost",
          "type": "uint256"
        },
        {
          "internalType": "uint256",
          "name": "totalBoost",
          "type": "uint256"
        }
      ],
      "stateMutability": "view",
      "type": "function"
    },
    {
      "inputs": [
        {
          "internalType": "address",
          "name": "user",
          "type": "address"
        }
      ],
      "name": "getListingCount",
      "outputs": [
        {
          "internalType": "uint256",
          "name": "",
          "type": "uint256"
        }
      ],
      "stateMutability": "view",
      "type": "function"
    },
    {
      "inputs": [
        {
          "internalType": "address",
          "name": "user",
          "type": "address"
        }
      ],
      "name": "getUserBoost",
      "outputs": [
        {
          "internalType": "uint256",
          "name": "",
          "type": "uint256"
        }
      ],
      "stateMutability": "view",
      "type": "function"
    },
    {
      "inputs": [
        {
          "internalType": "address",
          "name": "_ogVaultOracle",
          "type": "address"
        },
        {
          "internalType": "address",
          "name": "_updater",
          "type": "address"
        }
      ],
      "name": "initialize",
      "outputs": [],
      "stateMutability": "nonpayable",
      "type": "function"
    },
    {
      "inputs": [
        {
          "internalType": "uint256",
          "name": "x",
          "type": "uint256"
        }
      ],
      "name": "log10",
      "outputs": [
        {
          "internalType": "uint256",
          "name": "",
          "type": "uint256"
        }
      ],
      "stateMutability": "pure",
      "type": "function"
    },
    {
      "inputs": [],
      "name": "logMultiplier",
      "outputs": [
        {
          "internalType": "uint256",
          "name": "",
          "type": "uint256"
        }
      ],
      "stateMutability": "view",
      "type": "function"
    },
    {
      "inputs": [],
      "name": "ogVaultOracle",
      "outputs": [
        {
          "internalType": "address",
          "name": "",
          "type": "address"
        }
      ],
      "stateMutability": "view",
      "type": "function"
    },
    {
      "inputs": [],
      "name": "owner",
      "outputs": [
        {
          "internalType": "address",
          "name": "",
          "type": "address"
        }
      ],
      "stateMutability": "view",
      "type": "function"
    },
    {
      "inputs": [],
      "name": "pause",
      "outputs": [],
      "stateMutability": "nonpayable",
      "type": "function"
    },
    {
      "inputs": [],
      "name": "paused",
      "outputs": [
        {
          "internalType": "bool",
          "name": "",
          "type": "bool"
        }
      ],
      "stateMutability": "view",
      "type": "function"
    },
    {
      "inputs": [
        {
          "internalType": "uint256",
          "name": "ogCount",
          "type": "uint256"
        },
        {
          "internalType": "uint256",
          "name": "listingCount",
          "type": "uint256"
        }
      ],
      "name": "previewBoost",
      "outputs": [
        {
          "internalType": "uint256",
          "name": "ogBoost",
          "type": "uint256"
        },
        {
          "internalType": "uint256",
          "name": "listingBoost",
          "type": "uint256"
        },
        {
          "internalType": "uint256",
          "name": "totalBoost",
          "type": "uint256"
        }
      ],
      "stateMutability": "view",
      "type": "function"
    },
    {
      "inputs": [],
      "name": "renounceOwnership",
      "outputs": [],
      "stateMutability": "nonpayable",
      "type": "function"
    },
    {
      "inputs": [
        {
          "internalType": "uint256",
          "name": "_baseBoost",
          "type": "uint256"
        },
        {
          "internalType": "uint256",
          "name": "_logMultiplier",
          "type": "uint256"
        }
      ],
      "name": "setBoostParams",
      "outputs": [],
      "stateMutability": "nonpayable",
      "type": "function"
    },
    {
      "inputs": [
        {
          "internalType": "address",
          "name": "user",
          "type": "address"
        },
        {
          "internalType": "uint256",
          "name": "count",
          "type": "uint256"
        }
      ],
      "name": "setListingCount",
      "outputs": [],
      "stateMutability": "nonpayable",
      "type": "function"
    },
    {
      "inputs": [
        {
          "internalType": "address[]",
          "name": "users",
          "type": "address[]"
        },
        {
          "internalType": "uint256[]",
          "name": "counts",
          "type": "uint256[]"
        }
      ],
      "name": "setListingCountBatch",
      "outputs": [],
      "stateMutability": "nonpayable",
      "type": "function"
    },
    {
      "inputs": [
        {
          "internalType": "address",
          "name": "_oracle",
          "type": "address"
        }
      ],
      "name": "setOGVaultOracle",
      "outputs": [],
      "stateMutability": "nonpayable",
      "type": "function"
    },
    {
      "inputs": [
        {
          "internalType": "address",
          "name": "_updater",
          "type": "address"
        }
      ],
      "name": "setUpdater",
      "outputs": [],
      "stateMutability": "nonpayable",
      "type": "function"
    },
    {
      "inputs": [
        {
          "internalType": "address",
          "name": "newOwner",
          "type": "address"
        }
      ],
      "name": "transferOwnership",
      "outputs": [],
      "stateMutability": "nonpayable",
      "type": "function"
    },
    {
      "inputs": [],
      "name": "unpause",
      "outputs": [],
      "stateMutability": "nonpayable",
      "type": "function"
    },
    {
      "inputs": [],
      "name": "updater",
      "outputs": [
        {
          "internalType": "address",
          "name": "",
          "type": "address"
        }
      ],
      "stateMutability": "view",
      "type": "function"
    },
    {
      "inputs": [
        {
          "internalType": "address",
          "name": "",
          "type": "address"
        }
      ],
      "name": "userListings",
      "outputs": [
        {
          "internalType": "uint256",
          "name": "",
          "type": "uint256"
        }
      ],
      "stateMutability": "view",
      "type": "function"
    }
  ],
  "bytecode": "0x608060405234801561001057600080fd5b5061001961001e565b6100dd565b600054610100900460ff161561008a5760405162461bcd60e51b815260206004820152602760248201527f496e697469616c697a61626c653a20636f6e747261637420697320696e697469604482015266616c697a696e6760c81b606482015260840160405180910390fd5b60005460ff908116146100db576000805460ff191660ff9081179091556040519081527f7f26b83ff96e1f2b6a682f133852f6798a09c465da95921460cefb38474024989060200160405180910390a15b565b611586806100ec6000396000f3fe608060405234801561001057600080fd5b50600436106101735760003560e01c80638da5cb5b116100de578063d781ab6c11610097578063ebb3a92c11610071578063ebb3a92c14610343578063ebdae5f914610371578063f2fde38b14610384578063f53650bc1461039757600080fd5b8063d781ab6c14610314578063d7b1f01f1461031d578063df034cd01461033057600080fd5b80638da5cb5b146102915780639581372b146102b65780639d54f419146102c9578063a28a6ca6146102dc578063a9b2c120146102e5578063aaf5eb681461030557600080fd5b80635ad048dd116101305780635ad048dd1461020a5780635c975abb1461021d57806362a4244214610233578063715018a614610246578063805aa3cf1461024e5780638456cb591461028957600080fd5b80631ee8b8bf146101785780633f4ba83a1461018d578063442b92c01461019557806348362997146101d1578063485cc955146101e45780635799f9a5146101f7575b600080fd5b61018b6101863660046111b5565b6103aa565b005b61018b6105b7565b6101be6101a336600461123d565b6001600160a01b031660009081526099602052604090205490565b6040519081526020015b60405180910390f35b61018b6101df36600461123d565b6105c9565b61018b6101f2366004611258565b61060f565b61018b61020536600461128b565b610786565b61018b6102183660046112b5565b610835565b60655460ff1660405190151581526020016101c8565b61018b6102413660046112f7565b6108ef565b61018b6109f8565b61026161025c36600461123d565b610a0a565b604080519586526020860194909452928401919091526060830152608082015260a0016101c8565b61018b610ae6565b6033546001600160a01b03165b6040516001600160a01b0390911681526020016101c8565b6101be6102c436600461123d565b610af6565b61018b6102d736600461123d565b610bcc565b6101be609b5481565b6101be6102f336600461123d565b60996020526000908152604090205481565b6101be670de0b6b3a764000081565b6101be609a5481565b61018b61032b36600461123d565b610c66565b60985461029e906001600160a01b031681565b6103566103513660046112f7565b610d00565b604080519384526020840192909252908201526060016101c8565b6101be61037f366004611319565b610d3a565b61018b61039236600461123d565b610e11565b60975461029e906001600160a01b031681565b6098546001600160a01b03163314806103cd57506033546001600160a01b031633145b61040f5760405162461bcd60e51b815260206004820152600e60248201526d139bdd08185d5d1a1bdc9a5e995960921b60448201526064015b60405180910390fd5b610417610e8a565b8281146104585760405162461bcd60e51b815260206004820152600f60248201526e098cadccee8d040dad2e6dac2e8c6d608b1b6044820152606401610406565b606483111561049d5760405162461bcd60e51b815260206004820152601160248201527009ac2f04062606040e0cae440c4c2e8c6d607b1b6044820152606401610406565b60005b8381101561057d578282828181106104ba576104ba611332565b90506020020135609960008787858181106104d7576104d7611332565b90506020020160208101906104ec919061123d565b6001600160a01b0316815260208101919091526040016000205584848281811061051857610518611332565b905060200201602081019061052d919061123d565b6001600160a01b031660008051602061153183398151915284848481811061055757610557611332565b9050602002013560405161056d91815260200190565b60405180910390a26001016104a0565b506040518381527fc8789f52a7cfae7de09d85085232f178104e5f13b4558b242f9db84aaf92915a9060200160405180910390a150505050565b6105bf610ed0565b6105c7610f2a565b565b6105d1610ed0565b6001600160a01b038116600081815260996020908152604080832083905551918252600080516020611531833981519152910160405180910390a250565b600054610100900460ff161580801561062f5750600054600160ff909116105b806106495750303b158015610649575060005460ff166001145b6106ac5760405162461bcd60e51b815260206004820152602e60248201527f496e697469616c697a61626c653a20636f6e747261637420697320616c72656160448201526d191e481a5b9a5d1a585b1a5e995960921b6064820152608401610406565b6000805460ff1916600117905580156106cf576000805461ff0019166101001790555b6106d7610f7c565b6106df610fab565b609780546001600160a01b038086166001600160a01b0319928316179092556098805492851692909116919091179055610722600a670de0b6b3a764000061135e565b609a556107386002670de0b6b3a764000061135e565b609b558015610781576000805461ff0019169055604051600181527f7f26b83ff96e1f2b6a682f133852f6798a09c465da95921460cefb38474024989060200160405180910390a15b505050565b6098546001600160a01b03163314806107a957506033546001600160a01b031633145b6107e65760405162461bcd60e51b815260206004820152600e60248201526d139bdd08185d5d1a1bdc9a5e995960921b6044820152606401610406565b6107ee610e8a565b6001600160a01b0382166000818152609960205260409081902083905551600080516020611531833981519152906108299084815260200190565b60405180910390a25050565b61083d610ed0565b60005b818110156107815760006099600085858581811061086057610860611332565b9050602002016020810190610875919061123d565b6001600160a01b031681526020810191909152604001600020558282828181106108a1576108a1611332565b90506020020160208101906108b6919061123d565b6001600160a01b031660008051602061153183398151915260006040516108df91815260200190565b60405180910390a2600101610840565b6108f7610ed0565b670de0b6b3a764000082111561094f5760405162461bcd60e51b815260206004820152601a60248201527f4261736520626f6f7374206d757374206265203c3d20313030250000000000006044820152606401610406565b610962670de0b6b3a76400006002611380565b8111156109b15760405162461bcd60e51b815260206004820152601960248201527f4d756c7469706c696572206d757374206265203c3d20322e30000000000000006044820152606401610406565b609a829055609b81905560408051838152602081018390527f484bf4d9c66f47045fef84815c5eb92f8d953fb6c5f7657b40cd7940499238cc910160405180910390a15050565b610a00610ed0565b6105c76000610fda565b60975460009081908190819081906001600160a01b031615610a945760975460405163043c53e960e31b81526001600160a01b038881166004830152909116906321e29f4890602401602060405180830381865afa925050508015610a8c575060408051601f3d908101601f19168201909252610a899181019061139d565b60015b15610a945794505b6001600160a01b0386166000908152609960205260409020549350610ab88561102c565b92506002610ac58561102c565b610acf919061135e565b9150610adb82846113b6565b905091939590929450565b610aee610ed0565b6105c7611080565b60975460009081906001600160a01b031615610b7a5760975460405163043c53e960e31b81526001600160a01b038581166004830152909116906321e29f4890602401602060405180830381865afa925050508015610b72575060408051601f3d908101601f19168201909252610b6f9181019061139d565b60015b15610b7a5790505b6000610b858261102c565b6001600160a01b0385166000908152609960205260408120549192506002610bac8361102c565b610bb6919061135e565b9050610bc281846113b6565b9695505050505050565b610bd4610ed0565b6001600160a01b038116610c1c5760405162461bcd60e51b815260206004820152600f60248201526e496e76616c6964206164647265737360881b6044820152606401610406565b609880546001600160a01b0319166001600160a01b0383169081179091556040517f5a39b8d3fd7361f3c5173afba233b7f1530567d03f9dfb0a2ca414960f08541d90600090a250565b610c6e610ed0565b6001600160a01b038116610cb65760405162461bcd60e51b815260206004820152600f60248201526e496e76616c6964206164647265737360881b6044820152606401610406565b609780546001600160a01b0319166001600160a01b0383169081179091556040517f6d97be4962842296cfe735ec9054209b56a29342087fe89363905923c22b5be090600090a250565b6000806000610d0e8561102c565b92506002610d1b8561102c565b610d25919061135e565b9150610d3182846113b6565b90509250925092565b600060018211610d4c57506000919050565b6000825b600a8110610d7757610d63600a8261135e565b905081610d6f816113c9565b925050610d50565b6000610d8483600a6114c6565b90506000610d938460016113b6565b610d9e90600a6114c6565b905060008287118015610db057508282115b15610de957610dbf83836114d2565b670de0b6b3a7640000610dd2858a6114d2565b610ddc9190611380565b610de6919061135e565b90505b80610dfc670de0b6b3a764000087611380565b610e0691906113b6565b979650505050505050565b610e19610ed0565b6001600160a01b038116610e7e5760405162461bcd60e51b815260206004820152602660248201527f4f776e61626c653a206e6577206f776e657220697320746865207a65726f206160448201526564647265737360d01b6064820152608401610406565b610e8781610fda565b50565b60655460ff16156105c75760405162461bcd60e51b815260206004820152601060248201526f14185d5cd8589b194e881c185d5cd95960821b6044820152606401610406565b6033546001600160a01b031633146105c75760405162461bcd60e51b815260206004820181905260248201527f4f776e61626c653a2063616c6c6572206973206e6f7420746865206f776e65726044820152606401610406565b610f326110bd565b6065805460ff191690557f5db9ee0a495bf2e6ff9c91a7834c1ba4fdd244a5e8aa4e537bd38aeae4b073aa335b6040516001600160a01b03909116815260200160405180910390a1565b600054610100900460ff16610fa35760405162461bcd60e51b8152600401610406906114e5565b6105c7611106565b600054610100900460ff16610fd25760405162461bcd60e51b8152600401610406906114e5565b6105c7611136565b603380546001600160a01b038381166001600160a01b0319831681179093556040519116919082907f8be0079c531659141344cd1fd0a4f28419497f9722a3daafe3b4186f6b6457e090600090a35050565b60008160000361103e57506000919050565b600061104983610d3a565b9050670de0b6b3a7640000609b54826110629190611380565b61106c919061135e565b609a5461107991906113b6565b9392505050565b611088610e8a565b6065805460ff191660011790557f62e78cea01bee320cd4e420270b5ea74000d11b0c9f74754ebdbfc544b05a258610f5f3390565b60655460ff166105c75760405162461bcd60e51b815260206004820152601460248201527314185d5cd8589b194e881b9bdd081c185d5cd95960621b6044820152606401610406565b600054610100900460ff1661112d5760405162461bcd60e51b8152600401610406906114e5565b6105c733610fda565b600054610100900460ff1661115d5760405162461bcd60e51b8152600401610406906114e5565b6065805460ff19169055565b60008083601f84011261117b57600080fd5b50813567ffffffffffffffff81111561119357600080fd5b6020830191508360208260051b85010111156111ae57600080fd5b9250929050565b600080600080604085870312156111cb57600080fd5b843567ffffffffffffffff808211156111e357600080fd5b6111ef88838901611169565b9096509450602087013591508082111561120857600080fd5b5061121587828801611169565b95989497509550505050565b80356001600160a01b038116811461123857600080fd5b919050565b60006020828403121561124f57600080fd5b61107982611221565b6000806040838503121561126b57600080fd5b61127483611221565b915061128260208401611221565b90509250929050565b6000806040838503121561129e57600080fd5b6112a783611221565b946020939093013593505050565b600080602083850312156112c857600080fd5b823567ffffffffffffffff8111156112df57600080fd5b6112eb85828601611169565b90969095509350505050565b6000806040838503121561130a57600080fd5b50508035926020909101359150565b60006020828403121561132b57600080fd5b5035919050565b634e487b7160e01b600052603260045260246000fd5b634e487b7160e01b600052601160045260246000fd5b60008261137b57634e487b7160e01b600052601260045260246000fd5b500490565b808202811582820484141761139757611397611348565b92915050565b6000602082840312156113af57600080fd5b5051919050565b8082018082111561139757611397611348565b6000600182016113db576113db611348565b5060010190565b600181815b8085111561141d57816000190482111561140357611403611348565b8085161561141057918102915b93841c93908002906113e7565b509250929050565b60008261143457506001611397565b8161144157506000611397565b816001811461145757600281146114615761147d565b6001915050611397565b60ff84111561147257611472611348565b50506001821b611397565b5060208310610133831016604e8410600b84101617156114a0575081810a611397565b6114aa83836113e2565b80600019048211156114be576114be611348565b029392505050565b60006110798383611425565b8181038181111561139757611397611348565b6020808252602b908201527f496e697469616c697a61626c653a20636f6e7472616374206973206e6f74206960408201526a6e697469616c697a696e6760a81b60608201526080019056fec1adfd4529d0f919e3ab1482afb9870cf234ce80bb997efb9944439f7272b973a2646970667358221220d24035b0d534447e322a1bba74e48afbfe051a1d0d1b75913568fb06280585cd64736f6c63430008180033",
  "linkReferences": {},
  "deployedLinkReferences": {}
}