{
  "_format": "hh-sol-artifact-1",
  "contractName": "FToadz",
  "sourceName": "contracts/FToadz.sol",
  "abi": [
    {
      "inputs": [],
      "stateMutability": "nonpayable",
      "type": "constructor"
    },
    {
      "anonymous": false,
      "inputs": [
        {
          "indexed": true,
          "internalType": "address",
          "name": "to",
          "type": "address"
        },
        {
          "indexed": false,
          "internalType": "uint256[]",
          "name": "tokenIds",
          "type": "uint256[]"
        }
      ],
      "name": "AdminTransfer",
      "type": "event"
    },
    {
      "anonymous": false,
      "inputs": [
        {
          "indexed": true,
          "internalType": "address",
          "name": "owner",
          "type": "address"
        },
        {
          "indexed": true,
          "internalType": "address",
          "name": "approved",
          "type": "address"
        },
        {
          "indexed": true,
          "internalType": "uint256",
          "name": "tokenId",
          "type": "uint256"
        }
      ],
      "name": "Approval",
      "type": "event"
    },
    {
      "anonymous": false,
      "inputs": [
        {
          "indexed": true,
          "internalType": "address",
          "name": "owner",
          "type": "address"
        },
        {
          "indexed": true,
          "internalType": "address",
          "name": "operator",
          "type": "address"
        },
        {
          "indexed": false,
          "internalType": "bool",
          "name": "approved",
          "type": "bool"
        }
      ],
      "name": "ApprovalForAll",
      "type": "event"
    },
    {
      "anonymous": false,
      "inputs": [
        {
          "indexed": false,
          "internalType": "string",
          "name": "uri",
          "type": "string"
        }
      ],
      "name": "BaseURISet",
      "type": "event"
    },
    {
      "anonymous": false,
      "inputs": [
        {
          "indexed": true,
          "internalType": "address",
          "name": "user",
          "type": "address"
        },
        {
          "indexed": false,
          "internalType": "uint256",
          "name": "amount",
          "type": "uint256"
        },
        {
          "indexed": false,
          "internalType": "uint256",
          "name": "fromId",
          "type": "uint256"
        },
        {
          "indexed": false,
          "internalType": "uint256",
          "name": "toId",
          "type": "uint256"
        }
      ],
      "name": "Claimed",
      "type": "event"
    },
    {
      "anonymous": false,
      "inputs": [
        {
          "indexed": false,
          "internalType": "uint8",
          "name": "version",
          "type": "uint8"
        }
      ],
      "name": "Initialized",
      "type": "event"
    },
    {
      "anonymous": false,
      "inputs": [
        {
          "indexed": false,
          "internalType": "address",
          "name": "oracle",
          "type": "address"
        }
      ],
      "name": "OracleSet",
      "type": "event"
    },
    {
      "anonymous": false,
      "inputs": [
        {
          "indexed": true,
          "internalType": "address",
          "name": "previousOwner",
          "type": "address"
        },
        {
          "indexed": true,
          "internalType": "address",
          "name": "newOwner",
          "type": "address"
        }
      ],
      "name": "OwnershipTransferred",
      "type": "event"
    },
    {
      "anonymous": false,
      "inputs": [
        {
          "indexed": false,
          "internalType": "address",
          "name": "account",
          "type": "address"
        }
      ],
      "name": "Paused",
      "type": "event"
    },
    {
      "anonymous": false,
      "inputs": [
        {
          "indexed": true,
          "internalType": "address",
          "name": "user",
          "type": "address"
        },
        {
          "indexed": false,
          "internalType": "uint256",
          "name": "allowance",
          "type": "uint256"
        }
      ],
      "name": "StuckUserAllowanceSet",
      "type": "event"
    },
    {
      "anonymous": false,
      "inputs": [
        {
          "indexed": true,
          "internalType": "address",
          "name": "user",
          "type": "address"
        },
        {
          "indexed": false,
          "internalType": "uint256",
          "name": "amount",
          "type": "uint256"
        }
      ],
      "name": "StuckUserClaimed",
      "type": "event"
    },
    {
      "anonymous": false,
      "inputs": [
        {
          "indexed": true,
          "internalType": "address",
          "name": "from",
          "type": "address"
        },
        {
          "indexed": true,
          "internalType": "address",
          "name": "to",
          "type": "address"
        },
        {
          "indexed": true,
          "internalType": "uint256",
          "name": "tokenId",
          "type": "uint256"
        }
      ],
      "name": "Transfer",
      "type": "event"
    },
    {
      "anonymous": false,
      "inputs": [
        {
          "indexed": false,
          "internalType": "address",
          "name": "account",
          "type": "address"
        }
      ],
      "name": "Unpaused",
      "type": "event"
    },
    {
      "inputs": [],
      "name": "FTOADZ_PER_OG",
      "outputs": [
        {
          "internalType": "uint256",
          "name": "",
          "type": "uint256"
        }
      ],
      "stateMutability": "view",
      "type": "function"
    },
    {
      "inputs": [],
      "name": "MAX_BATCH_SIZE",
      "outputs": [
        {
          "internalType": "uint256",
          "name": "",
          "type": "uint256"
        }
      ],
      "stateMutability": "view",
      "type": "function"
    },
    {
      "inputs": [],
      "name": "MAX_SUPPLY",
      "outputs": [
        {
          "internalType": "uint256",
          "name": "",
          "type": "uint256"
        }
      ],
      "stateMutability": "view",
      "type": "function"
    },
    {
      "inputs": [
        {
          "internalType": "address",
          "name": "user",
          "type": "address"
        },
        {
          "internalType": "uint256",
          "name": "newAmount",
          "type": "uint256"
        }
      ],
      "name": "adjustClaimed",
      "outputs": [],
      "stateMutability": "nonpayable",
      "type": "function"
    },
    {
      "inputs": [
        {
          "internalType": "address",
          "name": "to",
          "type": "address"
        },
        {
          "internalType": "uint256",
          "name": "amount",
          "type": "uint256"
        }
      ],
      "name": "adminMint",
      "outputs": [],
      "stateMutability": "nonpayable",
      "type": "function"
    },
    {
      "inputs": [
        {
          "internalType": "address",
          "name": "to",
          "type": "address"
        },
        {
          "internalType": "uint256",
          "name": "tokenId",
          "type": "uint256"
        }
      ],
      "name": "approve",
      "outputs": [],
      "stateMutability": "nonpayable",
      "type": "function"
    },
    {
      "inputs": [
        {
          "internalType": "address",
          "name": "owner",
          "type": "address"
        }
      ],
      "name": "balanceOf",
      "outputs": [
        {
          "internalType": "uint256",
          "name": "",
          "type": "uint256"
        }
      ],
      "stateMutability": "view",
      "type": "function"
    },
    {
      "inputs": [],
      "name": "baseURI",
      "outputs": [
        {
          "internalType": "string",
          "name": "",
          "type": "string"
        }
      ],
      "stateMutability": "view",
      "type": "function"
    },
    {
      "inputs": [
        {
          "internalType": "uint256",
          "name": "amount",
          "type": "uint256"
        }
      ],
      "name": "claim",
      "outputs": [],
      "stateMutability": "nonpayable",
      "type": "function"
    },
    {
      "inputs": [
        {
          "internalType": "uint256",
          "name": "amount",
          "type": "uint256"
        }
      ],
      "name": "claimStuck",
      "outputs": [],
      "stateMutability": "nonpayable",
      "type": "function"
    },
    {
      "inputs": [
        {
          "internalType": "address",
          "name": "user",
          "type": "address"
        }
      ],
      "name": "claimable",
      "outputs": [
        {
          "internalType": "uint256",
          "name": "",
          "type": "uint256"
        }
      ],
      "stateMutability": "view",
      "type": "function"
    },
    {
      "inputs": [
        {
          "internalType": "address",
          "name": "user",
          "type": "address"
        }
      ],
      "name": "claimableStuck",
      "outputs": [
        {
          "internalType": "uint256",
          "name": "",
          "type": "uint256"
        }
      ],
      "stateMutability": "view",
      "type": "function"
    },
    {
      "inputs": [
        {
          "internalType": "address",
          "name": "",
          "type": "address"
        }
      ],
      "name": "claimed",
      "outputs": [
        {
          "internalType": "uint256",
          "name": "",
          "type": "uint256"
        }
      ],
      "stateMutability": "view",
      "type": "function"
    },
    {
      "inputs": [
        {
          "internalType": "uint256",
          "name": "tokenId",
          "type": "uint256"
        }
      ],
      "name": "getApproved",
      "outputs": [
        {
          "internalType": "address",
          "name": "",
          "type": "address"
        }
      ],
      "stateMutability": "view",
      "type": "function"
    },
    {
      "inputs": [
        {
          "internalType": "address",
          "name": "user",
          "type": "address"
        }
      ],
      "name": "getClaimStatus",
      "outputs": [
        {
          "internalType": "uint256",
          "name": "ogLocked",
          "type": "uint256"
        },
        {
          "internalType": "uint256",
          "name": "totalEntitled",
          "type": "uint256"
        },
        {
          "internalType": "uint256",
          "name": "alreadyClaimed",
          "type": "uint256"
        },
        {
          "internalType": "uint256",
          "name": "stillClaimable",
          "type": "uint256"
        }
      ],
      "stateMutability": "view",
      "type": "function"
    },
    {
      "inputs": [
        {
          "internalType": "address",
          "name": "_ogVaultOracle",
          "type": "address"
        },
        {
          "internalType": "string",
          "name": "_baseURI",
          "type": "string"
        },
        {
          "internalType": "address",
          "name": "raffleWallet",
          "type": "address"
        },
        {
          "internalType": "address",
          "name": "teamWallet",
          "type": "address"
        }
      ],
      "name": "initialize",
      "outputs": [],
      "stateMutability": "nonpayable",
      "type": "function"
    },
    {
      "inputs": [
        {
          "internalType": "address",
          "name": "owner",
          "type": "address"
        },
        {
          "internalType": "address",
          "name": "operator",
          "type": "address"
        }
      ],
      "name": "isApprovedForAll",
      "outputs": [
        {
          "internalType": "bool",
          "name": "",
          "type": "bool"
        }
      ],
      "stateMutability": "view",
      "type": "function"
    },
    {
      "inputs": [],
      "name": "name",
      "outputs": [
        {
          "internalType": "string",
          "name": "",
          "type": "string"
        }
      ],
      "stateMutability": "view",
      "type": "function"
    },
    {
      "inputs": [],
      "name": "nextTokenId",
      "outputs": [
        {
          "internalType": "uint256",
          "name": "",
          "type": "uint256"
        }
      ],
      "stateMutability": "view",
      "type": "function"
    },
    {
      "inputs": [],
      "name": "ogVaultOracle",
      "outputs": [
        {
          "internalType": "contract IOGVaultOracle",
          "name": "",
          "type": "address"
        }
      ],
      "stateMutability": "view",
      "type": "function"
    },
    {
      "inputs": [],
      "name": "owner",
      "outputs": [
        {
          "internalType": "address",
          "name": "",
          "type": "address"
        }
      ],
      "stateMutability": "view",
      "type": "function"
    },
    {
      "inputs": [
        {
          "internalType": "uint256",
          "name": "tokenId",
          "type": "uint256"
        }
      ],
      "name": "ownerOf",
      "outputs": [
        {
          "internalType": "address",
          "name": "",
          "type": "address"
        }
      ],
      "stateMutability": "view",
      "type": "function"
    },
    {
      "inputs": [],
      "name": "pause",
      "outputs": [],
      "stateMutability": "nonpayable",
      "type": "function"
    },
    {
      "inputs": [],
      "name": "paused",
      "outputs": [
        {
          "internalType": "bool",
          "name": "",
          "type": "bool"
        }
      ],
      "stateMutability": "view",
      "type": "function"
    },
    {
      "inputs": [],
      "name": "remainingSupply",
      "outputs": [
        {
          "internalType": "uint256",
          "name": "",
          "type": "uint256"
        }
      ],
      "stateMutability": "view",
      "type": "function"
    },
    {
      "inputs": [],
      "name": "renounceOwnership",
      "outputs": [],
      "stateMutability": "nonpayable",
      "type": "function"
    },
    {
      "inputs": [
        {
          "internalType": "address",
          "name": "from",
          "type": "address"
        },
        {
          "internalType": "address",
          "name": "to",
          "type": "address"
        },
        {
          "internalType": "uint256",
          "name": "tokenId",
          "type": "uint256"
        }
      ],
      "name": "safeTransferFrom",
      "outputs": [],
      "stateMutability": "nonpayable",
      "type": "function"
    },
    {
      "inputs": [
        {
          "internalType": "address",
          "name": "from",
          "type": "address"
        },
        {
          "internalType": "address",
          "name": "to",
          "type": "address"
        },
        {
          "internalType": "uint256",
          "name": "tokenId",
          "type": "uint256"
        },
        {
          "internalType": "bytes",
          "name": "data",
          "type": "bytes"
        }
      ],
      "name": "safeTransferFrom",
      "outputs": [],
      "stateMutability": "nonpayable",
      "type": "function"
    },
    {
      "inputs": [
        {
          "internalType": "address",
          "name": "operator",
          "type": "address"
        },
        {
          "internalType": "bool",
          "name": "approved",
          "type": "bool"
        }
      ],
      "name": "setApprovalForAll",
      "outputs": [],
      "stateMutability": "nonpayable",
      "type": "function"
    },
    {
      "inputs": [
        {
          "internalType": "string",
          "name": "_baseURI",
          "type": "string"
        }
      ],
      "name": "setBaseURI",
      "outputs": [],
      "stateMutability": "nonpayable",
      "type": "function"
    },
    {
      "inputs": [
        {
          "internalType": "address",
          "name": "_oracle",
          "type": "address"
        }
      ],
      "name": "setOGVaultOracle",
      "outputs": [],
      "stateMutability": "nonpayable",
      "type": "function"
    },
    {
      "inputs": [
        {
          "internalType": "address",
          "name": "user",
          "type": "address"
        },
        {
          "internalType": "uint256",
          "name": "allowance",
          "type": "uint256"
        }
      ],
      "name": "setStuckUserAllowance",
      "outputs": [],
      "stateMutability": "nonpayable",
      "type": "function"
    },
    {
      "inputs": [
        {
          "internalType": "address[]",
          "name": "users",
          "type": "address[]"
        },
        {
          "internalType": "uint256[]",
          "name": "allowances",
          "type": "uint256[]"
        }
      ],
      "name": "setStuckUserAllowanceBatch",
      "outputs": [],
      "stateMutability": "nonpayable",
      "type": "function"
    },
    {
      "inputs": [
        {
          "internalType": "address",
          "name": "",
          "type": "address"
        }
      ],
      "name": "stuckUserAllowance",
      "outputs": [
        {
          "internalType": "uint256",
          "name": "",
          "type": "uint256"
        }
      ],
      "stateMutability": "view",
      "type": "function"
    },
    {
      "inputs": [
        {
          "internalType": "address",
          "name": "",
          "type": "address"
        }
      ],
      "name": "stuckUserClaimed",
      "outputs": [
        {
          "internalType": "uint256",
          "name": "",
          "type": "uint256"
        }
      ],
      "stateMutability": "view",
      "type": "function"
    },
    {
      "inputs": [
        {
          "internalType": "bytes4",
          "name": "interfaceId",
          "type": "bytes4"
        }
      ],
      "name": "supportsInterface",
      "outputs": [
        {
          "internalType": "bool",
          "name": "",
          "type": "bool"
        }
      ],
      "stateMutability": "view",
      "type": "function"
    },
    {
      "inputs": [],
      "name": "symbol",
      "outputs": [
        {
          "internalType": "string",
          "name": "",
          "type": "string"
        }
      ],
      "stateMutability": "view",
      "type": "function"
    },
    {
      "inputs": [
        {
          "internalType": "uint256",
          "name": "index",
          "type": "uint256"
        }
      ],
      "name": "tokenByIndex",
      "outputs": [
        {
          "internalType": "uint256",
          "name": "",
          "type": "uint256"
        }
      ],
      "stateMutability": "view",
      "type": "function"
    },
    {
      "inputs": [
        {
          "internalType": "address",
          "name": "owner",
          "type": "address"
        },
        {
          "internalType": "uint256",
          "name": "index",
          "type": "uint256"
        }
      ],
      "name": "tokenOfOwnerByIndex",
      "outputs": [
        {
          "internalType": "uint256",
          "name": "",
          "type": "uint256"
        }
      ],
      "stateMutability": "view",
      "type": "function"
    },
    {
      "inputs": [
        {
          "internalType": "uint256",
          "name": "tokenId",
          "type": "uint256"
        }
      ],
      "name": "tokenURI",
      "outputs": [
        {
          "internalType": "string",
          "name": "",
          "type": "string"
        }
      ],
      "stateMutability": "view",
      "type": "function"
    },
    {
      "inputs": [],
      "name": "totalSupply",
      "outputs": [
        {
          "internalType": "uint256",
          "name": "",
          "type": "uint256"
        }
      ],
      "stateMutability": "view",
      "type": "function"
    },
    {
      "inputs": [
        {
          "internalType": "address",
          "name": "from",
          "type": "address"
        },
        {
          "internalType": "address",
          "name": "to",
          "type": "address"
        },
        {
          "internalType": "uint256",
          "name": "tokenId",
          "type": "uint256"
        }
      ],
      "name": "transferFrom",
      "outputs": [],
      "stateMutability": "nonpayable",
      "type": "function"
    },
    {
      "inputs": [
        {
          "internalType": "address",
          "name": "newOwner",
          "type": "address"
        }
      ],
      "name": "transferOwnership",
      "outputs": [],
      "stateMutability": "nonpayable",
      "type": "function"
    },
    {
      "inputs": [],
      "name": "unpause",
      "outputs": [],
      "stateMutability": "nonpayable",
      "type": "function"
    }
  ],
  "bytecode": "0x60806040523480156200001157600080fd5b506200001c62000022565b620000e3565b600054610100900460ff16156200008f5760405162461bcd60e51b815260206004820152602760248201527f496e697469616c697a61626c653a20636f6e747261637420697320696e697469604482015266616c697a696e6760c81b606482015260840160405180910390fd5b60005460ff90811614620000e1576000805460ff191660ff9081179091556040519081527f7f26b83ff96e1f2b6a682f133852f6798a09c465da95921460cefb38474024989060200160405180910390a15b565b6130f780620000f36000396000f3fe608060405234801561001057600080fd5b50600436106102745760003560e01c8063715018a611610151578063c884ef83116100c3578063da0239a611610087578063da0239a61461055c578063e58306f914610564578063e985e9c514610577578063f2e3b34a146105b3578063f2fde38b146105c6578063f53650bc146105d957600080fd5b8063c884ef83146104da578063c9760f71146104fb578063c9bf2d531461052e578063cfdbf25414610541578063d7b1f01f1461054957600080fd5b806395d89b411161011557806395d89b4114610473578063a22cb4651461047b578063b88d4fde1461048e578063b8f88d64146104a1578063c0ef484b146104b4578063c87b56dd146104c757600080fd5b8063715018a61461043557806375794a3c1461043d578063811d6dca146104475780638456cb591461045a5780638da5cb5b1461046257600080fd5b80633a43b054116101ea57806355f804b3116101ae57806355f804b3146103c85780635c975abb146103db5780635e77d551146103e65780636352211e146104075780636c0360eb1461041a57806370a082311461042257600080fd5b80633a43b0541461037f5780633f4ba83a14610387578063402914f51461038f57806342842e0e146103a25780634f6ccce7146103b557600080fd5b806318160ddd1161023c57806318160ddd1461030957806323b872dd1461031b5780632e0bbc2f1461032e5780632f745c591461034f57806332cb6b0c14610362578063379607f51461036c57600080fd5b806301ffc9a71461027957806306fdde03146102a1578063081812fc146102b6578063084124ba146102e1578063095ea7b3146102f6575b600080fd5b61028c6102873660046126b1565b6105ed565b60405190151581526020015b60405180910390f35b6102a96105fe565b6040516102989190612725565b6102c96102c4366004612738565b610690565b6040516001600160a01b039091168152602001610298565b6102f46102ef36600461279d565b6106b7565b005b6102f4610304366004612825565b6107ff565b6099545b604051908152602001610298565b6102f461032936600461284f565b610914565b61030d61033c36600461288b565b6101646020526000908152604090205481565b61030d61035d366004612825565b610945565b61030d620186a081565b6102f461037a366004612738565b6109db565b61030d600381565b6102f4610c5c565b61030d61039d36600461288b565b610c6e565b6102f46103b036600461284f565b610d2e565b61030d6103c3366004612738565b610d49565b6102f46103d63660046128a6565b610ddc565b60fb5460ff1661028c565b61030d6103f436600461288b565b6101636020526000908152604090205481565b6102c9610415366004612738565b610e30565b6102a9610e90565b61030d61043036600461288b565b610f1f565b6102f4610fa5565b61030d6101605481565b6102f4610455366004612825565b610fb7565b6102f4610fdc565b60c9546001600160a01b03166102c9565b6102a9610fec565b6102f4610489366004612918565b610ffb565b6102f461049c3660046129e0565b61100a565b6102f46104af366004612a5c565b611042565b6102f46104c2366004612738565b61123c565b6102a96104d5366004612738565b611413565b61030d6104e836600461288b565b6101626020526000908152604090205481565b61050e61050936600461288b565b6114a3565b604080519485526020850193909352918301526060820152608001610298565b6102f461053c366004612825565b611566565b61030d603281565b6102f461055736600461288b565b6115c8565b61030d61166c565b6102f4610572366004612825565b611690565b61028c610585366004612adf565b6001600160a01b039182166000908152606a6020908152604080832093909416825291909152205460ff1690565b61030d6105c136600461288b565b611720565b6102f46105d436600461288b565b611766565b610161546102c9906001600160a01b031681565b60006105f8826117dc565b92915050565b60606065805461060d90612b12565b80601f016020809104026020016040519081016040528092919081815260200182805461063990612b12565b80156106865780601f1061065b57610100808354040283529160200191610686565b820191906000526020600020905b81548152906001019060200180831161066957829003601f168201915b5050505050905090565b600061069b82611801565b506000908152606960205260409020546001600160a01b031690565b6106bf611860565b8281146107055760405162461bcd60e51b815260206004820152600f60248201526e098cadccee8d040dad2e6dac2e8c6d608b1b60448201526064015b60405180910390fd5b60005b838110156107f85782828281811061072257610722612b4c565b90506020020135610163600087878581811061074057610740612b4c565b9050602002016020810190610755919061288b565b6001600160a01b0316815260208101919091526040016000205584848281811061078157610781612b4c565b9050602002016020810190610796919061288b565b6001600160a01b03167fc8f7f7a1cdca162cc06d6b7f57463a80c231f8b049d86540151fa4d8bcee8ee98484848181106107d2576107d2612b4c565b905060200201356040516107e891815260200190565b60405180910390a2600101610708565b5050505050565b600061080a82610e30565b9050806001600160a01b0316836001600160a01b0316036108775760405162461bcd60e51b815260206004820152602160248201527f4552433732313a20617070726f76616c20746f2063757272656e74206f776e656044820152603960f91b60648201526084016106fc565b336001600160a01b038216148061089357506108938133610585565b6109055760405162461bcd60e51b815260206004820152603d60248201527f4552433732313a20617070726f76652063616c6c6572206973206e6f7420746f60448201527f6b656e206f776e6572206f7220617070726f76656420666f7220616c6c00000060648201526084016106fc565b61090f83836118ba565b505050565b61091e3382611928565b61093a5760405162461bcd60e51b81526004016106fc90612b62565b61090f8383836119a6565b600061095083610f1f565b82106109b25760405162461bcd60e51b815260206004820152602b60248201527f455243373231456e756d657261626c653a206f776e657220696e646578206f7560448201526a74206f6620626f756e647360a81b60648201526084016106fc565b506001600160a01b03919091166000908152609760209081526040808320938352929052205490565b6109e3611b17565b6109eb611b72565b60008111610a305760405162461bcd60e51b81526020600482015260126024820152710416d6f756e74206d757374206265203e20360741b60448201526064016106fc565b6032811115610a515760405162461bcd60e51b81526004016106fc90612baf565b61016154604051635ed069a760e11b81523360048201526000916001600160a01b03169063bda0d34e90602401602060405180830381865afa158015610a9b573d6000803e3d6000fd5b505050506040513d601f19601f82011682018060405250810190610abf9190612bdf565b90506000610ace600383612c0e565b3360009081526101626020526040812054919250818311610af0576000610afa565b610afa8284612c25565b905060008111610b3f5760405162461bcd60e51b815260206004820152601060248201526f4e6f7468696e6720746f20636c61696d60801b60448201526064016106fc565b6000818611610b4e5785610b50565b815b9050620186a060018261016054610b679190612c38565b610b719190612c25565b1115610b8f5760405162461bcd60e51b81526004016106fc90612c4b565b61016054336000908152610162602052604081208054849290610bb3908490612c38565b90915550600090505b82811015610bec576101608054610be4913391906000610bdb83612c82565b91905055611bb8565b600101610bbc565b50336001600160a01b03167f9cdcf2f7714cca3508c7f0110b04a90a80a3a8dd0e35de99689db74d28c5383e8383600161016054610c2a9190612c25565b6040805193845260208401929092529082015260600160405180910390a2505050505050610c59600161012d55565b50565b610c64611860565b610c6c611bda565b565b61016154604051635ed069a760e11b81526001600160a01b038381166004830152600092839291169063bda0d34e90602401602060405180830381865afa158015610cbd573d6000803e3d6000fd5b505050506040513d601f19601f82011682018060405250810190610ce19190612bdf565b90506000610cf0600383612c0e565b6001600160a01b03851660009081526101626020526040902054909150808211610d1b576000610d25565b610d258183612c25565b95945050505050565b61090f8383836040518060200160405280600081525061100a565b6000610d5460995490565b8210610db75760405162461bcd60e51b815260206004820152602c60248201527f455243373231456e756d657261626c653a20676c6f62616c20696e646578206f60448201526b7574206f6620626f756e647360a01b60648201526084016106fc565b60998281548110610dca57610dca612b4c565b90600052602060002001549050919050565b610de4611860565b61015f610df2828483612ceb565b507ff9c7803e94e0d3c02900d8a90893a6d5e90dd04d32a4cfe825520f82bf9f32f68282604051610e24929190612dab565b60405180910390a15050565b6000818152606760205260408120546001600160a01b0316806105f85760405162461bcd60e51b8152602060048201526018602482015277115490cdcc8c4e881a5b9d985b1a59081d1bdad95b88125160421b60448201526064016106fc565b61015f8054610e9e90612b12565b80601f0160208091040260200160405190810160405280929190818152602001828054610eca90612b12565b8015610f175780601f10610eec57610100808354040283529160200191610f17565b820191906000526020600020905b815481529060010190602001808311610efa57829003601f168201915b505050505081565b60006001600160a01b038216610f895760405162461bcd60e51b815260206004820152602960248201527f4552433732313a2061646472657373207a65726f206973206e6f7420612076616044820152683634b21037bbb732b960b91b60648201526084016106fc565b506001600160a01b031660009081526068602052604090205490565b610fad611860565b610c6c6000611c2c565b610fbf611860565b6001600160a01b0390911660009081526101626020526040902055565b610fe4611860565b610c6c611c7e565b60606066805461060d90612b12565b611006338383611cbb565b5050565b6110143383611928565b6110305760405162461bcd60e51b81526004016106fc90612b62565b61103c84848484611d89565b50505050565b600054610100900460ff16158080156110625750600054600160ff909116105b8061107c5750303b15801561107c575060005460ff166001145b6110df5760405162461bcd60e51b815260206004820152602e60248201527f496e697469616c697a61626c653a20636f6e747261637420697320616c72656160448201526d191e481a5b9a5d1a585b1a5e995960921b60648201526084016106fc565b6000805460ff191660011790558015611102576000805461ff0019166101001790555b61114860405180604001604052806006815260200165332a37b0b23d60d11b81525060405180604001604052806006815260200165232a27a0a22d60d11b815250611dbc565b611150611ded565b611158611e14565b611160611e43565b611168611e72565b61016180546001600160a01b0319166001600160a01b03871617905561015f6111918582612dda565b5060016101605560005b60148110156111c35761016080546111bb918691906000610bdb83612c82565b60010161119b565b5060005b60648110156111ef5761016080546111e7918591906000610bdb83612c82565b6001016111c7565b5080156107f8576000805461ff0019169055604051600181527f7f26b83ff96e1f2b6a682f133852f6798a09c465da95921460cefb38474024989060200160405180910390a15050505050565b611244611b17565b61124c611b72565b600081116112915760405162461bcd60e51b81526020600482015260126024820152710416d6f756e74206d757374206265203e20360741b60448201526064016106fc565b60328111156112b25760405162461bcd60e51b81526004016106fc90612baf565b336000908152610163602090815260408083205461016490925282205490918183116112df5760006112e9565b6112e98284612c25565b90506000811161132e5760405162461bcd60e51b815260206004820152601060248201526f4e6f7468696e6720746f20636c61696d60801b60448201526064016106fc565b600081851161133d578461133f565b815b9050620186a0600182610160546113569190612c38565b6113609190612c25565b111561137e5760405162461bcd60e51b81526004016106fc90612c4b565b33600090815261016460205260408120805483929061139e908490612c38565b90915550600090505b818110156113ce5761016080546113c6913391906000610bdb83612c82565b6001016113a7565b5060405181815233907f683ca21c6018e59b1e4b6118311228997f598b20a6107b480abbb9f208b377be9060200160405180910390a250505050610c59600161012d55565b6000818152606760205260409020546060906001600160a01b03166114705760405162461bcd60e51b8152602060048201526013602482015272151bdad95b88191bd95cdb89dd08195e1a5cdd606a1b60448201526064016106fc565b61015f61147c83611ea1565b60405160200161148d929190612e9a565b6040516020818303038152906040529050919050565b61016154604051635ed069a760e11b81526001600160a01b038381166004830152600092839283928392169063bda0d34e90602401602060405180830381865afa1580156114f5573d6000803e3d6000fd5b505050506040513d601f19601f820116820180604052508101906115199190612bdf565b9350611526600385612c0e565b6001600160a01b03861660009081526101626020526040902054909350915081831161155357600061155d565b61155d8284612c25565b90509193509193565b61156e611860565b6001600160a01b0382166000818152610163602052604090819020839055517fc8f7f7a1cdca162cc06d6b7f57463a80c231f8b049d86540151fa4d8bcee8ee9906115bc9084815260200190565b60405180910390a25050565b6115d0611860565b6001600160a01b0381166116175760405162461bcd60e51b815260206004820152600e60248201526d496e76616c6964206f7261636c6560901b60448201526064016106fc565b61016180546001600160a01b0319166001600160a01b0383169081179091556040519081527f3f32684a32a11dabdbb8c0177de80aa3ae36a004d75210335b49e544e48cd0aa9060200160405180910390a150565b600061016054620186a06116809190612c25565b61168b906001612c38565b905090565b611698611860565b60328111156116b95760405162461bcd60e51b81526004016106fc90612baf565b620186a0600182610160546116ce9190612c38565b6116d89190612c25565b11156116f65760405162461bcd60e51b81526004016106fc90612c4b565b60005b8181101561090f576101608054611718918591906000610bdb83612c82565b6001016116f9565b6001600160a01b0381166000908152610163602090815260408083205461016490925282205480821161175457600061175e565b61175e8183612c25565b949350505050565b61176e611860565b6001600160a01b0381166117d35760405162461bcd60e51b815260206004820152602660248201527f4f776e61626c653a206e6577206f776e657220697320746865207a65726f206160448201526564647265737360d01b60648201526084016106fc565b610c5981611c2c565b60006001600160e01b0319821663780e9d6360e01b14806105f857506105f882611fa2565b6000818152606760205260409020546001600160a01b0316610c595760405162461bcd60e51b8152602060048201526018602482015277115490cdcc8c4e881a5b9d985b1a59081d1bdad95b88125160421b60448201526064016106fc565b60c9546001600160a01b03163314610c6c5760405162461bcd60e51b815260206004820181905260248201527f4f776e61626c653a2063616c6c6572206973206e6f7420746865206f776e657260448201526064016106fc565b600081815260696020526040902080546001600160a01b0319166001600160a01b03841690811790915581906118ef82610e30565b6001600160a01b03167f8c5be1e5ebec7d5bd14f71427d1e84f3dd0314c0f7b2291e5b200ac8c7c3b92560405160405180910390a45050565b60008061193483610e30565b9050806001600160a01b0316846001600160a01b0316148061197b57506001600160a01b038082166000908152606a602090815260408083209388168352929052205460ff165b8061175e5750836001600160a01b031661199484610690565b6001600160a01b031614949350505050565b826001600160a01b03166119b982610e30565b6001600160a01b0316146119df5760405162461bcd60e51b81526004016106fc90612f31565b6001600160a01b038216611a415760405162461bcd60e51b8152602060048201526024808201527f4552433732313a207472616e7366657220746f20746865207a65726f206164646044820152637265737360e01b60648201526084016106fc565b611a4e8383836001611ff2565b826001600160a01b0316611a6182610e30565b6001600160a01b031614611a875760405162461bcd60e51b81526004016106fc90612f31565b600081815260696020908152604080832080546001600160a01b03199081169091556001600160a01b0387811680865260688552838620805460001901905590871680865283862080546001019055868652606790945282852080549092168417909155905184937fddf252ad1be2c89b69c2b068fc378daa952ba7f163c4a11628f55a4df523b3ef91a4505050565b600261012d5403611b6a5760405162461bcd60e51b815260206004820152601f60248201527f5265656e7472616e637947756172643a207265656e7472616e742063616c6c0060448201526064016106fc565b600261012d55565b60fb5460ff1615610c6c5760405162461bcd60e51b815260206004820152601060248201526f14185d5cd8589b194e881c185d5cd95960821b60448201526064016106fc565b611006828260405180602001604052806000815250611ffe565b600161012d55565b611be2612031565b60fb805460ff191690557f5db9ee0a495bf2e6ff9c91a7834c1ba4fdd244a5e8aa4e537bd38aeae4b073aa335b6040516001600160a01b03909116815260200160405180910390a1565b60c980546001600160a01b038381166001600160a01b0319831681179093556040519116919082907f8be0079c531659141344cd1fd0a4f28419497f9722a3daafe3b4186f6b6457e090600090a35050565b611c86611b72565b60fb805460ff191660011790557f62e78cea01bee320cd4e420270b5ea74000d11b0c9f74754ebdbfc544b05a258611c0f3390565b816001600160a01b0316836001600160a01b031603611d1c5760405162461bcd60e51b815260206004820152601960248201527f4552433732313a20617070726f766520746f2063616c6c65720000000000000060448201526064016106fc565b6001600160a01b038381166000818152606a6020908152604080832094871680845294825291829020805460ff191686151590811790915591519182527f17307eab39ab6107e8899845ad3d59bd9653f200f220920489ca2b5937696c31910160405180910390a3505050565b611d948484846119a6565b611da08484848461207a565b61103c5760405162461bcd60e51b81526004016106fc90612f76565b600054610100900460ff16611de35760405162461bcd60e51b81526004016106fc90612fc8565b611006828261217b565b600054610100900460ff16610c6c5760405162461bcd60e51b81526004016106fc90612fc8565b600054610100900460ff16611e3b5760405162461bcd60e51b81526004016106fc90612fc8565b610c6c6121bb565b600054610100900460ff16611e6a5760405162461bcd60e51b81526004016106fc90612fc8565b610c6c6121eb565b600054610100900460ff16611e995760405162461bcd60e51b81526004016106fc90612fc8565b610c6c61221e565b606081600003611ec85750506040805180820190915260018152600360fc1b602082015290565b8160005b8115611ef25780611edc81612c82565b9150611eeb9050600a83613029565b9150611ecc565b60008167ffffffffffffffff811115611f0d57611f0d612954565b6040519080825280601f01601f191660200182016040528015611f37576020820181803683370190505b5090505b841561175e57611f4c600183612c25565b9150611f59600a8661303d565b611f64906030612c38565b60f81b818381518110611f7957611f79612b4c565b60200101906001600160f81b031916908160001a905350611f9b600a86613029565b9450611f3b565b60006001600160e01b031982166380ac58cd60e01b1480611fd357506001600160e01b03198216635b5e139f60e01b145b806105f857506301ffc9a760e01b6001600160e01b03198316146105f8565b61103c84848484612245565b6120088383612372565b612015600084848461207a565b61090f5760405162461bcd60e51b81526004016106fc90612f76565b60fb5460ff16610c6c5760405162461bcd60e51b815260206004820152601460248201527314185d5cd8589b194e881b9bdd081c185d5cd95960621b60448201526064016106fc565b60006001600160a01b0384163b1561217057604051630a85bd0160e11b81526001600160a01b0385169063150b7a02906120be903390899088908890600401613051565b6020604051808303816000875af19250505080156120f9575060408051601f3d908101601f191682019092526120f69181019061308e565b60015b612156573d808015612127576040519150601f19603f3d011682016040523d82523d6000602084013e61212c565b606091505b50805160000361214e5760405162461bcd60e51b81526004016106fc90612f76565b805181602001fd5b6001600160e01b031916630a85bd0160e11b14905061175e565b506001949350505050565b600054610100900460ff166121a25760405162461bcd60e51b81526004016106fc90612fc8565b60656121ae8382612dda565b50606661090f8282612dda565b600054610100900460ff166121e25760405162461bcd60e51b81526004016106fc90612fc8565b610c6c33611c2c565b600054610100900460ff166122125760405162461bcd60e51b81526004016106fc90612fc8565b60fb805460ff19169055565b600054610100900460ff16611bd25760405162461bcd60e51b81526004016106fc90612fc8565b60018111156122b45760405162461bcd60e51b815260206004820152603560248201527f455243373231456e756d657261626c653a20636f6e7365637574697665207472604482015274185b9cd9995c9cc81b9bdd081cdd5c1c1bdc9d1959605a1b60648201526084016106fc565b816001600160a01b0385166123105761230b81609980546000838152609a60205260408120829055600182018355919091527f72a152ddfb8e864297c917af52ea6c1c68aead0fee1a62673fcc7e0c94979d000155565b612333565b836001600160a01b0316856001600160a01b03161461233357612333858261250b565b6001600160a01b03841661234f5761234a816125a8565b6107f8565b846001600160a01b0316846001600160a01b0316146107f8576107f88482612657565b6001600160a01b0382166123c85760405162461bcd60e51b815260206004820181905260248201527f4552433732313a206d696e7420746f20746865207a65726f206164647265737360448201526064016106fc565b6000818152606760205260409020546001600160a01b03161561242d5760405162461bcd60e51b815260206004820152601c60248201527f4552433732313a20746f6b656e20616c7265616479206d696e7465640000000060448201526064016106fc565b61243b600083836001611ff2565b6000818152606760205260409020546001600160a01b0316156124a05760405162461bcd60e51b815260206004820152601c60248201527f4552433732313a20746f6b656e20616c7265616479206d696e7465640000000060448201526064016106fc565b6001600160a01b038216600081815260686020908152604080832080546001019055848352606790915280822080546001600160a01b0319168417905551839291907fddf252ad1be2c89b69c2b068fc378daa952ba7f163c4a11628f55a4df523b3ef908290a45050565b6000600161251884610f1f565b6125229190612c25565b600083815260986020526040902054909150808214612575576001600160a01b03841660009081526097602090815260408083208584528252808320548484528184208190558352609890915290208190555b5060009182526098602090815260408084208490556001600160a01b039094168352609781528383209183525290812055565b6099546000906125ba90600190612c25565b6000838152609a6020526040812054609980549394509092849081106125e2576125e2612b4c565b90600052602060002001549050806099838154811061260357612603612b4c565b6000918252602080832090910192909255828152609a9091526040808220849055858252812055609980548061263b5761263b6130ab565b6001900381819060005260206000200160009055905550505050565b600061266283610f1f565b6001600160a01b039093166000908152609760209081526040808320868452825280832085905593825260989052919091209190915550565b6001600160e01b031981168114610c5957600080fd5b6000602082840312156126c357600080fd5b81356126ce8161269b565b9392505050565b60005b838110156126f05781810151838201526020016126d8565b50506000910152565b600081518084526127118160208601602086016126d5565b601f01601f19169290920160200192915050565b6020815260006126ce60208301846126f9565b60006020828403121561274a57600080fd5b5035919050565b60008083601f84011261276357600080fd5b50813567ffffffffffffffff81111561277b57600080fd5b6020830191508360208260051b850101111561279657600080fd5b9250929050565b600080600080604085870312156127b357600080fd5b843567ffffffffffffffff808211156127cb57600080fd5b6127d788838901612751565b909650945060208701359150808211156127f057600080fd5b506127fd87828801612751565b95989497509550505050565b80356001600160a01b038116811461282057600080fd5b919050565b6000806040838503121561283857600080fd5b61284183612809565b946020939093013593505050565b60008060006060848603121561286457600080fd5b61286d84612809565b925061287b60208501612809565b9150604084013590509250925092565b60006020828403121561289d57600080fd5b6126ce82612809565b600080602083850312156128b957600080fd5b823567ffffffffffffffff808211156128d157600080fd5b818501915085601f8301126128e557600080fd5b8135818111156128f457600080fd5b86602082850101111561290657600080fd5b60209290920196919550909350505050565b6000806040838503121561292b57600080fd5b61293483612809565b91506020830135801515811461294957600080fd5b809150509250929050565b634e487b7160e01b600052604160045260246000fd5b600067ffffffffffffffff8084111561298557612985612954565b604051601f8501601f19908116603f011681019082821181831017156129ad576129ad612954565b816040528093508581528686860111156129c657600080fd5b858560208301376000602087830101525050509392505050565b600080600080608085870312156129f657600080fd5b6129ff85612809565b9350612a0d60208601612809565b925060408501359150606085013567ffffffffffffffff811115612a3057600080fd5b8501601f81018713612a4157600080fd5b612a508782356020840161296a565b91505092959194509250565b60008060008060808587031215612a7257600080fd5b612a7b85612809565b9350602085013567ffffffffffffffff811115612a9757600080fd5b8501601f81018713612aa857600080fd5b612ab78782356020840161296a565b935050612ac660408601612809565b9150612ad460608601612809565b905092959194509250565b60008060408385031215612af257600080fd5b612afb83612809565b9150612b0960208401612809565b90509250929050565b600181811c90821680612b2657607f821691505b602082108103612b4657634e487b7160e01b600052602260045260246000fd5b50919050565b634e487b7160e01b600052603260045260246000fd5b6020808252602d908201527f4552433732313a2063616c6c6572206973206e6f7420746f6b656e206f776e6560408201526c1c881bdc88185c1c1c9bdd9959609a1b606082015260800190565b60208082526016908201527545786365656473206d61782062617463682073697a6560501b604082015260600190565b600060208284031215612bf157600080fd5b5051919050565b634e487b7160e01b600052601160045260246000fd5b80820281158282048414176105f8576105f8612bf8565b818103818111156105f8576105f8612bf8565b808201808211156105f8576105f8612bf8565b60208082526017908201527f576f756c6420657863656564206d617820737570706c79000000000000000000604082015260600190565b600060018201612c9457612c94612bf8565b5060010190565b601f82111561090f576000816000526020600020601f850160051c81016020861015612cc45750805b601f850160051c820191505b81811015612ce357828155600101612cd0565b505050505050565b67ffffffffffffffff831115612d0357612d03612954565b612d1783612d118354612b12565b83612c9b565b6000601f841160018114612d4b5760008515612d335750838201355b600019600387901b1c1916600186901b1783556107f8565b600083815260209020601f19861690835b82811015612d7c5786850135825560209485019460019092019101612d5c565b5086821015612d995760001960f88860031b161c19848701351681555b505060018560011b0183555050505050565b60208152816020820152818360408301376000818301604090810191909152601f909201601f19160101919050565b815167ffffffffffffffff811115612df457612df4612954565b612e0881612e028454612b12565b84612c9b565b602080601f831160018114612e3d5760008415612e255750858301515b600019600386901b1c1916600185901b178555612ce3565b600085815260208120601f198616915b82811015612e6c57888601518255948401946001909101908401612e4d565b5085821015612e8a5787850151600019600388901b60f8161c191681555b5050505050600190811b01905550565b6000808454612ea881612b12565b60018281168015612ec05760018114612ed557612f04565b60ff1984168752821515830287019450612f04565b8860005260208060002060005b85811015612efb5781548a820152908401908201612ee2565b50505082870194505b505050508351612f188183602088016126d5565b64173539b7b760d91b9101908152600501949350505050565b60208082526025908201527f4552433732313a207472616e736665722066726f6d20696e636f72726563742060408201526437bbb732b960d91b606082015260800190565b60208082526032908201527f4552433732313a207472616e7366657220746f206e6f6e20455243373231526560408201527131b2b4bb32b91034b6b83632b6b2b73a32b960711b606082015260800190565b6020808252602b908201527f496e697469616c697a61626c653a20636f6e7472616374206973206e6f74206960408201526a6e697469616c697a696e6760a81b606082015260800190565b634e487b7160e01b600052601260045260246000fd5b60008261303857613038613013565b500490565b60008261304c5761304c613013565b500690565b6001600160a01b0385811682528416602082015260408101839052608060608201819052600090613084908301846126f9565b9695505050505050565b6000602082840312156130a057600080fd5b81516126ce8161269b565b634e487b7160e01b600052603160045260246000fdfea2646970667358221220f7b69b58f80539b78ff76b2bfe691518bcb7f951de2a857f42f551f443da7d6164736f6c63430008180033",
  "linkReferences": {},
  "deployedLinkReferences": {}
}