{
  "_format": "hh-sol-artifact-1",
  "contractName": "OGVault_TP",
  "sourceName": "contracts/OGVault_TP.sol",
  "abi": [
    {
      "inputs": [],
      "stateMutability": "nonpayable",
      "type": "constructor"
    },
    {
      "anonymous": false,
      "inputs": [
        {
          "indexed": true,
          "internalType": "address",
          "name": "collection",
          "type": "address"
        }
      ],
      "name": "CollectionAdded",
      "type": "event"
    },
    {
      "anonymous": false,
      "inputs": [
        {
          "indexed": true,
          "internalType": "address",
          "name": "collection",
          "type": "address"
        }
      ],
      "name": "CollectionRemoved",
      "type": "event"
    },
    {
      "anonymous": false,
      "inputs": [
        {
          "indexed": true,
          "internalType": "address",
          "name": "user",
          "type": "address"
        },
        {
          "indexed": true,
          "internalType": "address",
          "name": "collection",
          "type": "address"
        },
        {
          "indexed": false,
          "internalType": "uint256",
          "name": "tokenId",
          "type": "uint256"
        }
      ],
      "name": "EmergencyUnlock",
      "type": "event"
    },
    {
      "anonymous": false,
      "inputs": [
        {
          "indexed": false,
          "internalType": "uint8",
          "name": "version",
          "type": "uint8"
        }
      ],
      "name": "Initialized",
      "type": "event"
    },
    {
      "anonymous": false,
      "inputs": [
        {
          "indexed": true,
          "internalType": "address",
          "name": "user",
          "type": "address"
        },
        {
          "indexed": true,
          "internalType": "address",
          "name": "collection",
          "type": "address"
        },
        {
          "indexed": false,
          "internalType": "uint256",
          "name": "tokenId",
          "type": "uint256"
        }
      ],
      "name": "Locked",
      "type": "event"
    },
    {
      "anonymous": false,
      "inputs": [
        {
          "indexed": true,
          "internalType": "address",
          "name": "user",
          "type": "address"
        },
        {
          "indexed": true,
          "internalType": "address",
          "name": "collection",
          "type": "address"
        },
        {
          "indexed": false,
          "internalType": "uint256[]",
          "name": "tokenIds",
          "type": "uint256[]"
        }
      ],
      "name": "LockedBatch",
      "type": "event"
    },
    {
      "anonymous": false,
      "inputs": [
        {
          "indexed": true,
          "internalType": "address",
          "name": "previousOwner",
          "type": "address"
        },
        {
          "indexed": true,
          "internalType": "address",
          "name": "newOwner",
          "type": "address"
        }
      ],
      "name": "OwnershipTransferred",
      "type": "event"
    },
    {
      "inputs": [
        {
          "internalType": "address",
          "name": "collection",
          "type": "address"
        }
      ],
      "name": "addCollection",
      "outputs": [],
      "stateMutability": "nonpayable",
      "type": "function"
    },
    {
      "inputs": [
        {
          "internalType": "address",
          "name": "collection",
          "type": "address"
        }
      ],
      "name": "checkEligible",
      "outputs": [
        {
          "internalType": "bool",
          "name": "",
          "type": "bool"
        }
      ],
      "stateMutability": "view",
      "type": "function"
    },
    {
      "inputs": [
        {
          "internalType": "uint256",
          "name": "",
          "type": "uint256"
        }
      ],
      "name": "eligibleCollections",
      "outputs": [
        {
          "internalType": "address",
          "name": "",
          "type": "address"
        }
      ],
      "stateMutability": "view",
      "type": "function"
    },
    {
      "inputs": [
        {
          "internalType": "address",
          "name": "user",
          "type": "address"
        },
        {
          "internalType": "address",
          "name": "collection",
          "type": "address"
        },
        {
          "internalType": "uint256",
          "name": "tokenId",
          "type": "uint256"
        },
        {
          "internalType": "address",
          "name": "recipient",
          "type": "address"
        }
      ],
      "name": "emergencyUnlock",
      "outputs": [],
      "stateMutability": "nonpayable",
      "type": "function"
    },
    {
      "inputs": [
        {
          "internalType": "address",
          "name": "user",
          "type": "address"
        },
        {
          "internalType": "address",
          "name": "collection",
          "type": "address"
        },
        {
          "internalType": "uint256[]",
          "name": "tokenIds",
          "type": "uint256[]"
        },
        {
          "internalType": "address",
          "name": "recipient",
          "type": "address"
        }
      ],
      "name": "emergencyUnlockBatch",
      "outputs": [],
      "stateMutability": "nonpayable",
      "type": "function"
    },
    {
      "inputs": [],
      "name": "getAllLockers",
      "outputs": [
        {
          "internalType": "address[]",
          "name": "lockers",
          "type": "address[]"
        },
        {
          "internalType": "uint256[]",
          "name": "counts",
          "type": "uint256[]"
        },
        {
          "internalType": "uint256",
          "name": "total",
          "type": "uint256"
        }
      ],
      "stateMutability": "view",
      "type": "function"
    },
    {
      "inputs": [],
      "name": "getEligibleCollections",
      "outputs": [
        {
          "internalType": "address[]",
          "name": "",
          "type": "address[]"
        }
      ],
      "stateMutability": "view",
      "type": "function"
    },
    {
      "inputs": [
        {
          "internalType": "address",
          "name": "user",
          "type": "address"
        }
      ],
      "name": "getLockedByCollection",
      "outputs": [
        {
          "internalType": "address[]",
          "name": "collections",
          "type": "address[]"
        },
        {
          "internalType": "uint256[]",
          "name": "counts",
          "type": "uint256[]"
        }
      ],
      "stateMutability": "view",
      "type": "function"
    },
    {
      "inputs": [
        {
          "internalType": "address",
          "name": "user",
          "type": "address"
        },
        {
          "internalType": "address",
          "name": "collection",
          "type": "address"
        }
      ],
      "name": "getLockedNfts",
      "outputs": [
        {
          "internalType": "uint256[]",
          "name": "",
          "type": "uint256[]"
        }
      ],
      "stateMutability": "view",
      "type": "function"
    },
    {
      "inputs": [],
      "name": "getLockerCount",
      "outputs": [
        {
          "internalType": "uint256",
          "name": "",
          "type": "uint256"
        }
      ],
      "stateMutability": "view",
      "type": "function"
    },
    {
      "inputs": [
        {
          "internalType": "address",
          "name": "user",
          "type": "address"
        }
      ],
      "name": "getOGCount",
      "outputs": [
        {
          "internalType": "uint256",
          "name": "",
          "type": "uint256"
        }
      ],
      "stateMutability": "view",
      "type": "function"
    },
    {
      "inputs": [],
      "name": "getTotalLocked",
      "outputs": [
        {
          "internalType": "uint256",
          "name": "total",
          "type": "uint256"
        }
      ],
      "stateMutability": "view",
      "type": "function"
    },
    {
      "inputs": [
        {
          "internalType": "address",
          "name": "_owner",
          "type": "address"
        }
      ],
      "name": "initialize",
      "outputs": [],
      "stateMutability": "nonpayable",
      "type": "function"
    },
    {
      "inputs": [
        {
          "internalType": "address",
          "name": "",
          "type": "address"
        }
      ],
      "name": "isEligible",
      "outputs": [
        {
          "internalType": "bool",
          "name": "",
          "type": "bool"
        }
      ],
      "stateMutability": "view",
      "type": "function"
    },
    {
      "inputs": [
        {
          "internalType": "address",
          "name": "collection",
          "type": "address"
        },
        {
          "internalType": "uint256",
          "name": "tokenId",
          "type": "uint256"
        }
      ],
      "name": "lock",
      "outputs": [],
      "stateMutability": "nonpayable",
      "type": "function"
    },
    {
      "inputs": [
        {
          "internalType": "address",
          "name": "collection",
          "type": "address"
        },
        {
          "internalType": "uint256[]",
          "name": "tokenIds",
          "type": "uint256[]"
        }
      ],
      "name": "lockBatch",
      "outputs": [],
      "stateMutability": "nonpayable",
      "type": "function"
    },
    {
      "inputs": [
        {
          "internalType": "address",
          "name": "",
          "type": "address"
        }
      ],
      "name": "lockedCount",
      "outputs": [
        {
          "internalType": "uint256",
          "name": "",
          "type": "uint256"
        }
      ],
      "stateMutability": "view",
      "type": "function"
    },
    {
      "inputs": [],
      "name": "owner",
      "outputs": [
        {
          "internalType": "address",
          "name": "",
          "type": "address"
        }
      ],
      "stateMutability": "view",
      "type": "function"
    },
    {
      "inputs": [
        {
          "internalType": "address",
          "name": "collection",
          "type": "address"
        }
      ],
      "name": "removeCollection",
      "outputs": [],
      "stateMutability": "nonpayable",
      "type": "function"
    },
    {
      "inputs": [],
      "name": "renounceOwnership",
      "outputs": [],
      "stateMutability": "nonpayable",
      "type": "function"
    },
    {
      "inputs": [
        {
          "internalType": "address",
          "name": "newOwner",
          "type": "address"
        }
      ],
      "name": "transferOwnership",
      "outputs": [],
      "stateMutability": "nonpayable",
      "type": "function"
    }
  ],
  "bytecode": "0x608060405234801561001057600080fd5b5061001961001e565b6100dd565b600054610100900460ff161561008a5760405162461bcd60e51b815260206004820152602760248201527f496e697469616c697a61626c653a20636f6e747261637420697320696e697469604482015266616c697a696e6760c81b606482015260840160405180910390fd5b60005460ff908116146100db576000805460ff191660ff9081179091556040519081527f7f26b83ff96e1f2b6a682f133852f6798a09c465da95921460cefb38474024989060200160405180910390a15b565b611b5b806100ec6000396000f3fe608060405234801561001057600080fd5b50600436106101375760003560e01c80638da5cb5b116100b8578063dbbf32991161007c578063dbbf3299146102c2578063dc5f560e146102d5578063f2fde38b14610301578063f4732da614610314578063f77a75fe1461031c578063f82e55301461033157600080fd5b80638da5cb5b1461027057806395f2638e14610281578063a174e77a14610294578063c4d66de8146102a7578063c56893fb146102ba57600080fd5b80635028d05a116100ff5780635028d05a146101f857806363a4f2f21461020b57806366e305fd14610222578063715018a614610255578063842c01b91461025d57600080fd5b8063085ba9551461013c57806321e29f481461016f5780632795ac9d14610198578063282d3fdf146101c35780633fd18625146101d8575b600080fd5b61015c61014a3660046116d5565b609a6020526000908152604090205481565b6040519081526020015b60405180910390f35b61015c61017d3660046116d5565b6001600160a01b03166000908152609a602052604090205490565b6101ab6101a63660046116f7565b610352565b6040516001600160a01b039091168152602001610166565b6101d66101d1366004611710565b61037c565b005b6101eb6101e636600461173a565b610560565b60405161016691906117a9565b6101d66102063660046116d5565b6105da565b61021361078d565b604051610166939291906117f6565b6102456102303660046116d5565b60976020526000908152604090205460ff1681565b6040519015158152602001610166565b6101d6610926565b6101d661026b36600461182c565b61093a565b6033546001600160a01b03166101ab565b6101d661028f3660046118c5565b610b48565b6101d66102a23660046116d5565b610d61565b6101d66102b53660046116d5565b610e51565b609b5461015c565b6101d66102d036600461193b565b610f6a565b6102456102e33660046116d5565b6001600160a01b031660009081526097602052604090205460ff1690565b6101d661030f3660046116d5565b61122e565b61015c6112a7565b610324611309565b604051610166919061198e565b61034461033f3660046116d5565b61136b565b6040516101669291906119a1565b6098818154811061036257600080fd5b6000918252602090912001546001600160a01b0316905081565b6103846114f8565b6001600160a01b03821660009081526097602052604090205460ff166103eb5760405162461bcd60e51b8152602060048201526017602482015276436f6c6c656374696f6e206e6f7420656c696769626c6560481b60448201526064015b60405180910390fd5b6040516323b872dd60e01b81526001600160a01b038316906323b872dd9061041b903390309086906004016119cf565b600060405180830381600087803b15801561043557600080fd5b505af1158015610449573d6000803e3d6000fd5b50503360008181526099602090815260408083206001600160a01b03891684528252808320805460018101825590845282842001879055928252609a905290812080549350915061049983611a09565b9091555050336000908152609c602052604090205460ff1661051257336000818152609c60205260408120805460ff19166001908117909155609b805491820181559091527fbba9db4cdbea0a37c207bbb83e20f828cd4441c49891101dc94fd20dc8efc3490180546001600160a01b03191690911790555b6040518181526001600160a01b0383169033907f989eaa915cbb416ea3d6f9a63b1a3de51770c7674b11fe21ecdf76b4e1d139109060200160405180910390a361055c6001606555565b5050565b6001600160a01b0380831660009081526099602090815260408083209385168352928152908290208054835181840281018401909452808452606093928301828280156105cc57602002820191906000526020600020905b8154815260200190600101908083116105b8575b505050505090505b92915050565b6105e2611558565b6001600160a01b03811660009081526097602052604090205460ff166106395760405162461bcd60e51b815260206004820152600c60248201526b4e6f7420656c696769626c6560a01b60448201526064016103e2565b6001600160a01b0381166000908152609760205260408120805460ff191690555b60985481101561075557816001600160a01b03166098828154811061068157610681611a22565b6000918252602090912001546001600160a01b03160361074d57609880546106ab90600190611a38565b815481106106bb576106bb611a22565b600091825260209091200154609880546001600160a01b0390921691839081106106e7576106e7611a22565b9060005260206000200160006101000a8154816001600160a01b0302191690836001600160a01b03160217905550609880548061072657610726611a4b565b600082815260209020810160001990810180546001600160a01b0319169055019055610755565b60010161065a565b506040516001600160a01b038216907fa0691bd707b2f65c33c8343d61c274df72c6b5007937dcfbc31aa5a0d0f6fe3c90600090a250565b609b5460609081906000908067ffffffffffffffff8111156107b1576107b1611a61565b6040519080825280602002602001820160405280156107da578160200160208202803683370190505b5093508067ffffffffffffffff8111156107f6576107f6611a61565b60405190808252806020026020018201604052801561081f578160200160208202803683370190505b5092506000915060005b8181101561091f57609b818154811061084457610844611a22565b9060005260206000200160009054906101000a90046001600160a01b031685828151811061087457610874611a22565b60200260200101906001600160a01b031690816001600160a01b031681525050609a6000609b83815481106108ab576108ab611a22565b60009182526020808320909101546001600160a01b0316835282019290925260400190205484518590839081106108e4576108e4611a22565b60200260200101818152505083818151811061090257610902611a22565b6020026020010151836109159190611a77565b9250600101610829565b5050909192565b61092e611558565b61093860006115b2565b565b610942611558565b6001600160a01b038085166000908152609960209081526040808320938716835292905290812090805b8254811015610a1a578483828154811061098857610988611a22565b906000526020600020015403610a1257825483906109a890600190611a38565b815481106109b8576109b8611a22565b90600052602060002001548382815481106109d5576109d5611a22565b9060005260206000200181905550828054806109f3576109f3611a4b565b6001900381819060005260206000200160009055905560019150610a1a565b60010161096c565b5080610a685760405162461bcd60e51b815260206004820152601860248201527f546f6b656e206e6f74206c6f636b65642062792075736572000000000000000060448201526064016103e2565b6001600160a01b0386166000908152609a60205260408120805491610a8c83611a8a565b90915550506040516323b872dd60e01b81526001600160a01b038616906323b872dd90610ac1903090879089906004016119cf565b600060405180830381600087803b158015610adb57600080fd5b505af1158015610aef573d6000803e3d6000fd5b50505050846001600160a01b0316866001600160a01b03167f27acd158230da584ff0d32a32b1a32d271708e52460a8fe0f7eeb7c65492f62d86604051610b3891815260200190565b60405180910390a3505050505050565b610b50611558565b60005b82811015610d59576001600160a01b0380871660009081526099602090815260408083209389168352929052908120905b8154811015610d4f57858584818110610b9f57610b9f611a22565b90506020020135828281548110610bb857610bb8611a22565b906000526020600020015403610d475781548290610bd890600190611a38565b81548110610be857610be8611a22565b9060005260206000200154828281548110610c0557610c05611a22565b906000526020600020018190555081805480610c2357610c23611a4b565b6000828152602080822083016000199081018390559092019092556001600160a01b038a168252609a905260408120805491610c5e83611a8a565b9190505550866001600160a01b03166323b872dd3086898988818110610c8657610c86611a22565b905060200201356040518463ffffffff1660e01b8152600401610cab939291906119cf565b600060405180830381600087803b158015610cc557600080fd5b505af1158015610cd9573d6000803e3d6000fd5b50505050866001600160a01b0316886001600160a01b03167f27acd158230da584ff0d32a32b1a32d271708e52460a8fe0f7eeb7c65492f62d888887818110610d2457610d24611a22565b90506020020135604051610d3a91815260200190565b60405180910390a3610d4f565b600101610b84565b5050600101610b53565b505050505050565b610d69611558565b6001600160a01b03811660009081526097602052604090205460ff1615610dc55760405162461bcd60e51b815260206004820152601060248201526f416c726561647920656c696769626c6560801b60448201526064016103e2565b6001600160a01b038116600081815260976020526040808220805460ff1916600190811790915560988054918201815583527f2237a976fa961f5921fd19f2b03c925c725d77b20ce8f790c19709c03de4d8140180546001600160a01b03191684179055517f7701426aaa4c0c88a30924a7aba88dce66b18c4020b54e4e19c9e0eb0abc29929190a250565b600054610100900460ff1615808015610e715750600054600160ff909116105b80610e8b5750303b158015610e8b575060005460ff166001145b610eee5760405162461bcd60e51b815260206004820152602e60248201527f496e697469616c697a61626c653a20636f6e747261637420697320616c72656160448201526d191e481a5b9a5d1a585b1a5e995960921b60648201526084016103e2565b6000805460ff191660011790558015610f11576000805461ff0019166101001790555b610f19611604565b610f21611633565b801561055c576000805461ff0019169055604051600181527f7f26b83ff96e1f2b6a682f133852f6798a09c465da95921460cefb38474024989060200160405180910390a15050565b610f726114f8565b6001600160a01b03831660009081526097602052604090205460ff16610fd45760405162461bcd60e51b8152602060048201526017602482015276436f6c6c656374696f6e206e6f7420656c696769626c6560481b60448201526064016103e2565b8061100f5760405162461bcd60e51b815260206004820152600b60248201526a456d70747920617272617960a81b60448201526064016103e2565b60328111156110535760405162461bcd60e51b815260206004820152601060248201526f09ac2f0406a6040e0cae440c4c2e8c6d60831b60448201526064016103e2565b60005b8181101561113957836001600160a01b03166323b872dd333086868681811061108157611081611a22565b905060200201356040518463ffffffff1660e01b81526004016110a6939291906119cf565b600060405180830381600087803b1580156110c057600080fd5b505af11580156110d4573d6000803e3d6000fd5b50503360009081526099602090815260408083206001600160a01b038a16845290915290209150849050838381811061110f5761110f611a22565b83546001808201865560009586526020958690209290950293909301359201919091555001611056565b50336000908152609a602052604081208054839290611159908490611a77565b9091555050336000908152609c602052604090205460ff166111d257336000818152609c60205260408120805460ff19166001908117909155609b805491820181559091527fbba9db4cdbea0a37c207bbb83e20f828cd4441c49891101dc94fd20dc8efc3490180546001600160a01b03191690911790555b826001600160a01b0316336001600160a01b03167fda113cd895e52a1d5abef3cecff34ef96da13a615806fa043d569df04431f4688484604051611217929190611aa1565b60405180910390a36112296001606555565b505050565b611236611558565b6001600160a01b03811661129b5760405162461bcd60e51b815260206004820152602660248201527f4f776e61626c653a206e6577206f776e657220697320746865207a65726f206160448201526564647265737360d01b60648201526084016103e2565b6112a4816115b2565b50565b6000805b609b5481101561130557609a6000609b83815481106112cc576112cc611a22565b60009182526020808320909101546001600160a01b031683528201929092526040019020546112fb9083611a77565b91506001016112ab565b5090565b6060609880548060200260200160405190810160405280929190818152602001828054801561136157602002820191906000526020600020905b81546001600160a01b03168152600190910190602001808311611343575b5050505050905090565b60985460609081908067ffffffffffffffff81111561138c5761138c611a61565b6040519080825280602002602001820160405280156113b5578160200160208202803683370190505b5092508067ffffffffffffffff8111156113d1576113d1611a61565b6040519080825280602002602001820160405280156113fa578160200160208202803683370190505b50915060005b818110156114f1576098818154811061141b5761141b611a22565b9060005260206000200160009054906101000a90046001600160a01b031684828151811061144b5761144b611a22565b60200260200101906001600160a01b031690816001600160a01b03168152505060996000866001600160a01b03166001600160a01b031681526020019081526020016000206000609883815481106114a5576114a5611a22565b60009182526020808320909101546001600160a01b0316835282019290925260400190205483518490839081106114de576114de611a22565b6020908102919091010152600101611400565b5050915091565b60026065540361154a5760405162461bcd60e51b815260206004820152601f60248201527f5265656e7472616e637947756172643a207265656e7472616e742063616c6c0060448201526064016103e2565b6002606555565b6001606555565b6033546001600160a01b031633146109385760405162461bcd60e51b815260206004820181905260248201527f4f776e61626c653a2063616c6c6572206973206e6f7420746865206f776e657260448201526064016103e2565b603380546001600160a01b038381166001600160a01b0319831681179093556040519116919082907f8be0079c531659141344cd1fd0a4f28419497f9722a3daafe3b4186f6b6457e090600090a35050565b600054610100900460ff1661162b5760405162461bcd60e51b81526004016103e290611ada565b610938611662565b600054610100900460ff1661165a5760405162461bcd60e51b81526004016103e290611ada565b610938611692565b600054610100900460ff166116895760405162461bcd60e51b81526004016103e290611ada565b610938336115b2565b600054610100900460ff166115515760405162461bcd60e51b81526004016103e290611ada565b80356001600160a01b03811681146116d057600080fd5b919050565b6000602082840312156116e757600080fd5b6116f0826116b9565b9392505050565b60006020828403121561170957600080fd5b5035919050565b6000806040838503121561172357600080fd5b61172c836116b9565b946020939093013593505050565b6000806040838503121561174d57600080fd5b611756836116b9565b9150611764602084016116b9565b90509250929050565b60008151808452602080850194506020840160005b8381101561179e57815187529582019590820190600101611782565b509495945050505050565b6020815260006116f0602083018461176d565b60008151808452602080850194506020840160005b8381101561179e5781516001600160a01b0316875295820195908201906001016117d1565b60608152600061180960608301866117bc565b828103602084015261181b818661176d565b915050826040830152949350505050565b6000806000806080858703121561184257600080fd5b61184b856116b9565b9350611859602086016116b9565b92506040850135915061186e606086016116b9565b905092959194509250565b60008083601f84011261188b57600080fd5b50813567ffffffffffffffff8111156118a357600080fd5b6020830191508360208260051b85010111156118be57600080fd5b9250929050565b6000806000806000608086880312156118dd57600080fd5b6118e6866116b9565b94506118f4602087016116b9565b9350604086013567ffffffffffffffff81111561191057600080fd5b61191c88828901611879565b909450925061192f9050606087016116b9565b90509295509295909350565b60008060006040848603121561195057600080fd5b611959846116b9565b9250602084013567ffffffffffffffff81111561197557600080fd5b61198186828701611879565b9497909650939450505050565b6020815260006116f060208301846117bc565b6040815260006119b460408301856117bc565b82810360208401526119c6818561176d565b95945050505050565b6001600160a01b039384168152919092166020820152604081019190915260600190565b634e487b7160e01b600052601160045260246000fd5b600060018201611a1b57611a1b6119f3565b5060010190565b634e487b7160e01b600052603260045260246000fd5b818103818111156105d4576105d46119f3565b634e487b7160e01b600052603160045260246000fd5b634e487b7160e01b600052604160045260246000fd5b808201808211156105d4576105d46119f3565b600081611a9957611a996119f3565b506000190190565b6020808252810182905260006001600160fb1b03831115611ac157600080fd5b8260051b80856040850137919091016040019392505050565b6020808252602b908201527f496e697469616c697a61626c653a20636f6e7472616374206973206e6f74206960408201526a6e697469616c697a696e6760a81b60608201526080019056fea264697066735822122096b79624b30b7d46f3f780ca82f99dda8905b7cce598c5926ac48df460ae8dda64736f6c63430008180033",
  "linkReferences": {},
  "deployedLinkReferences": {}
}