{
  "_format": "hh-sol-artifact-1",
  "contractName": "ZapDeposit",
  "sourceName": "contracts/ZapDeposit.sol",
  "abi": [
    {
      "inputs": [
        {
          "internalType": "address",
          "name": "_wflr",
          "type": "address"
        },
        {
          "internalType": "address",
          "name": "_pond",
          "type": "address"
        },
        {
          "internalType": "address",
          "name": "_toadzStake",
          "type": "address"
        }
      ],
      "stateMutability": "nonpayable",
      "type": "constructor"
    },
    {
      "anonymous": false,
      "inputs": [
        {
          "indexed": true,
          "internalType": "address",
          "name": "user",
          "type": "address"
        },
        {
          "indexed": false,
          "internalType": "uint256",
          "name": "flrIn",
          "type": "uint256"
        },
        {
          "indexed": false,
          "internalType": "uint256",
          "name": "staked",
          "type": "uint256"
        },
        {
          "indexed": false,
          "internalType": "uint256",
          "name": "pondBought",
          "type": "uint256"
        }
      ],
      "name": "ZapExecuted",
      "type": "event"
    },
    {
      "inputs": [],
      "name": "pond",
      "outputs": [
        {
          "internalType": "contract IPOND",
          "name": "",
          "type": "address"
        }
      ],
      "stateMutability": "view",
      "type": "function"
    },
    {
      "inputs": [
        {
          "internalType": "uint256",
          "name": "stakeAmount",
          "type": "uint256"
        },
        {
          "internalType": "address",
          "name": "user",
          "type": "address"
        }
      ],
      "name": "previewDeposit",
      "outputs": [
        {
          "internalType": "uint256",
          "name": "totalFLR",
          "type": "uint256"
        },
        {
          "internalType": "uint256",
          "name": "pondCost",
          "type": "uint256"
        },
        {
          "internalType": "uint256",
          "name": "pondToBuy",
          "type": "uint256"
        }
      ],
      "stateMutability": "view",
      "type": "function"
    },
    {
      "inputs": [],
      "name": "toadzStake",
      "outputs": [
        {
          "internalType": "contract IToadzStake",
          "name": "",
          "type": "address"
        }
      ],
      "stateMutability": "view",
      "type": "function"
    },
    {
      "inputs": [],
      "name": "wflr",
      "outputs": [
        {
          "internalType": "contract IWFLR",
          "name": "",
          "type": "address"
        }
      ],
      "stateMutability": "view",
      "type": "function"
    },
    {
      "inputs": [
        {
          "internalType": "uint256",
          "name": "stakeAmount",
          "type": "uint256"
        },
        {
          "internalType": "uint8",
          "name": "lockTier",
          "type": "uint8"
        },
        {
          "internalType": "address",
          "name": "referrer",
          "type": "address"
        }
      ],
      "name": "zapDeposit",
      "outputs": [],
      "stateMutability": "payable",
      "type": "function"
    },
    {
      "stateMutability": "payable",
      "type": "receive"
    }
  ],
  "bytecode": "0x60e060405234801561001057600080fd5b50604051610d0a380380610d0a83398101604081905261002f91610155565b6001600160a01b03838116608081905283821660a081905291831660c05260405163095ea7b360e01b8152600481019290925260001960248301529063095ea7b3906044016020604051808303816000875af1158015610093573d6000803e3d6000fd5b505050506040513d601f19601f820116820180604052508101906100b79190610198565b5060805160405163095ea7b360e01b81526001600160a01b03838116600483015260001960248301529091169063095ea7b3906044016020604051808303816000875af115801561010c573d6000803e3d6000fd5b505050506040513d601f19601f820116820180604052508101906101309190610198565b505050506101c1565b80516001600160a01b038116811461015057600080fd5b919050565b60008060006060848603121561016a57600080fd5b61017384610139565b925061018160208501610139565b915061018f60408501610139565b90509250925092565b6000602082840312156101aa57600080fd5b815180151581146101ba57600080fd5b9392505050565b60805160a05160c051610ac861024260003960008181606c0152818161016b0152818161043c01526107640152600081816101410152818161021d015281816102c5015281816104d40152818161057b0152818161063c01526106b401526000818160bd015281816103b3015281816107d7015261086f0152610ac86000f3fe60806040526004361061004e5760003560e01c806361d2f4841461005a5780639ab83a41146100ab578063df733631146100df578063e092b5711461011a578063f38a95e31461012f57600080fd5b3661005557005b600080fd5b34801561006657600080fd5b5061008e7f000000000000000000000000000000000000000000000000000000000000000081565b6040516001600160a01b0390911681526020015b60405180910390f35b3480156100b757600080fd5b5061008e7f000000000000000000000000000000000000000000000000000000000000000081565b3480156100eb57600080fd5b506100ff6100fa36600461094e565b610163565b604080519384526020840192909252908201526060016100a2565b61012d61012836600461097a565b61036f565b005b34801561013b57600080fd5b5061008e7f000000000000000000000000000000000000000000000000000000000000000081565b6000806000807f00000000000000000000000000000000000000000000000000000000000000006001600160a01b0316633af0261a876040518263ffffffff1660e01b81526004016101b791815260200190565b602060405180830381865afa1580156101d4573d6000803e3d6000fd5b505050506040513d601f19601f820116820180604052508101906101f891906109be565b6040516370a0823160e01b81526001600160a01b0387811660048301529192506000917f000000000000000000000000000000000000000000000000000000000000000016906370a0823190602401602060405180830381865afa158015610264573d6000803e3d6000fd5b505050506040513d601f19601f8201168201806040525081019061028891906109be565b90508181106102a257866000809450945094505050610368565b6102ac81836109ed565b60405163289ede3160e01b8152600481018290529093507f00000000000000000000000000000000000000000000000000000000000000006001600160a01b03169063289ede3190602401606060405180830381865afa158015610314573d6000803e3d6000fd5b505050506040513d601f19601f820116820180604052508101906103389190610a06565b509094506000905061034b601486610a34565b905080610358868a610a56565b6103629190610a56565b95505050505b9250925092565b600034116103b15760405162461bcd60e51b815260206004820152600b60248201526a139bc8119314881cd95b9d60aa1b604482015260640160405180910390fd5b7f00000000000000000000000000000000000000000000000000000000000000006001600160a01b031663d0e30db0346040518263ffffffff1660e01b81526004016000604051808303818588803b15801561040c57600080fd5b505af1158015610420573d6000803e3d6000fd5b5050604051631d78130d60e11b815260048101879052600093507f00000000000000000000000000000000000000000000000000000000000000006001600160a01b03169250633af0261a9150602401602060405180830381865afa15801561048d573d6000803e3d6000fd5b505050506040513d601f19601f820116820180604052508101906104b191906109be565b6040516370a0823160e01b81523360048201529091506000906001600160a01b037f000000000000000000000000000000000000000000000000000000000000000016906370a0823190602401602060405180830381865afa15801561051b573d6000803e3d6000fd5b505050506040513d601f19601f8201168201806040525081019061053f91906109be565b905060008282101561072f57600061055783856109ed565b60405163289ede3160e01b8152600481018290529091506000906001600160a01b037f0000000000000000000000000000000000000000000000000000000000000000169063289ede3190602401606060405180830381865afa1580156105c2573d6000803e3d6000fd5b505050506040513d601f19601f820116820180604052508101906105e69190610a06565b5050905060006032826105f99190610a34565b6106039083610a56565b9050678ac7230489e800008110156106205750678ac7230489e800005b6040516351d42b9d60e11b8152600481018290523360248201527f00000000000000000000000000000000000000000000000000000000000000006001600160a01b03169063a3a8573a90604401600060405180830381600087803b15801561068857600080fd5b505af115801561069c573d6000803e3d6000fd5b50506040516350b728bb60e01b8152600481018490527f00000000000000000000000000000000000000000000000000000000000000006001600160a01b031692506350b728bb9150602401602060405180830381865afa158015610705573d6000803e3d6000fd5b505050506040513d601f19601f8201168201806040525081019061072991906109be565b93505050505b6040516309d8e8e560e21b81523360048201526024810187905260ff861660448201526001600160a01b0385811660648301527f00000000000000000000000000000000000000000000000000000000000000001690632763a39490608401600060405180830381600087803b1580156107a857600080fd5b505af11580156107bc573d6000803e3d6000fd5b50506040516370a0823160e01b8152306004820152600092507f00000000000000000000000000000000000000000000000000000000000000006001600160a01b031691506370a0823190602401602060405180830381865afa158015610827573d6000803e3d6000fd5b505050506040513d601f19601f8201168201806040525081019061084b91906109be565b905080156108e65760405163a9059cbb60e01b8152336004820152602481018290527f00000000000000000000000000000000000000000000000000000000000000006001600160a01b03169063a9059cbb906044016020604051808303816000875af11580156108c0573d6000803e3d6000fd5b505050506040513d601f19601f820116820180604052508101906108e49190610a69565b505b604080513481526020810189905290810183905233907fb1cd5e3f9175ac952455da6b6daf145182b6d6136247418ec0870ee314a5348c9060600160405180910390a250505050505050565b80356001600160a01b038116811461094957600080fd5b919050565b6000806040838503121561096157600080fd5b8235915061097160208401610932565b90509250929050565b60008060006060848603121561098f57600080fd5b83359250602084013560ff811681146109a757600080fd5b91506109b560408501610932565b90509250925092565b6000602082840312156109d057600080fd5b5051919050565b634e487b7160e01b600052601160045260246000fd5b81810381811115610a0057610a006109d7565b92915050565b600080600060608486031215610a1b57600080fd5b8351925060208401519150604084015190509250925092565b600082610a5157634e487b7160e01b600052601260045260246000fd5b500490565b80820180821115610a0057610a006109d7565b600060208284031215610a7b57600080fd5b81518015158114610a8b57600080fd5b939250505056fea2646970667358221220e57e4c4508e804b175035472598ac8c310d7b176a9c427e0e86bd1ce7e467f6064736f6c63430008180033",
  "linkReferences": {},
  "deployedLinkReferences": {}
}