{
  "_format": "hh-sol-artifact-1",
  "contractName": "Buffer",
  "sourceName": "contracts/Buffer_V3.sol",
  "abi": [
    {
      "inputs": [],
      "stateMutability": "nonpayable",
      "type": "constructor"
    },
    {
      "anonymous": false,
      "inputs": [
        {
          "indexed": true,
          "internalType": "address",
          "name": "to",
          "type": "address"
        },
        {
          "indexed": false,
          "internalType": "uint256",
          "name": "amount",
          "type": "uint256"
        }
      ],
      "name": "AdminWithdraw",
      "type": "event"
    },
    {
      "anonymous": false,
      "inputs": [
        {
          "indexed": true,
          "internalType": "address",
          "name": "executor",
          "type": "address"
        }
      ],
      "name": "ClaimExecutorSet",
      "type": "event"
    },
    {
      "anonymous": false,
      "inputs": [
        {
          "indexed": true,
          "internalType": "address",
          "name": "provider",
          "type": "address"
        },
        {
          "indexed": false,
          "internalType": "uint256",
          "name": "bips",
          "type": "uint256"
        }
      ],
      "name": "Delegated",
      "type": "event"
    },
    {
      "anonymous": false,
      "inputs": [
        {
          "indexed": true,
          "internalType": "address",
          "name": "from",
          "type": "address"
        },
        {
          "indexed": false,
          "internalType": "uint256",
          "name": "amount",
          "type": "uint256"
        }
      ],
      "name": "Deposited",
      "type": "event"
    },
    {
      "anonymous": false,
      "inputs": [
        {
          "indexed": true,
          "internalType": "uint24",
          "name": "epochId",
          "type": "uint24"
        },
        {
          "indexed": false,
          "internalType": "uint256",
          "name": "amount",
          "type": "uint256"
        }
      ],
      "name": "FTSORewardsClaimed",
      "type": "event"
    },
    {
      "anonymous": false,
      "inputs": [
        {
          "indexed": false,
          "internalType": "uint8",
          "name": "version",
          "type": "uint8"
        }
      ],
      "name": "Initialized",
      "type": "event"
    },
    {
      "anonymous": false,
      "inputs": [
        {
          "indexed": true,
          "internalType": "address",
          "name": "previousOwner",
          "type": "address"
        },
        {
          "indexed": true,
          "internalType": "address",
          "name": "newOwner",
          "type": "address"
        }
      ],
      "name": "OwnershipTransferred",
      "type": "event"
    },
    {
      "anonymous": false,
      "inputs": [
        {
          "indexed": false,
          "internalType": "address",
          "name": "account",
          "type": "address"
        }
      ],
      "name": "Paused",
      "type": "event"
    },
    {
      "anonymous": false,
      "inputs": [
        {
          "indexed": false,
          "internalType": "address",
          "name": "account",
          "type": "address"
        }
      ],
      "name": "Unpaused",
      "type": "event"
    },
    {
      "anonymous": false,
      "inputs": [
        {
          "indexed": true,
          "internalType": "address",
          "name": "to",
          "type": "address"
        },
        {
          "indexed": false,
          "internalType": "uint256",
          "name": "amount",
          "type": "uint256"
        }
      ],
      "name": "WithdrawnToPond",
      "type": "event"
    },
    {
      "anonymous": false,
      "inputs": [
        {
          "indexed": true,
          "internalType": "address",
          "name": "to",
          "type": "address"
        },
        {
          "indexed": false,
          "internalType": "uint256",
          "name": "amount",
          "type": "uint256"
        }
      ],
      "name": "WithdrawnToStake",
      "type": "event"
    },
    {
      "inputs": [
        {
          "internalType": "uint256",
          "name": "amount",
          "type": "uint256"
        },
        {
          "internalType": "address",
          "name": "to",
          "type": "address"
        }
      ],
      "name": "adminWithdraw",
      "outputs": [],
      "stateMutability": "nonpayable",
      "type": "function"
    },
    {
      "inputs": [
        {
          "internalType": "address",
          "name": "",
          "type": "address"
        }
      ],
      "name": "authorizedSender",
      "outputs": [
        {
          "internalType": "bool",
          "name": "",
          "type": "bool"
        }
      ],
      "stateMutability": "view",
      "type": "function"
    },
    {
      "inputs": [
        {
          "internalType": "uint24",
          "name": "_rewardEpochId",
          "type": "uint24"
        }
      ],
      "name": "claimFtsoRewards",
      "outputs": [],
      "stateMutability": "nonpayable",
      "type": "function"
    },
    {
      "inputs": [
        {
          "internalType": "uint24",
          "name": "_rewardEpochId",
          "type": "uint24"
        },
        {
          "components": [
            {
              "internalType": "bytes32[]",
              "name": "merkleProof",
              "type": "bytes32[]"
            },
            {
              "components": [
                {
                  "internalType": "uint24",
                  "name": "rewardEpochId",
                  "type": "uint24"
                },
                {
                  "internalType": "bytes20",
                  "name": "beneficiary",
                  "type": "bytes20"
                },
                {
                  "internalType": "uint120",
                  "name": "amount",
                  "type": "uint120"
                },
                {
                  "internalType": "enum IRewardsV2.RewardClaimType",
                  "name": "claimType",
                  "type": "uint8"
                }
              ],
              "internalType": "struct IRewardsV2.RewardClaim",
              "name": "body",
              "type": "tuple"
            }
          ],
          "internalType": "struct IRewardsV2.RewardClaimWithProof[]",
          "name": "_claims",
          "type": "tuple[]"
        }
      ],
      "name": "claimFtsoRewardsWithProof",
      "outputs": [],
      "stateMutability": "nonpayable",
      "type": "function"
    },
    {
      "inputs": [],
      "name": "claimSetupManager",
      "outputs": [
        {
          "internalType": "address",
          "name": "",
          "type": "address"
        }
      ],
      "stateMutability": "view",
      "type": "function"
    },
    {
      "inputs": [],
      "name": "dailyWithdrawLimit",
      "outputs": [
        {
          "internalType": "uint256",
          "name": "",
          "type": "uint256"
        }
      ],
      "stateMutability": "view",
      "type": "function"
    },
    {
      "inputs": [
        {
          "internalType": "uint256",
          "name": "_bips",
          "type": "uint256"
        }
      ],
      "name": "delegateToFtso",
      "outputs": [],
      "stateMutability": "nonpayable",
      "type": "function"
    },
    {
      "inputs": [
        {
          "internalType": "uint256",
          "name": "amount",
          "type": "uint256"
        }
      ],
      "name": "deposit",
      "outputs": [],
      "stateMutability": "nonpayable",
      "type": "function"
    },
    {
      "inputs": [
        {
          "internalType": "uint256",
          "name": "_amount",
          "type": "uint256"
        }
      ],
      "name": "emergencyUnwrap",
      "outputs": [],
      "stateMutability": "nonpayable",
      "type": "function"
    },
    {
      "inputs": [
        {
          "internalType": "address",
          "name": "to",
          "type": "address"
        }
      ],
      "name": "emergencyWithdraw",
      "outputs": [],
      "stateMutability": "nonpayable",
      "type": "function"
    },
    {
      "inputs": [],
      "name": "emergencyWithdrawAll",
      "outputs": [],
      "stateMutability": "nonpayable",
      "type": "function"
    },
    {
      "inputs": [],
      "name": "emergencyWithdrawNative",
      "outputs": [],
      "stateMutability": "nonpayable",
      "type": "function"
    },
    {
      "inputs": [],
      "name": "ftsoProvider",
      "outputs": [
        {
          "internalType": "address",
          "name": "",
          "type": "address"
        }
      ],
      "stateMutability": "view",
      "type": "function"
    },
    {
      "inputs": [],
      "name": "getBalance",
      "outputs": [
        {
          "internalType": "uint256",
          "name": "",
          "type": "uint256"
        }
      ],
      "stateMutability": "view",
      "type": "function"
    },
    {
      "inputs": [
        {
          "internalType": "uint256",
          "name": "_rewardEpochId",
          "type": "uint256"
        }
      ],
      "name": "getEpochReward",
      "outputs": [
        {
          "internalType": "uint256",
          "name": "",
          "type": "uint256"
        }
      ],
      "stateMutability": "view",
      "type": "function"
    },
    {
      "inputs": [
        {
          "internalType": "address",
          "name": "_wflr",
          "type": "address"
        },
        {
          "internalType": "address",
          "name": "_ftsoProvider",
          "type": "address"
        }
      ],
      "name": "initialize",
      "outputs": [],
      "stateMutability": "nonpayable",
      "type": "function"
    },
    {
      "inputs": [],
      "name": "lastWithdrawDay",
      "outputs": [
        {
          "internalType": "uint256",
          "name": "",
          "type": "uint256"
        }
      ],
      "stateMutability": "view",
      "type": "function"
    },
    {
      "inputs": [],
      "name": "owner",
      "outputs": [
        {
          "internalType": "address",
          "name": "",
          "type": "address"
        }
      ],
      "stateMutability": "view",
      "type": "function"
    },
    {
      "inputs": [],
      "name": "pause",
      "outputs": [],
      "stateMutability": "nonpayable",
      "type": "function"
    },
    {
      "inputs": [],
      "name": "paused",
      "outputs": [
        {
          "internalType": "bool",
          "name": "",
          "type": "bool"
        }
      ],
      "stateMutability": "view",
      "type": "function"
    },
    {
      "inputs": [],
      "name": "pond",
      "outputs": [
        {
          "internalType": "address",
          "name": "",
          "type": "address"
        }
      ],
      "stateMutability": "view",
      "type": "function"
    },
    {
      "inputs": [
        {
          "internalType": "uint256",
          "name": "_rewardEpochId",
          "type": "uint256"
        },
        {
          "internalType": "uint256",
          "name": "_amount",
          "type": "uint256"
        }
      ],
      "name": "recordEpochRewards",
      "outputs": [],
      "stateMutability": "nonpayable",
      "type": "function"
    },
    {
      "inputs": [],
      "name": "renounceOwnership",
      "outputs": [],
      "stateMutability": "nonpayable",
      "type": "function"
    },
    {
      "inputs": [
        {
          "internalType": "uint256",
          "name": "",
          "type": "uint256"
        }
      ],
      "name": "rewardForEpoch",
      "outputs": [
        {
          "internalType": "uint256",
          "name": "",
          "type": "uint256"
        }
      ],
      "stateMutability": "view",
      "type": "function"
    },
    {
      "inputs": [],
      "name": "rewardsManagerAddress",
      "outputs": [
        {
          "internalType": "address",
          "name": "",
          "type": "address"
        }
      ],
      "stateMutability": "view",
      "type": "function"
    },
    {
      "inputs": [
        {
          "internalType": "address[]",
          "name": "_recipients",
          "type": "address[]"
        }
      ],
      "name": "setAllowedClaimRecipients",
      "outputs": [],
      "stateMutability": "nonpayable",
      "type": "function"
    },
    {
      "inputs": [
        {
          "internalType": "address",
          "name": "_address",
          "type": "address"
        },
        {
          "internalType": "bool",
          "name": "_value",
          "type": "bool"
        }
      ],
      "name": "setAuthorizedSender",
      "outputs": [],
      "stateMutability": "nonpayable",
      "type": "function"
    },
    {
      "inputs": [
        {
          "internalType": "address[]",
          "name": "_executors",
          "type": "address[]"
        }
      ],
      "name": "setClaimExecutors",
      "outputs": [],
      "stateMutability": "nonpayable",
      "type": "function"
    },
    {
      "inputs": [
        {
          "internalType": "address",
          "name": "_claimSetupManager",
          "type": "address"
        }
      ],
      "name": "setClaimSetupManager",
      "outputs": [],
      "stateMutability": "nonpayable",
      "type": "function"
    },
    {
      "inputs": [
        {
          "internalType": "uint256",
          "name": "_limit",
          "type": "uint256"
        }
      ],
      "name": "setDailyWithdrawLimit",
      "outputs": [],
      "stateMutability": "nonpayable",
      "type": "function"
    },
    {
      "inputs": [
        {
          "internalType": "address",
          "name": "_ftsoProvider",
          "type": "address"
        }
      ],
      "name": "setFtsoProvider",
      "outputs": [],
      "stateMutability": "nonpayable",
      "type": "function"
    },
    {
      "inputs": [
        {
          "internalType": "address",
          "name": "_pond",
          "type": "address"
        }
      ],
      "name": "setPond",
      "outputs": [],
      "stateMutability": "nonpayable",
      "type": "function"
    },
    {
      "inputs": [
        {
          "internalType": "address",
          "name": "_rewardsManagerAddress",
          "type": "address"
        }
      ],
      "name": "setRewardsManager",
      "outputs": [],
      "stateMutability": "nonpayable",
      "type": "function"
    },
    {
      "inputs": [
        {
          "internalType": "address",
          "name": "_toadzStake",
          "type": "address"
        }
      ],
      "name": "setToadzStake",
      "outputs": [],
      "stateMutability": "nonpayable",
      "type": "function"
    },
    {
      "inputs": [],
      "name": "toadzStake",
      "outputs": [
        {
          "internalType": "address",
          "name": "",
          "type": "address"
        }
      ],
      "stateMutability": "view",
      "type": "function"
    },
    {
      "inputs": [],
      "name": "totalDeposited",
      "outputs": [
        {
          "internalType": "uint256",
          "name": "",
          "type": "uint256"
        }
      ],
      "stateMutability": "view",
      "type": "function"
    },
    {
      "inputs": [],
      "name": "totalFtsoRewardsClaimed",
      "outputs": [
        {
          "internalType": "uint256",
          "name": "",
          "type": "uint256"
        }
      ],
      "stateMutability": "view",
      "type": "function"
    },
    {
      "inputs": [],
      "name": "totalWithdrawn",
      "outputs": [
        {
          "internalType": "uint256",
          "name": "",
          "type": "uint256"
        }
      ],
      "stateMutability": "view",
      "type": "function"
    },
    {
      "inputs": [
        {
          "internalType": "address",
          "name": "newOwner",
          "type": "address"
        }
      ],
      "name": "transferOwnership",
      "outputs": [],
      "stateMutability": "nonpayable",
      "type": "function"
    },
    {
      "inputs": [],
      "name": "undelegate",
      "outputs": [],
      "stateMutability": "nonpayable",
      "type": "function"
    },
    {
      "inputs": [],
      "name": "unpause",
      "outputs": [],
      "stateMutability": "nonpayable",
      "type": "function"
    },
    {
      "inputs": [],
      "name": "wflr",
      "outputs": [
        {
          "internalType": "contract IERC20",
          "name": "",
          "type": "address"
        }
      ],
      "stateMutability": "view",
      "type": "function"
    },
    {
      "inputs": [
        {
          "internalType": "uint256",
          "name": "amount",
          "type": "uint256"
        }
      ],
      "name": "withdrawToPond",
      "outputs": [],
      "stateMutability": "nonpayable",
      "type": "function"
    },
    {
      "inputs": [
        {
          "internalType": "uint256",
          "name": "amount",
          "type": "uint256"
        }
      ],
      "name": "withdrawToStake",
      "outputs": [],
      "stateMutability": "nonpayable",
      "type": "function"
    },
    {
      "inputs": [],
      "name": "withdrawnToday",
      "outputs": [
        {
          "internalType": "uint256",
          "name": "",
          "type": "uint256"
        }
      ],
      "stateMutability": "view",
      "type": "function"
    },
    {
      "stateMutability": "payable",
      "type": "receive"
    }
  ],
  "bytecode": "0x60806040523480156200001157600080fd5b506200001c62000022565b620000e3565b600054610100900460ff16156200008f5760405162461bcd60e51b815260206004820152602760248201527f496e697469616c697a61626c653a20636f6e747261637420697320696e697469604482015266616c697a696e6760c81b606482015260840160405180910390fd5b60005460ff90811614620000e1576000805460ff191660ff9081179091556040519081527f7f26b83ff96e1f2b6a682f133852f6798a09c465da95921460cefb38474024989060200160405180910390a15b565b612a0780620000f36000396000f3fe6080604052600436106102765760003560e01c80639395b6491161014f578063ce9f8be5116100c1578063dd1917191161007a578063dd19171914610755578063e638ca611461076a578063f2fde38b14610780578063f38a95e3146107a0578063f3dfc2a9146107c0578063ff50abdc146107e057600080fd5b8063ce9f8be514610692578063d2a4ac61146106b2578063d418634a146106d2578063d7c4cbb8146106ff578063d7d9e76e14610715578063d9355c581461073557600080fd5b8063ae0c303911610113578063ae0c3039146105c5578063b6b55f25146105e5578063b823cf8f14610605578063b84868e314610625578063c4db961914610652578063c8dfc59b1461067257600080fd5b80639395b6491461052f57806394785fdb1461054f57806395661e7c1461056f5780639ab83a411461058f578063ace687eb146105af57600080fd5b80634b319713116101e85780636ff1c9bc116101ac5780636ff1c9bc14610492578063715018a6146104b25780638456cb59146104c75780638da5cb5b146104dc5780639119c494146104fa57806392ab89bb1461051a57600080fd5b80634b3197131461040e5780635a09a413146104245780635c975abb1461044457806361d2f4841461045c5780636e8d49dd1461047c57600080fd5b80631ee7b24c1161023a5780631ee7b24c1461033957806320d6101a146103795780633f4ba83a146103995780634634490e146103ae578063485cc955146103ce5780634931fee8146103ee57600080fd5b806307eb2135146102825780630826dd4d146102995780630a8ddc5e146102d657806312065fe0146102f65780631e10665e1461031957600080fd5b3661027d57005b600080fd5b34801561028e57600080fd5b506102976107f6565b005b3480156102a557600080fd5b5060d2546102b9906001600160a01b031681565b6040516001600160a01b0390911681526020015b60405180910390f35b3480156102e257600080fd5b506102976102f1366004612305565b61088e565b34801561030257600080fd5b5061030b6108b8565b6040519081526020016102cd565b34801561032557600080fd5b50610297610334366004612327565b61092a565b34801561034557600080fd5b50610369610354366004612305565b60d56020526000908152604090205460ff1681565b60405190151581526020016102cd565b34801561038557600080fd5b50610297610394366004612327565b610b03565b3480156103a557600080fd5b50610297610c04565b3480156103ba57600080fd5b506102976103c936600461239f565b610c16565b3480156103da57600080fd5b506102976103e93660046123f2565b610ea6565b3480156103fa57600080fd5b50610297610409366004612425565b611006565b34801561041a57600080fd5b5061030b60ce5481565b34801561043057600080fd5b5061029761043f366004612447565b61108f565b34801561045057600080fd5b5060975460ff16610369565b34801561046857600080fd5b5060cb546102b9906001600160a01b031681565b34801561048857600080fd5b5061030b60d35481565b34801561049e57600080fd5b506102976104ad366004612305565b6112e0565b3480156104be57600080fd5b50610297611457565b3480156104d357600080fd5b50610297611469565b3480156104e857600080fd5b506033546001600160a01b03166102b9565b34801561050657600080fd5b5061029761051536600461246a565b611479565b34801561052657600080fd5b506102976115a8565b34801561053b57600080fd5b5061029761054a366004612305565b61161a565b34801561055b57600080fd5b5061029761056a366004612305565b61166a565b34801561057b57600080fd5b5061029761058a366004612305565b611694565b34801561059b57600080fd5b5060c9546102b9906001600160a01b031681565b3480156105bb57600080fd5b5061030b60cf5481565b3480156105d157600080fd5b506102976105e0366004612327565b6116e4565b3480156105f157600080fd5b50610297610600366004612327565b61174d565b34801561061157600080fd5b50610297610620366004612305565b6117a6565b34801561063157600080fd5b5061030b610640366004612327565b60d46020526000908152604090205481565b34801561065e57600080fd5b5060d6546102b9906001600160a01b031681565b34801561067e57600080fd5b5061029761068d3660046124ac565b6117f6565b34801561069e57600080fd5b5060cc546102b9906001600160a01b031681565b3480156106be57600080fd5b506102976106cd36600461246a565b611ab8565b3480156106de57600080fd5b5061030b6106ed366004612327565b600090815260d4602052604090205490565b34801561070b57600080fd5b5061030b60d05481565b34801561072157600080fd5b50610297610730366004612327565b611b74565b34801561074157600080fd5b50610297610750366004612327565b611b81565b34801561076157600080fd5b50610297611d52565b34801561077657600080fd5b5061030b60d15481565b34801561078c57600080fd5b5061029761079b366004612305565b611ec0565b3480156107ac57600080fd5b5060ca546102b9906001600160a01b031681565b3480156107cc57600080fd5b506102976107db3660046124d5565b611f36565b3480156107ec57600080fd5b5061030b60cd5481565b6107fe611f69565b60006108126033546001600160a01b031690565b6001600160a01b03164760405160006040518083038185875af1925050503d806000811461085c576040519150601f19603f3d011682016040523d82523d6000602084013e610861565b606091505b505090508061088b5760405162461bcd60e51b81526004016108829061250c565b60405180910390fd5b50565b610896611f69565b60d280546001600160a01b0319166001600160a01b0392909216919091179055565b60c9546040516370a0823160e01b81523060048201526000916001600160a01b0316906370a0823190602401602060405180830381865afa158015610901573d6000803e3d6000fd5b505050506040513d601f19601f820116820180604052508101906109259190612535565b905090565b610932611fc3565b61093a61201c565b60ca546001600160a01b031633146109805760405162461bcd60e51b815260206004820152600960248201526813db9b1e481413d39160ba1b6044820152606401610882565b60c9546040516370a0823160e01b815230600482015282916001600160a01b0316906370a0823190602401602060405180830381865afa1580156109c8573d6000803e3d6000fd5b505050506040513d601f19601f820116820180604052508101906109ec9190612535565b1015610a0a5760405162461bcd60e51b81526004016108829061254e565b8060ce6000828254610a1c9190612592565b909155505060c95460ca5460405163a9059cbb60e01b81526001600160a01b0391821660048201526024810184905291169063a9059cbb906044016020604051808303816000875af1158015610a76573d6000803e3d6000fd5b505050506040513d601f19601f82011682018060405250810190610a9a91906125ab565b610ab65760405162461bcd60e51b81526004016108829061250c565b60ca546040518281526001600160a01b03909116907f7e842b1ba5a2c72781404387278118546d712f00c57f1af4a6306c5e39baa2f2906020015b60405180910390a261088b6001606555565b610b0b611f69565b60cc546001600160a01b0316610b565760405162461bcd60e51b815260206004820152601060248201526f1c1c9bdd9a59195c881b9bdd081cd95d60821b6044820152606401610882565b60c95460cc5460405163026e402b60e01b81526001600160a01b0391821660048201526024810184905291169063026e402b90604401600060405180830381600087803b158015610ba657600080fd5b505af1158015610bba573d6000803e3d6000fd5b505060cc546040518481526001600160a01b0390911692507f83b3f5ce88736f0128f880f5cac19836da52ea5c5ca7704c7b38f3b06fffd7ab91506020015b60405180910390a250565b610c0c611f69565b610c14612069565b565b33600090815260d5602052604090205460ff1680610c3e57506033546001600160a01b031633145b610c5a5760405162461bcd60e51b8152600401610882906125c8565b60d2546001600160a01b0316610cac5760405162461bcd60e51b81526020600482015260176024820152761c995dd85c991cc81b585b9859d95c881b9bdd081cd95d604a1b6044820152606401610882565b60c9546040516370a0823160e01b81523060048201526000916001600160a01b0316906370a0823190602401602060405180830381865afa158015610cf5573d6000803e3d6000fd5b505050506040513d601f19601f82011682018060405250810190610d199190612535565b60d254604051638e33aba560e01b81529192506001600160a01b031690638e33aba590610d55903090819089906000908a908a90600401612690565b6020604051808303816000875af1158015610d74573d6000803e3d6000fd5b505050506040513d601f19601f82011682018060405250810190610d989190612535565b5060c9546040516370a0823160e01b81523060048201526000916001600160a01b0316906370a0823190602401602060405180830381865afa158015610de2573d6000803e3d6000fd5b505050506040513d601f19601f82011682018060405250810190610e069190612535565b90506000610e1483836127aa565b90508015610e9e5762ffffff8616600090815260d46020526040812082905560d38054839290610e45908490612592565b925050819055508060cd6000828254610e5e9190612592565b909155505060405181815262ffffff8716907fdcb091c842f50372c0ebd2a4348d4a2174da7a1e2096be6009dcc82143789a519060200160405180910390a25b505050505050565b600054610100900460ff1615808015610ec65750600054600160ff909116105b80610ee05750303b158015610ee0575060005460ff166001145b610f435760405162461bcd60e51b815260206004820152602e60248201527f496e697469616c697a61626c653a20636f6e747261637420697320616c72656160448201526d191e481a5b9a5d1a585b1a5e995960921b6064820152608401610882565b6000805460ff191660011790558015610f66576000805461ff0019166101001790555b610f6e6120bb565b610f766120ea565b610f7e612119565b60c980546001600160a01b038086166001600160a01b03199283161790925560cc805492851692909116919091179055683635c9adc5dea0000060cf558015611001576000805461ff0019169055604051600181527f7f26b83ff96e1f2b6a682f133852f6798a09c465da95921460cefb38474024989060200160405180910390a15b505050565b33600090815260d5602052604090205460ff168061102e57506033546001600160a01b031633145b61104a5760405162461bcd60e51b8152600401610882906125c8565b600082815260d46020526040812082905560d3805483929061106d908490612592565b925050819055508060cd60008282546110869190612592565b90915550505050565b611097611f69565b61109f611fc3565b6001600160a01b0381166110c55760405162461bcd60e51b8152600401610882906127bd565b60c9546040516370a0823160e01b815230600482015283916001600160a01b0316906370a0823190602401602060405180830381865afa15801561110d573d6000803e3d6000fd5b505050506040513d601f19601f820116820180604052508101906111319190612535565b101561114f5760405162461bcd60e51b81526004016108829061254e565b600061115e62015180426127e6565b905060d0548111156111755760d0819055600060d1555b60cf548360d1546111869190612592565b11156111cb5760405162461bcd60e51b815260206004820152601460248201527311185a5b1e481b1a5b5a5d08195e18d95959195960621b6044820152606401610882565b8260d160008282546111dd9190612592565b925050819055508260ce60008282546111f69190612592565b909155505060c95460405163a9059cbb60e01b81526001600160a01b038481166004830152602482018690529091169063a9059cbb906044016020604051808303816000875af115801561124e573d6000803e3d6000fd5b505050506040513d601f19601f8201168201806040525081019061127291906125ab565b61128e5760405162461bcd60e51b81526004016108829061250c565b816001600160a01b03167fba443e8671971c36cdeb74f87321041daff421230cbc5e36cb835269ed1d8b7e846040516112c991815260200190565b60405180910390a2506112dc6001606555565b5050565b6112e8611f69565b6001600160a01b03811661130e5760405162461bcd60e51b8152600401610882906127bd565b60c9546040516370a0823160e01b81523060048201526000916001600160a01b0316906370a0823190602401602060405180830381865afa158015611357573d6000803e3d6000fd5b505050506040513d601f19601f8201168201806040525081019061137b9190612535565b60c95460405163a9059cbb60e01b81526001600160a01b0385811660048301526024820184905292935091169063a9059cbb906044016020604051808303816000875af11580156113d0573d6000803e3d6000fd5b505050506040513d601f19601f820116820180604052508101906113f491906125ab565b6114105760405162461bcd60e51b81526004016108829061250c565b816001600160a01b03167fba443e8671971c36cdeb74f87321041daff421230cbc5e36cb835269ed1d8b7e8260405161144b91815260200190565b60405180910390a25050565b61145f611f69565b610c146000612148565b611471611f69565b610c1461219a565b611481611f69565b60d6546001600160a01b03166114d55760405162461bcd60e51b815260206004820152601960248201527810db185a5b54d95d1d5c13585b9859d95c881b9bdd081cd95d603a1b6044820152606401610882565b60d654604051632446712560e21b81526001600160a01b0390911690639119c494906115079085908590600401612808565b600060405180830381600087803b15801561152157600080fd5b505af1158015611535573d6000803e3d6000fd5b5050505060005b818110156110015782828281811061155657611556612854565b905060200201602081019061156b9190612305565b6001600160a01b03167ff5aebd44a097c873679bd4e02318feb78c214c00c78f8c48872e953a751e462060405160405180910390a260010161153c565b6115b0611f69565b60c960009054906101000a90046001600160a01b03166001600160a01b031663b302f3936040518163ffffffff1660e01b8152600401600060405180830381600087803b15801561160057600080fd5b505af1158015611614573d6000803e3d6000fd5b50505050565b611622611f69565b6001600160a01b0381166116485760405162461bcd60e51b8152600401610882906127bd565b60cb80546001600160a01b0319166001600160a01b0392909216919091179055565b611672611f69565b60cc80546001600160a01b0319166001600160a01b0392909216919091179055565b61169c611f69565b6001600160a01b0381166116c25760405162461bcd60e51b8152600401610882906127bd565b60d680546001600160a01b0319166001600160a01b0392909216919091179055565b6116ec611f69565b60c954604051632e1a7d4d60e01b8152600481018390526001600160a01b0390911690632e1a7d4d90602401600060405180830381600087803b15801561173257600080fd5b505af1158015611746573d6000803e3d6000fd5b5050505050565b611755611fc3565b61175d61201c565b8060cd600082825461176f9190612592565b909155505060405181815233907f2da466a7b24304f47e87fa2e1e5a81b9831ce54fec19055ce277ca2f39ba42c490602001610af1565b6117ae611f69565b6001600160a01b0381166117d45760405162461bcd60e51b8152600401610882906127bd565b60ca80546001600160a01b0319166001600160a01b0392909216919091179055565b33600090815260d5602052604090205460ff168061181e57506033546001600160a01b031633145b61183a5760405162461bcd60e51b8152600401610882906125c8565b60d2546001600160a01b031661188c5760405162461bcd60e51b81526020600482015260176024820152761c995dd85c991cc81b585b9859d95c881b9bdd081cd95d604a1b6044820152606401610882565b60c9546040516370a0823160e01b81523060048201526000916001600160a01b0316906370a0823190602401602060405180830381865afa1580156118d5573d6000803e3d6000fd5b505050506040513d601f19601f820116820180604052508101906118f99190612535565b60408051600080825260208201909252919250908161192e565b61191b6122aa565b8152602001906001900390816119135790505b5060d254604051638e33aba560e01b81529192506001600160a01b031690638e33aba59061196990309081908890600090889060040161286a565b6020604051808303816000875af1158015611988573d6000803e3d6000fd5b505050506040513d601f19601f820116820180604052508101906119ac9190612535565b5060c9546040516370a0823160e01b81523060048201526000916001600160a01b0316906370a0823190602401602060405180830381865afa1580156119f6573d6000803e3d6000fd5b505050506040513d601f19601f82011682018060405250810190611a1a9190612535565b90506000611a2884836127aa565b905080156117465762ffffff8516600090815260d46020526040812082905560d38054839290611a59908490612592565b925050819055508060cd6000828254611a729190612592565b909155505060405181815262ffffff8616907fdcb091c842f50372c0ebd2a4348d4a2174da7a1e2096be6009dcc82143789a519060200160405180910390a25050505050565b611ac0611f69565b60d6546001600160a01b0316611b145760405162461bcd60e51b815260206004820152601960248201527810db185a5b54d95d1d5c13585b9859d95c881b9bdd081cd95d603a1b6044820152606401610882565b60d65460405163d2a4ac6160e01b81526001600160a01b039091169063d2a4ac6190611b469085908590600401612808565b600060405180830381600087803b158015611b6057600080fd5b505af1158015610e9e573d6000803e3d6000fd5b611b7c611f69565b60cf55565b611b89611fc3565b611b9161201c565b60cb546001600160a01b03163314611bdd5760405162461bcd60e51b815260206004820152600f60248201526e4f6e6c7920546f61647a5374616b6560881b6044820152606401610882565b60c9546040516370a0823160e01b815230600482015282916001600160a01b0316906370a0823190602401602060405180830381865afa158015611c25573d6000803e3d6000fd5b505050506040513d601f19601f82011682018060405250810190611c499190612535565b1015611c675760405162461bcd60e51b81526004016108829061254e565b8060ce6000828254611c799190612592565b909155505060c95460cb5460405163a9059cbb60e01b81526001600160a01b0391821660048201526024810184905291169063a9059cbb906044016020604051808303816000875af1158015611cd3573d6000803e3d6000fd5b505050506040513d601f19601f82011682018060405250810190611cf791906125ab565b611d135760405162461bcd60e51b81526004016108829061250c565b60cb546040518281526001600160a01b03909116907f85b395da269bb2ac4a0703d09c439f8623f51d5117119a207a1f264d72213fff90602001610af1565b611d5a611f69565b60c9546040516370a0823160e01b81523060048201526000916001600160a01b0316906370a0823190602401602060405180830381865afa158015611da3573d6000803e3d6000fd5b505050506040513d601f19601f82011682018060405250810190611dc79190612535565b60c9549091506001600160a01b031663a9059cbb611ded6033546001600160a01b031690565b6040516001600160e01b031960e084901b1681526001600160a01b039091166004820152602481018490526044016020604051808303816000875af1158015611e3a573d6000803e3d6000fd5b505050506040513d601f19601f82011682018060405250810190611e5e91906125ab565b611e7a5760405162461bcd60e51b81526004016108829061250c565b6033546001600160a01b03166001600160a01b03167fba443e8671971c36cdeb74f87321041daff421230cbc5e36cb835269ed1d8b7e82604051610bf991815260200190565b611ec8611f69565b6001600160a01b038116611f2d5760405162461bcd60e51b815260206004820152602660248201527f4f776e61626c653a206e6577206f776e657220697320746865207a65726f206160448201526564647265737360d01b6064820152608401610882565b61088b81612148565b611f3e611f69565b6001600160a01b0391909116600090815260d560205260409020805460ff1916911515919091179055565b6033546001600160a01b03163314610c145760405162461bcd60e51b815260206004820181905260248201527f4f776e61626c653a2063616c6c6572206973206e6f7420746865206f776e65726044820152606401610882565b6002606554036120155760405162461bcd60e51b815260206004820152601f60248201527f5265656e7472616e637947756172643a207265656e7472616e742063616c6c006044820152606401610882565b6002606555565b60975460ff1615610c145760405162461bcd60e51b815260206004820152601060248201526f14185d5cd8589b194e881c185d5cd95960821b6044820152606401610882565b6001606555565b6120716121d7565b6097805460ff191690557f5db9ee0a495bf2e6ff9c91a7834c1ba4fdd244a5e8aa4e537bd38aeae4b073aa335b6040516001600160a01b03909116815260200160405180910390a1565b600054610100900460ff166120e25760405162461bcd60e51b815260040161088290612986565b610c14612220565b600054610100900460ff166121115760405162461bcd60e51b815260040161088290612986565b610c14612250565b600054610100900460ff166121405760405162461bcd60e51b815260040161088290612986565b610c14612277565b603380546001600160a01b038381166001600160a01b0319831681179093556040519116919082907f8be0079c531659141344cd1fd0a4f28419497f9722a3daafe3b4186f6b6457e090600090a35050565b6121a261201c565b6097805460ff191660011790557f62e78cea01bee320cd4e420270b5ea74000d11b0c9f74754ebdbfc544b05a25861209e3390565b60975460ff16610c145760405162461bcd60e51b815260206004820152601460248201527314185d5cd8589b194e881b9bdd081c185d5cd95960621b6044820152606401610882565b600054610100900460ff166122475760405162461bcd60e51b815260040161088290612986565b610c1433612148565b600054610100900460ff166120625760405162461bcd60e51b815260040161088290612986565b600054610100900460ff1661229e5760405162461bcd60e51b815260040161088290612986565b6097805460ff19169055565b6040518060400160405280606081526020016122e46040805160808101825260008082526020820181905291810182905290606082015290565b905290565b80356001600160a01b038116811461230057600080fd5b919050565b60006020828403121561231757600080fd5b612320826122e9565b9392505050565b60006020828403121561233957600080fd5b5035919050565b803562ffffff8116811461230057600080fd5b60008083601f84011261236557600080fd5b50813567ffffffffffffffff81111561237d57600080fd5b6020830191508360208260051b850101111561239857600080fd5b9250929050565b6000806000604084860312156123b457600080fd5b6123bd84612340565b9250602084013567ffffffffffffffff8111156123d957600080fd5b6123e586828701612353565b9497909650939450505050565b6000806040838503121561240557600080fd5b61240e836122e9565b915061241c602084016122e9565b90509250929050565b6000806040838503121561243857600080fd5b50508035926020909101359150565b6000806040838503121561245a57600080fd5b8235915061241c602084016122e9565b6000806020838503121561247d57600080fd5b823567ffffffffffffffff81111561249457600080fd5b6124a085828601612353565b90969095509350505050565b6000602082840312156124be57600080fd5b61232082612340565b801515811461088b57600080fd5b600080604083850312156124e857600080fd5b6124f1836122e9565b91506020830135612501816124c7565b809150509250929050565b6020808252600f908201526e151c985b9cd9995c8819985a5b1959608a1b604082015260600190565b60006020828403121561254757600080fd5b5051919050565b602080825260149082015273496e73756666696369656e742062616c616e636560601b604082015260600190565b634e487b7160e01b600052601160045260246000fd5b808201808211156125a5576125a561257c565b92915050565b6000602082840312156125bd57600080fd5b8151612320816124c7565b6020808252601590820152743737ba1030baba3437b934bd32b21039b2b73232b960591b604082015260600190565b6005811061261557634e487b7160e01b600052602160045260246000fd5b9052565b62ffffff61262682612340565b16825260208101356bffffffffffffffffffffffff19811680821461264a57600080fd5b60208401525060408101356001600160781b03811680821461266b57600080fd5b60408401525060608101356005811061268357600080fd5b61100160608401826125f7565b6001600160a01b038781168252861660208083019190915262ffffff86166040830152841515606083015260a06080830181905282810184905260009160c09081850190600587811b8701840189875b8a8110156127965789830360bf190186528135368d9003609e1901811261270657600080fd5b8c01803536829003601e1901811261271d57600080fd5b8101868101903567ffffffffffffffff81111561273957600080fd5b80871b80360383131561274b57600080fd5b8b8752868c018290526001600160fb1b0382111561276857600080fd5b80838c89013761277c8988018a8601612619565b9888019895909501890194505050908401906001016126e0565b50909e9d5050505050505050505050505050565b818103818111156125a5576125a561257c565b6020808252600f908201526e496e76616c6964206164647265737360881b604082015260600190565b60008261280357634e487b7160e01b600052601260045260246000fd5b500490565b60208082528181018390526000908460408401835b86811015612849576001600160a01b03612836846122e9565b168252918301919083019060010161281d565b509695505050505050565b634e487b7160e01b600052603260045260246000fd5b600060a080830160018060a01b03808a1685526020818a16818701526040915062ffffff808a1660408801526060891515606089015260a0608089015284895180875260c0965060c08a01915060c08160051b8b0101858c016000805b8481101561296d578d840360bf19018652825180518d865280518e8701819052908b019084908e8801905b808310156129125783518252928d019260019290920191908d01906128f2565b50928c015180518c16888e0152808d01516bffffffffffffffffffffffff19168e8901528d8101516001600160781b03168b8901528a01519261295860808901856125f7565b988c01989650505092890192506001016128c7565b5050508099505050505050505050509695505050505050565b6020808252602b908201527f496e697469616c697a61626c653a20636f6e7472616374206973206e6f74206960408201526a6e697469616c697a696e6760a81b60608201526080019056fea2646970667358221220079c5b9df9036cdce5898ed8e2180bdb0abefabb7c85efb91be7741425910fdc64736f6c63430008180033",
  "linkReferences": {},
  "deployedLinkReferences": {}
}