{
  "_format": "hh-sol-artifact-1",
  "contractName": "TadzClaimer_TP",
  "sourceName": "contracts/TadzClaimer_TP.sol",
  "abi": [
    {
      "inputs": [],
      "stateMutability": "nonpayable",
      "type": "constructor"
    },
    {
      "inputs": [],
      "name": "ClaimsPaused",
      "type": "error"
    },
    {
      "inputs": [],
      "name": "InvalidProof",
      "type": "error"
    },
    {
      "inputs": [],
      "name": "NotEnoughTokens",
      "type": "error"
    },
    {
      "inputs": [],
      "name": "NothingToClaim",
      "type": "error"
    },
    {
      "inputs": [],
      "name": "WithdrawLocked",
      "type": "error"
    },
    {
      "anonymous": false,
      "inputs": [
        {
          "indexed": true,
          "internalType": "address",
          "name": "user",
          "type": "address"
        },
        {
          "indexed": false,
          "internalType": "uint256",
          "name": "amount",
          "type": "uint256"
        },
        {
          "indexed": false,
          "internalType": "uint256[]",
          "name": "tokenIds",
          "type": "uint256[]"
        }
      ],
      "name": "Claimed",
      "type": "event"
    },
    {
      "anonymous": false,
      "inputs": [
        {
          "indexed": false,
          "internalType": "uint8",
          "name": "version",
          "type": "uint8"
        }
      ],
      "name": "Initialized",
      "type": "event"
    },
    {
      "anonymous": false,
      "inputs": [
        {
          "indexed": false,
          "internalType": "bytes32",
          "name": "oldRoot",
          "type": "bytes32"
        },
        {
          "indexed": false,
          "internalType": "bytes32",
          "name": "newRoot",
          "type": "bytes32"
        }
      ],
      "name": "MerkleRootUpdated",
      "type": "event"
    },
    {
      "anonymous": false,
      "inputs": [
        {
          "indexed": true,
          "internalType": "address",
          "name": "previousOwner",
          "type": "address"
        },
        {
          "indexed": true,
          "internalType": "address",
          "name": "newOwner",
          "type": "address"
        }
      ],
      "name": "OwnershipTransferred",
      "type": "event"
    },
    {
      "anonymous": false,
      "inputs": [
        {
          "indexed": false,
          "internalType": "uint256",
          "name": "count",
          "type": "uint256"
        }
      ],
      "name": "TokensDeposited",
      "type": "event"
    },
    {
      "anonymous": false,
      "inputs": [
        {
          "indexed": true,
          "internalType": "address",
          "name": "to",
          "type": "address"
        },
        {
          "indexed": false,
          "internalType": "uint256",
          "name": "count",
          "type": "uint256"
        }
      ],
      "name": "TokensWithdrawn",
      "type": "event"
    },
    {
      "inputs": [],
      "name": "availableTokens",
      "outputs": [
        {
          "internalType": "uint256",
          "name": "",
          "type": "uint256"
        }
      ],
      "stateMutability": "view",
      "type": "function"
    },
    {
      "inputs": [
        {
          "internalType": "uint256",
          "name": "totalAllocation",
          "type": "uint256"
        },
        {
          "internalType": "bytes32[]",
          "name": "proof",
          "type": "bytes32[]"
        }
      ],
      "name": "claim",
      "outputs": [],
      "stateMutability": "nonpayable",
      "type": "function"
    },
    {
      "inputs": [
        {
          "internalType": "address",
          "name": "",
          "type": "address"
        }
      ],
      "name": "claimed",
      "outputs": [
        {
          "internalType": "uint256",
          "name": "",
          "type": "uint256"
        }
      ],
      "stateMutability": "view",
      "type": "function"
    },
    {
      "inputs": [
        {
          "internalType": "uint256[]",
          "name": "_tokenIds",
          "type": "uint256[]"
        }
      ],
      "name": "depositTokenIds",
      "outputs": [],
      "stateMutability": "nonpayable",
      "type": "function"
    },
    {
      "inputs": [
        {
          "internalType": "uint256",
          "name": "newUnlockTime",
          "type": "uint256"
        }
      ],
      "name": "extendWithdrawLock",
      "outputs": [],
      "stateMutability": "nonpayable",
      "type": "function"
    },
    {
      "inputs": [
        {
          "internalType": "address",
          "name": "user",
          "type": "address"
        },
        {
          "internalType": "uint256",
          "name": "totalAllocation",
          "type": "uint256"
        },
        {
          "internalType": "bytes32[]",
          "name": "proof",
          "type": "bytes32[]"
        }
      ],
      "name": "getClaimable",
      "outputs": [
        {
          "internalType": "uint256",
          "name": "",
          "type": "uint256"
        }
      ],
      "stateMutability": "view",
      "type": "function"
    },
    {
      "inputs": [
        {
          "internalType": "address",
          "name": "_tadz",
          "type": "address"
        },
        {
          "internalType": "bytes32",
          "name": "_merkleRoot",
          "type": "bytes32"
        }
      ],
      "name": "initialize",
      "outputs": [],
      "stateMutability": "nonpayable",
      "type": "function"
    },
    {
      "inputs": [],
      "name": "merkleRoot",
      "outputs": [
        {
          "internalType": "bytes32",
          "name": "",
          "type": "bytes32"
        }
      ],
      "stateMutability": "view",
      "type": "function"
    },
    {
      "inputs": [
        {
          "internalType": "address",
          "name": "",
          "type": "address"
        },
        {
          "internalType": "address",
          "name": "",
          "type": "address"
        },
        {
          "internalType": "uint256",
          "name": "",
          "type": "uint256"
        },
        {
          "internalType": "bytes",
          "name": "",
          "type": "bytes"
        }
      ],
      "name": "onERC721Received",
      "outputs": [
        {
          "internalType": "bytes4",
          "name": "",
          "type": "bytes4"
        }
      ],
      "stateMutability": "pure",
      "type": "function"
    },
    {
      "inputs": [],
      "name": "owner",
      "outputs": [
        {
          "internalType": "address",
          "name": "",
          "type": "address"
        }
      ],
      "stateMutability": "view",
      "type": "function"
    },
    {
      "inputs": [],
      "name": "paused",
      "outputs": [
        {
          "internalType": "bool",
          "name": "",
          "type": "bool"
        }
      ],
      "stateMutability": "view",
      "type": "function"
    },
    {
      "inputs": [],
      "name": "renounceOwnership",
      "outputs": [],
      "stateMutability": "nonpayable",
      "type": "function"
    },
    {
      "inputs": [
        {
          "internalType": "bytes32",
          "name": "_merkleRoot",
          "type": "bytes32"
        }
      ],
      "name": "setMerkleRoot",
      "outputs": [],
      "stateMutability": "nonpayable",
      "type": "function"
    },
    {
      "inputs": [
        {
          "internalType": "bool",
          "name": "_paused",
          "type": "bool"
        }
      ],
      "name": "setPaused",
      "outputs": [],
      "stateMutability": "nonpayable",
      "type": "function"
    },
    {
      "inputs": [],
      "name": "tadz",
      "outputs": [
        {
          "internalType": "contract IERC721",
          "name": "",
          "type": "address"
        }
      ],
      "stateMutability": "view",
      "type": "function"
    },
    {
      "inputs": [],
      "name": "timeUntilWithdraw",
      "outputs": [
        {
          "internalType": "uint256",
          "name": "",
          "type": "uint256"
        }
      ],
      "stateMutability": "view",
      "type": "function"
    },
    {
      "inputs": [
        {
          "internalType": "uint256",
          "name": "",
          "type": "uint256"
        }
      ],
      "name": "tokenIds",
      "outputs": [
        {
          "internalType": "uint256",
          "name": "",
          "type": "uint256"
        }
      ],
      "stateMutability": "view",
      "type": "function"
    },
    {
      "inputs": [
        {
          "internalType": "address",
          "name": "newOwner",
          "type": "address"
        }
      ],
      "name": "transferOwnership",
      "outputs": [],
      "stateMutability": "nonpayable",
      "type": "function"
    },
    {
      "inputs": [
        {
          "internalType": "address",
          "name": "user",
          "type": "address"
        },
        {
          "internalType": "uint256",
          "name": "totalAllocation",
          "type": "uint256"
        },
        {
          "internalType": "bytes32[]",
          "name": "proof",
          "type": "bytes32[]"
        }
      ],
      "name": "verifyProof",
      "outputs": [
        {
          "internalType": "bool",
          "name": "",
          "type": "bool"
        }
      ],
      "stateMutability": "view",
      "type": "function"
    },
    {
      "inputs": [
        {
          "internalType": "address",
          "name": "to",
          "type": "address"
        },
        {
          "internalType": "uint256",
          "name": "count",
          "type": "uint256"
        }
      ],
      "name": "withdrawUnclaimed",
      "outputs": [],
      "stateMutability": "nonpayable",
      "type": "function"
    },
    {
      "inputs": [],
      "name": "withdrawUnlockTime",
      "outputs": [
        {
          "internalType": "uint256",
          "name": "",
          "type": "uint256"
        }
      ],
      "stateMutability": "view",
      "type": "function"
    }
  ],
  "bytecode": "0x608060405234801561001057600080fd5b5061001961001e565b6100dd565b600054610100900460ff161561008a5760405162461bcd60e51b815260206004820152602760248201527f496e697469616c697a61626c653a20636f6e747261637420697320696e697469604482015266616c697a696e6760c81b606482015260840160405180910390fd5b60005460ff908116146100db576000805460ff191660ff9081179091556040519081527f7f26b83ff96e1f2b6a682f133852f6798a09c465da95921460cefb38474024989060200160405180910390a15b565b6111d8806100ec6000396000f3fe608060405234801561001057600080fd5b50600436106101375760003560e01c80637cb64759116100b8578063c5dd6afc1161007c578063c5dd6afc14610289578063c884ef831461029c578063d58778d6146102bc578063f2fde38b146102cf578063f616ec85146102e2578063f91c5240146102f557600080fd5b80637cb647591461022c57806388a1463a1461023f5780638da5cb5b146102525780639d37ca2214610263578063be13f47c1461027657600080fd5b80632f52ebb7116100ff5780632f52ebb7146101e357806335769738146101f65780635c975abb146101ff57806369bb4dc21461021c578063715018a61461022457600080fd5b80630de5c7131461013c578063150b7a021461015157806316c38b3c1461018e57806319d97656146101a15780632eb4a7ab146101cc575b600080fd5b61014f61014a366004610e18565b6102fd565b005b61017061015f366004610e42565b630a85bd0160e11b95945050505050565b6040516001600160e01b031990911681526020015b60405180910390f35b61014f61019c366004610edd565b61045d565b6097546101b4906001600160a01b031681565b6040516001600160a01b039091168152602001610185565b6101d560985481565b604051908152602001610185565b61014f6101f1366004610f4b565b610478565b6101d5609b5481565b609c5461020c9060ff1681565b6040519015158152602001610185565b609a546101d5565b61014f610735565b61014f61023a366004610f97565b610749565b61014f61024d366004610f97565b610797565b6033546001600160a01b03166101b4565b6101d5610271366004610fb0565b6107ec565b61014f610284366004610e18565b6108ab565b61014f61029736600461100a565b6109f5565b6101d56102aa36600461104c565b60996020526000908152604090205481565b6101d56102ca366004610f97565b610a77565b61014f6102dd36600461104c565b610a98565b61020c6102f0366004610fb0565b610b11565b6101d5610b8a565b610305610bae565b609b544210156103285760405163102f2f6160e31b815260040160405180910390fd5b609a548111156103375750609a545b60005b8181101561041557609a8054600091906103569060019061107d565b8154811061036657610366611090565b90600052602060002001549050609a805480610384576103846110a6565b6000828152602081206000199083018101919091550190556097546040516323b872dd60e01b81523060048201526001600160a01b03868116602483015260448201849052909116906323b872dd90606401600060405180830381600087803b1580156103f057600080fd5b505af1158015610404573d6000803e3d6000fd5b50506001909301925061033a915050565b50816001600160a01b03167f6352c5382c4a4578e712449ca65e83cdb392d045dfcf1cad9615189db2da244b8260405161045191815260200190565b60405180910390a25050565b610465610bae565b609c805460ff1916911515919091179055565b610480610c08565b609c5460ff16156104a457604051637cdf17ad60e01b815260040160405180910390fd5b600033846040516020016104b99291906110bc565b604051602081830303815290604052805190602001209050610512838380806020026020016040519081016040528093929190818152602001838360200280828437600092019190915250506098549150849050610c61565b61052f576040516309bde33960e01b815260040160405180910390fd5b3360009081526099602052604090205480851161055f576040516312d37ee560e31b815260040160405180910390fd5b600061056b828761107d565b609a54909150811115610591576040516308aeed0f60e21b815260040160405180910390fd5b3360009081526099602052604081208790558167ffffffffffffffff8111156105bc576105bc6110de565b6040519080825280602002602001820160405280156105e5578160200160208202803683370190505b50905060005b828110156106de57609a8054600091906106079060019061107d565b8154811061061757610617611090565b90600052602060002001549050609a805480610635576106356110a6565b6000828152602081206000199083018101919091550190556097546040516323b872dd60e01b8152306004820152336024820152604481018390526001600160a01b03909116906323b872dd90606401600060405180830381600087803b15801561069f57600080fd5b505af11580156106b3573d6000803e3d6000fd5b50505050808383815181106106ca576106ca611090565b6020908102919091010152506001016105eb565b50336001600160a01b03167fa6836ed9f6b0bfa430c6b744cac7cc781c2a5b5be98f6e7ca42d32fd16bc6af3838360405161071a9291906110f4565b60405180910390a2505050506107306001606555565b505050565b61073d610bae565b6107476000610c7e565b565b610751610bae565b609880549082905560408051828152602081018490527ffd69edeceaf1d6832d935be1fba54ca93bf17e71520c6c9ffc08d6e9529f875791015b60405180910390a15050565b61079f610bae565b609b5481116107e75760405162461bcd60e51b815260206004820152600f60248201526e10d85b881bdb9b1e48195e1d195b99608a1b60448201526064015b60405180910390fd5b609b55565b60008085856040516020016108029291906110bc565b60405160208183030381529060405280519060200120905061085b848480806020026020016040519081016040528093929190818152602001838360200280828437600092019190915250506098549150849050610c61565b6108695760009150506108a3565b6001600160a01b038616600090815260996020526040902054808611610894576000925050506108a3565b61089e818761107d565b925050505b949350505050565b600054610100900460ff16158080156108cb5750600054600160ff909116105b806108e55750303b1580156108e5575060005460ff166001145b6109485760405162461bcd60e51b815260206004820152602e60248201527f496e697469616c697a61626c653a20636f6e747261637420697320616c72656160448201526d191e481a5b9a5d1a585b1a5e995960921b60648201526084016107de565b6000805460ff19166001179055801561096b576000805461ff0019166101001790555b610973610cd0565b61097b610cff565b609780546001600160a01b0319166001600160a01b03851617905560988290556109a84262ed4e00611144565b609b558015610730576000805461ff0019169055604051600181527f7f26b83ff96e1f2b6a682f133852f6798a09c465da95921460cefb38474024989060200160405180910390a1505050565b6109fd610bae565b60005b81811015610a4657609a838383818110610a1c57610a1c611090565b83546001808201865560009586526020958690209290950293909301359201919091555001610a00565b506040518181527f77acf75e237f9aae98f997395832d522bdb695e4a9bd07704936aa889a3667d19060200161078b565b609a8181548110610a8757600080fd5b600091825260209091200154905081565b610aa0610bae565b6001600160a01b038116610b055760405162461bcd60e51b815260206004820152602660248201527f4f776e61626c653a206e6577206f776e657220697320746865207a65726f206160448201526564647265737360d01b60648201526084016107de565b610b0e81610c7e565b50565b6000808585604051602001610b279291906110bc565b604051602081830303815290604052805190602001209050610b80848480806020026020016040519081016040528093929190818152602001838360200280828437600092019190915250506098549150849050610c61565b9695505050505050565b6000609b544210610b9b5750600090565b42609b54610ba9919061107d565b905090565b6033546001600160a01b031633146107475760405162461bcd60e51b815260206004820181905260248201527f4f776e61626c653a2063616c6c6572206973206e6f7420746865206f776e657260448201526064016107de565b600260655403610c5a5760405162461bcd60e51b815260206004820152601f60248201527f5265656e7472616e637947756172643a207265656e7472616e742063616c6c0060448201526064016107de565b6002606555565b600082610c6e8584610d2e565b14949350505050565b6001606555565b603380546001600160a01b038381166001600160a01b0319831681179093556040519116919082907f8be0079c531659141344cd1fd0a4f28419497f9722a3daafe3b4186f6b6457e090600090a35050565b600054610100900460ff16610cf75760405162461bcd60e51b81526004016107de90611157565b610747610d73565b600054610100900460ff16610d265760405162461bcd60e51b81526004016107de90611157565b610747610da3565b600081815b8451811015610d6957610d5f82868381518110610d5257610d52611090565b6020026020010151610dca565b9150600101610d33565b5090505b92915050565b600054610100900460ff16610d9a5760405162461bcd60e51b81526004016107de90611157565b61074733610c7e565b600054610100900460ff16610c775760405162461bcd60e51b81526004016107de90611157565b6000818310610de6576000828152602084905260409020610df5565b60008381526020839052604090205b9392505050565b80356001600160a01b0381168114610e1357600080fd5b919050565b60008060408385031215610e2b57600080fd5b610e3483610dfc565b946020939093013593505050565b600080600080600060808688031215610e5a57600080fd5b610e6386610dfc565b9450610e7160208701610dfc565b935060408601359250606086013567ffffffffffffffff80821115610e9557600080fd5b818801915088601f830112610ea957600080fd5b813581811115610eb857600080fd5b896020828501011115610eca57600080fd5b9699959850939650602001949392505050565b600060208284031215610eef57600080fd5b81358015158114610df557600080fd5b60008083601f840112610f1157600080fd5b50813567ffffffffffffffff811115610f2957600080fd5b6020830191508360208260051b8501011115610f4457600080fd5b9250929050565b600080600060408486031215610f6057600080fd5b83359250602084013567ffffffffffffffff811115610f7e57600080fd5b610f8a86828701610eff565b9497909650939450505050565b600060208284031215610fa957600080fd5b5035919050565b60008060008060608587031215610fc657600080fd5b610fcf85610dfc565b935060208501359250604085013567ffffffffffffffff811115610ff257600080fd5b610ffe87828801610eff565b95989497509550505050565b6000806020838503121561101d57600080fd5b823567ffffffffffffffff81111561103457600080fd5b61104085828601610eff565b90969095509350505050565b60006020828403121561105e57600080fd5b610df582610dfc565b634e487b7160e01b600052601160045260246000fd5b81810381811115610d6d57610d6d611067565b634e487b7160e01b600052603260045260246000fd5b634e487b7160e01b600052603160045260246000fd5b60609290921b6bffffffffffffffffffffffff19168252601482015260340190565b634e487b7160e01b600052604160045260246000fd5b60006040820184835260206040602085015281855180845260608601915060208701935060005b818110156111375784518352938301939183019160010161111b565b5090979650505050505050565b80820180821115610d6d57610d6d611067565b6020808252602b908201527f496e697469616c697a61626c653a20636f6e7472616374206973206e6f74206960408201526a6e697469616c697a696e6760a81b60608201526080019056fea2646970667358221220724940178357d68ed6a6e6548a4d858627481eaff44740cafc8494bc1721bc3564736f6c63430008180033",
  "linkReferences": {},
  "deployedLinkReferences": {}
}